:0400000098EF01F084
:100008005F82FACF45F0FBCF46F0E9CF47F0EACF61
:1000180048F0E1CF49F0E2CF4AF0D9CF4BF0DACF40
:100028004CF0F3CF4DF0F4CF4EF0F6CF4FF0F7CFC2
:1000380050F0F8CF51F0F5CF52F05FC053F060C0E8
:1000480054F061C055F062C056F0A4AE2AD16C9845
:100058006CBC02D06CAE05D06FCFD5F06C9C6C9E9A
:100068006C886DB4F2D06DBA03D06FCFD4F0ECD0F9
:100078006FCFD3F05D50010D190EF324D96E010E28
:10008800F420DA6E6FCFDFFF5D2A400E01011919E7
:10009800D8A4CED0578457925790000E5C6E010EAC
:1000A8005D64C6D01AC15EF05EC0E0F00001E16B8D
:1000B800000E5D6EA4D0000E586E000E596EA00E94
:1000C8000BD0000E586E000E596E200E05D0000E93
:1000D800586E000E596E800E5A6E400E5B6E000E02
:1000E800E16F000EE06FA4D0000E586E000E596E3E
:1000F800400EF2D7D890E037E137D890E037E137B3
:1001080058C01EF159C01FF15AC020F15BC021F13F
:10011800000E136E000E146EB40E156E420E166E9F
:10012800990E416EFF0E426EE0C043F0E1C044F00C
:10013800415043264250442243C001F044C002F0DB
:10014800036A046A000EA9EC0FF001C00FF002C0A8
:1001580010F003C011F004C012F050EC05F00FC00D
:1001680028F010C029F011C02AF012C02BF0000EA0
:100178002C6EC00E2D6E530E2E6E440E2F6E90EC0C
:100188000BF028C058F029C059F02AC05AF02BC0EB
:100198005BF0000E196E000E1A6E000E1B6E000E3C
:1001A8001C6E58C009F059C00AF05AC00BF05BC069
:1001B8000CF01EC101F01FC102F020C103F021C1E3
:1001C80004F05CEC13F001C005F002C006F003C0B7
:1001D80007F004C008F097EC08F005C01DF006C051
:1001E8001EF007C01FF008C020F0E2EC10F0D8B0F5
:1001F80002D0578801D05798000E000171D7E0C08F
:1002080041F0E1C042F04250000AD8A473D74150EF
:10021800210AD8B469D7030AD8B466D7010AD8B472
:1002280056D7070AD8B44DD7010AD8B444D762D7ED
:10023800600E01011919D8A407D057805792579416
:10024800000E5C6E000E5D6E6C886DA428D057A4FD
:1002580012D0000E5D6E5C50010D140EF324D96EA1
:10026800010EF420DA6EDF506F6E5C2A010E5C64BA
:1002780002D0000E5C6E57A012D0000E5D6E5C506E
:10028800010D140EF324D96E010EF420DA6EDF503E
:100298006F6E5C2A010E5C6402D0000E5C6EA49E38
:1002A8006C88F2B4F2AA1AD0F294FB0E026E1E0EFB
:1002B800016ED6EC13F00A0E0001D719D8A40DD0A0
:1002C800010ED86F000ED76FDA2B8C8E0A0EDA6506
:1002D80005D08C9E000EDA6F01D0D72B56C062F085
:1002E80055C061F054C060F053C05FF052C0F5FFD4
:1002F80051C0F8FF50C0F7FF4FC0F6FF4EC0F4FFE3
:100308004DC0F3FF4CC0DAFF4BC0D9FF4AC0E2FF33
:1003180049C0E1FF48C0EAFF47C0E9FF46C0FBFF0C
:1003280045C0FAFF5F9211006CEF12F0B3EC12F0C7
:10033800F28EF28CF28A7D829D96000E0001616F2A
:10034800000E606F2BEC13F0000E0001616F000EC1
:10035800606F0DEC13F08A948A928986DF0E5E6EC8
:10036800200E0001D96F000EC66F200EC56F500E0B
:1003780073EC13F08B8081B014D0000E0001616F14
:10038800000E606F2BEC13F0000E0001616F000E81
:10039800606F0DEC13F0000E0001D86FF29A8C9E7E
:1003A800EAD7F28A000E0001D66F040ED66501D096
:1003B8001DD0050EC26EC282C2B2FED7C450000163
:1003C800A46FA36BC350A325CD6F000EA421CE6FDD
:1003D800D651020D000EF324D96E010EF420DA6E08
:1003E800CDC0DEFFCEC0DDFFD62BDFD70101045123
:1003F80002250001A36F0101055103210001A46F2B
:10040800010106510001A327010107510001A4239E
:10041800010108510001A327010109510001A4238A
:10042800010100510001A325D16F01010151000113
:10043800A421D26FD1C060F0D2C061F0000E636F0A
:10044800050E626FE3EC12F060C0D1F061C0D2F02B
:10045800D1C0E2F0D2C0E3F0000E0001D26F000E6E
:10046800D16FE35108E1670EE25DD8B004D0000E09
:10047800E36F670EE26FB70EE25D030EE359D8A093
:1004880004D0030EE36FB60EE26F000E726F000E1B
:10049800736FB40E746F420E756F990EA36FFF0ED3
:1004A800A46FE2C0A5F0E3C0A6F0A351A527A4510C
:1004B800A623A5C060F0A6C061F0626B636B000E56
:1004C800FFEC0EF060C06EF061C06FF062C070F0BB
:1004D80063C071F0A7EC03F06EC087F06FC088F0BE
:1004E80070C089F071C08AF0000E00018B6FC00ED9
:1004F8008C6F530E8D6F440E8E6F35EC0AF087C0EB
:10050800E4F088C0E5F089C0E6F08AC0E7F00001B1
:10051800D851D8B430D7000ED86F57A803D072EC92
:1005280011F008D058C0F0F059C0F1F05AC0F2F0FC
:100538005BC0F3F058C060F059C061F05AC062F077
:100548005BC063F0CD0E0001646FCC0E656FBC0E0E
:10055800666F400E676F51EC10F00001D8A015D0FF
:10056800E4C060F0E5C061F0E6C062F0E7C063F0A7
:10057800000E646F000E656F900E666F400E676F19
:1005880051EC10F00001D8B02AD0CD0E606FCC0E1F
:10059800616FBC0E626F400E636F58C064F059C043
:1005A80065F05AC066F05BC067F051EC10F00001CE
:1005B800D8A044D0E4C060F0E5C061F0E6C062F0C5
:1005C800E7C063F0660E646F660E656FD60E666FE1
:1005D800400E676F51EC10F00001D8A02FD0000E2C
:1005E800616F000E606F0DEC13F002EC0EF0140E4C
:1005F8000001726FAE0E736F230E746F410E756F2C
:10060800ABC06EF0ACC06FF0ADC070F0AEC071F0B2
:10061800A7EC03F06EC087F06FC088F070C089F057
:1006280071C08AF0FDEC11F087C0C9F088C0CAF02B
:10063800C9C060F0CAC061F02BEC13F058C060F07C
:1006480059C061F05AC062F05BC063F0CD0E000182
:10065800646FCC0E656FBC0E666F400E676F51EC11
:1006680010F00001D8B015D0E4C060F0E5C061F02A
:10067800E6C062F0E7C063F0660E646F660E656FF1
:10068800D60E666F400E676F51EC10F00001D8A0CF
:100698002AD0CD0E606FCC0E616FBC0E626F400E1B
:1006A800636F58C064F059C065F05AC066F05BC00B
:1006B80067F051EC10F00001D8B05DD6E4C060F0EE
:1006C800E5C061F0E6C062F0E7C063F0000E646F59
:1006D800000E656F900E666F400E676F51EC10F05C
:1006E8000001D8B048D6000E616F000E606F2BEC89
:1006F80013F0EAEC0CF0140E0001726FAE0E736F7B
:10070800230E746F410E756FA7C06EF0A8C06FF00E
:10071800A9C070F0AAC071F0A7EC03F06EC087F012
:100728006FC088F070C089F071C08AF0FDEC11F0DC
:1007380087C0C9F088C0CAF0C9C060F0CAC061F0FB
:100748000DEC13F018D600017151800B7A6F7151BE
:100758007125806F70BF80818051D8B40DD08029F9
:10076800D8A408D0000E6E6F000E6F6F000E706F69
:10077800000E716F708F08D0000E6E6F000E6F6FD5
:10078800000E706F000E716F7551800B7A1B7551DA
:1007980075257F6F74BF7F817F51D8B40DD07F29B5
:1007A800D8A408D0000E726F000E736F000E746F1D
:1007B800000E756F748F08D0000E726F000E736F85
:1007C800000E746F000E756F7F51D8B403D080513E
:1007D800D8A409D0000E6E6F000E6F6F000E706FF8
:1007E800000E716F120074516E03F3CF85F0F4CFD1
:1007F80086F085517B6F7C6B7D6B7E6B8651816F3C
:10080800826B836B846B73516F03F3CF85F0F4CFE6
:1008180086F085517B27000E7C237D237E2386511D
:100828008127000E82238323842372517003F3CF20
:1008380085F0F4CF86F085517B27000E7C237D233D
:100848007E2386518127000E8223832384237DC043
:100858007EF07CC07DF07BC07CF07B6B72516F03B7
:10086800F3CF85F0F4CF86F085517B2786517C2322
:10087800000E7D23000E7E2373516E03F3CF85F0A7
:10088800F4CF86F085517B2786517C23000E7D238B
:10089800000E7E237DC07EF07CC07DF07BC07CF0A6
:1008A8007B6B72516E03F3CF85F0F4CF86F08551E0
:1008B8007B2786517C23000E7D23000E7E237451F6
:1008C8006F03F3CF85F0F4CF86F0855181278651E9
:1008D8008223000E8323000E842373517003F3CF09
:1008E80085F0F4CF86F08551812786518223000E4A
:1008F8008323000E842374517003F3CF85F0F4CF63
:1009080086F08551766F8651776F786B796B78C0F2
:1009180079F077C078F076C077F0766B76518127DA
:100928007751822378518323795184237BC076F0D1
:100938007CC077F07DC078F07EC079F0190E05D0C4
:10094800D8907933783377337633E82EF9D77651E0
:1009580081277751822378518323795184237DC05D
:100968007EF07CC07DF07BC07CF07B6B7F5180C0CB
:1009780076F0776B7627000E7723820E7625856FC3
:10098800FF0E7721866F0FD0D89081378237833753
:1009980084377EBF8181D8907B377C377D377E371F
:1009A8008507D8A0860783AFEFD7000E7F6F7EAF8D
:1009B80016D0FF0E7B15766FFF0E7C15776FFF0E36
:1009C8007D15786F7F0E7E15796F765177117811C6
:1009D8007911D8A402D081A102D0010E7F6F7F5176
:1009E800D8B41FD0010E8127000E822383238423CD
:1009F80084A117D081C076F082C077F083C078F0E8
:100A080084C079F07935793378337733763376C0A3
:100A180081F077C082F078C083F079C084F0854B8C
:100A2800862B86BF0DD0865103E18529D8A008D032
:100A3800000E816F000E826F800E836F7F0E20D0B4
:100A480086BF05D086510EE18505D8B00BD0000EC3
:100A5800816F000E826F000E836F000E846F000E90
:100A68007A6F0FD085C080F0FF0E8117FF0E8217B6
:100A78007F0E8317000E841780B1838FD890803142
:100A8800846F7A51841381C06EF082C06FF083C086
:100A980070F084C071F012001250800B1B6E12505F
:100AA8001224216E11BE21802150D8B40DD02128E6
:100AB800D8A408D0000E0F6E000E106E000E116E36
:100AC800000E126E118E08D0000E0F6E000E106E02
:100AD800000E116E000E126E1650800B1B1A165067
:100AE8001624206E15BE20802050D8B40DD02028A2
:100AF800D8A408D0000E136E000E146E000E156EEA
:100B0800000E166E158E08D0000E136E000E146EB1
:100B1800000E156E000E166E2050D8B403D021506A
:100B2800D8A409D0000E0F6E000E106E000E116EC4
:100B3800000E126E120015500F02F3CF26F0F4CFFC
:100B480027F026501C6E1D6A1E6A1F6A2750226EE7
:100B5800236A246A256A14501002F3CF26F0F4CFD2
:100B680027F026501C26000E1D221E221F22275069
:100B78002226000E23222422252213501102F3CF0D
:100B880026F0F4CF27F026501C26000E1D221E2228
:100B98001F2227502226000E2322242225221EC08F
:100BA8001FF01DC01EF01CC01DF01C6A135010025F
:100BB800F3CF26F0F4CF27F026501C2627501D220D
:100BC800000E1E22000E1F2214500F02F3CF26F033
:100BD800F4CF27F026501C2627501D22000E1E2277
:100BE800000E1F221EC01FF01DC01EF01CC01DF0ED
:100BF8001C6A13500F02F3CF26F0F4CF27F02650CB
:100C08001C2627501D22000E1E22000E1F221550E2
:100C18001002F3CF26F0F4CF27F0265022262750D3
:100C28002322000E2422000E252214501102F3CF95
:100C380026F0F4CF27F02650222627502322000E34
:100C48002422000E252215501102F3CF26F0F4CFEE
:100C580027F02650176E2750186E196A1A6A19C09D
:100C68001AF018C019F017C018F0176A1750222682
:100C780018502322195024221A5025221CC017F07C
:100C88001DC018F01EC019F01FC01AF0190E05D0AB
:100C9800D8901A32193218321732E82EF9D717506D
:100CA800222618502322195024221A5025221EC009
:100CB8001FF01DC01EF01CC01DF01C6A205021C072
:100CC80017F0186A1726000E1822820E1724266EAF
:100CD800FF0E1820276E0FD0D890223623362436E0
:100CE80025361FBE2280D8901C361D361E361F366C
:100CF8002606D8A0270624AEEFD7000E206E1FAE1A
:100D080016D0FF0E1C14176EFF0E1D14186EFF0E62
:100D18001E14196E7F0E1F141A6E17501810191012
:100D28001A10D8A402D022A002D0010E206E2050A2
:100D3800D8B41FD0010E2226000E232224222522F9
:100D480025A017D022C017F023C018F024C019F02E
:100D580025C01AF01A341A3219321832173217C04D
:100D680022F018C023F019C024F01AC025F0264A32
:100D7800272A27BE0DD0275003E12628D8A008D05F
:100D8800000E226E000E236E800E246E7F0E20D081
:100D980027BE05D027500EE12604D8B00BD0000E90
:100DA800226E000E236E000E246E000E256E000EBD
:100DB8001B6E0FD026C021F0FF0E2216FF0E231641
:100DC8007F0E2416000E251621B0248ED8902130CF
:100DD800256E1B50251222C00FF023C010F024C02E
:100DE80011F025C012F0120000018E51800B9B6F8C
:100DF8008E518E259D6F8DBF9D819D51D8B40DD08C
:100E08009D29D8A408D0000E8B6F000E8C6F000EA1
:100E18008D6F000E8E6F8D8F06D0000E8B6F000EBB
:100E28008C6F000E8D6F000E8E6F9251800B9C6F31
:100E38009B519C19D8A49B8D925192259C6F91BF70
:100E48009C819C51D8B40DD09C29D8A408D0000E00
:100E58008F6F000E906F000E916F000E926F918F42
:100E680006D0000E8F6F000E906F000E916F000E6F
:100E7800926F9D519C5DD8B022D09BAD02D0800E60
:100E88009B1B9DC09EF09CC09DF09EC09CF08BC09B
:100E98009EF08FC08BF09EC08FF08CC09EF090C0EB
:100EA8008CF09EC090F08DC09EF091C08DF09EC0D9
:100EB80091F08EC09EF092C08EF09EC092F0000E0F
:100EC8009E6F9D51936F946B931F941F934B942B1C
:100ED8009C51956F966B935195279451962396BF85
:100EE8002CD0965104E11A0E955DD8A026D08B51CE
:100EF8008C118D118E11D8B402D0010E01D0000EC4
:100F08009E6F000E8B6F000E8C6F000E8D6F000EA3
:100F18008E6F9CC09DF015D09EA105D0D8909E31B3
:100F280001099E6F02D0D8909E338BB19E8F8E356B
:100F38008E338D338C338B339D2B9C519D5DD8A084
:100F4800EBD79BBD29D09D51D8A409D0000E8B6F3B
:100F5800000E8C6F000E8D6F000E8E6F12008F5179
:100F68008B2790518C2391518D2392518E238EA1E2
:100F780083D09EA106D0D8909E339E5101099E6FC2
:100F880002D0D8909E338BB19E8F8E358E338D33A1
:100F98008C338B339D2B70D08F518B5D90518C5936
:100FA80091518D598E51800A936F9251800A9359AD
:100FB800D8B036D08BC093F08CC094F08DC095F02B
:100FC8008EC096F0931F941F951F961F932B000EAB
:100FD8009423952396238F519325976F90519421AD
:100FE800986F91519521996F925196219A6FFF0EA2
:100FF80097258B6FFF0E98218C6FFF0E99218D6FAF
:10100800FF0E9A218E6F800E9B1B9E6D9E51D8A459
:101018000FD0010E8B27000E8C238D238E2308D032
:101028008F518B5F90518C5B91518D5B92518E5B90
:101038008B518C118D118E11D8A41CD09E51D8A41F
:1010480019D0000E8B6F000E8C6F000E8D6F000E86
:101058008E6F1200D8908B378C378D378E379EBFA6
:101068008B819EA102D0D88001D0D8909E379D5107
:10107800D8A49D078DAFEED7000E9C6F9EAF0AD007
:101088009EC093F07F0E9317D8A402D08BA102D0F4
:10109800010E9C6F9C51D8B420D0010E8B27000EF6
:1010A8008C238D238E238EA118D08BC093F08CC0F7
:1010B80094F08DC095F08EC096F0963596339533A2
:1010C8009433933393C08BF094C08CF095C08DF01B
:1010D80096C08EF09D29D8A49D2B9D29D8B403D005
:1010E8009D51D8A40DD0000E8B6F000E8C6F000E92
:1010F8008D6F000E8E6F9D51D8A402D0000E9B6F8D
:101108009DA102D08D8F01D08D9FD8909D318E6F7B
:101118009BBF8E8F8BC08BF08CC08CF08DC08DF0F8
:101128008EC08EF012000850800B156E08500824EF
:10113800176E07BE17801750D8B40DD01728D8A43B
:1011480008D0000E056E000E066E000E076E000E2B
:10115800086E078E06D0000E056E000E066E000E95
:10116800076E000E086E0C50800B166E1550161880
:10117800D8A4158C0C500C24166E0BBE1680165075
:10118800D8B40DD01628D8A408D0000E096E000EC9
:101198000A6E000E0B6E000E0C6E0B8E06D0000E43
:1011A800096E000E0A6E000E0B6E000E0C6E1750C4
:1011B800165CD8B022D015AC02D0800E151A17C014
:1011C80018F016C017F018C016F005C018F009C0BE
:1011D80005F018C009F006C018F00AC006F018C0DB
:1011E8000AF007C018F00BC007F018C00BF008C0D1
:1011F80018F00CC008F018C00CF0000E186E17504C
:101208000D6E0E6A0D1E0E1E0D4A0E2A16500F6E1A
:10121800106A0D500F260E50102210BE2CD0105000
:1012280004E11A0E0F5CD8A026D00550061007104E
:101238000810D8B402D0010E01D0000E186E000EAE
:10124800056E000E066E000E076E000E086E16C0C4
:1012580017F015D018A005D0D89018300109186ECD
:1012680002D0D890183205B0188E083408320732E8
:1012780006320532172A1650175CD8A0EBD715BCD2
:1012880029D01750D8A409D0000E056E000E066E9E
:10129800000E076E000E086E1200095005260A504F
:1012A80006220B5007220C50082208A083D018A051
:1012B80006D0D890183218500109186E02D0D8906C
:1012C800183205B0188E0834083207320632053253
:1012D800172A70D00950055C0A5006580B50075859
:1012E8000850800A0D6E0C50800A0D58D8B036D0C0
:1012F80005C00DF006C00EF007C00FF008C010F0D2
:101308000D1E0E1E0F1E101E0D2A000E0E220F227D
:10131800102209500D24116E0A500E20126E0B5027
:101328000F20136E0C501020146EFF0E1124056E42
:10133800FF0E1220066EFF0E1320076EFF0E1420FC
:10134800086E800E151A186C1850D8A40FD0010E0C
:101358000526000E06220722082208D00950055E3D
:101368000A50065A0B50075A0C50085A05500610D6
:1013780007100810D8A41CD01850D8A419D0000EF3
:10138800056E000E066E000E076E000E086E120047
:10139800D890053606360736083618BE058018A0D8
:1013A80002D0D88001D0D89018361750D8A4170684
:1013B80007AEEED7000E166E18AE0AD018C00DF0A4
:1013C8007F0E0D16D8A402D005A002D0010E166E0D
:1013D8001650D8B420D0010E0526000E062207228A
:1013E800082208A018D005C00DF006C00EF007C0EE
:1013F8000FF008C010F0103410320F320E320D32D8
:101408000DC005F00EC006F00FC007F010C008F0C0
:101418001728D8A4172A1728D8B403D01750D8A447
:101428000DD0000E056E000E066E000E076E000E43
:10143800086E1750D8A402D0000E156E17A002D05F
:10144800078E01D0079ED8901730086E15BE088EFB
:1014580005C005F006C006F007C007F008C008F090
:10146800120000018A51800B936F8A518A259E6F62
:1014780089BF9E819E51D8B40DD09E29D8A408D08A
:10148800000E876F000E886F000E896F000E8A6F3E
:10149800898F06D0000E876F000E886F000E896F47
:1014A800000E8A6F8E51800B931B8E518E259F6F75
:1014B8008DBF9F819F51D8B40DD09F29D8A408D043
:1014C800000E8B6F000E8C6F000E8D6F000E8E6FEE
:1014D8008D8F06D0000E8B6F000E8C6F000E8D6FF7
:1014E800000E8E6F8B518C118D118E11D8A415D0D2
:1014F800000E876F000E886F000E896F000E8A6FCE
:10150800800E89137F0E8A1387C087F088C088F001
:1015180089C089F08AC08AF012009E51D8A411D0DF
:10152800000E876F000E886F000E896F000E8A6F9D
:1015380087C087F088C088F089C089F08AC08AF09F
:1015480012009F518F6F906B8F1F901F8F4B902BA6
:101558009E51916F926B8F519127905192237F0EDC
:101568009125986F000E9221996F87C094F088C0DA
:1015780095F089C096F08AC097F0000E876F000E2C
:10158800886F000E896F000E8A6F000E9A6F000E2A
:101598009B6F000E9C6F000E9D6F000E9F6F28D0F2
:1015A8009F51D8B411D0D89094379537963797373C
:1015B800D8908737883789378A379DBF8781D890F1
:1015C8009A379B379C379D378B51945D8C51955931
:1015D8008D5196598E519759D8A009D09D8D8B5110
:1015E800945F8C51955B8D51965B8E51975B9F2BC9
:1015F800190E9F65D5D79451951196119711D8B4A6
:1016080011D09A810FD0D8908737883789378A3791
:101618009DBF8781D8909A379B379C379D3798070D
:10162800D8A0990789AFEFD7000E9F6F9DAF16D04E
:10163800FF0E9A158F6FFF0E9B15906FFF0E9C156E
:10164800916F7F0E9D15926F8F519011911192118C
:10165800D8A402D087A102D0010E9F6F9F51D8B4A1
:101668001FD0010E8727000E882389238A238AA189
:1016780017D087C08FF088C090F089C091F08AC0D9
:1016880092F092359233913390338F338FC087F035
:1016980090C088F091C089F092C08AF0984B992B3D
:1016A80099BF10D0995103E19829D8A00BD0000E0A
:1016B800996F9869000E876F000E886F000E896F0A
:1016C800000E8A6F99BF05D0995111E19805D8B0DD
:1016D8000ED0000E996F000E986F000E876F000EE7
:1016E800886F000E896F000E8A6F000E936F98C086
:1016F8009EF09EA102D0898F01D0899FD8909E31FB
:101708008A6F93518A1387C087F088C088F089C090
:1017180089F08AC08AF012002B50800B346E2B504F
:101728002B243F6E2ABE3F803F50D8B40DD03F28AF
:10173800D8A408D0000E286E000E296E000E2A6E5E
:10174800000E2B6E2A8E06D0000E286E000E296E13
:10175800000E2A6E000E2B6E2F50800B341A2F505D
:101768002F24406E2EBE40804050D8B40DD0402863
:10177800D8A408D0000E2C6E000E2D6E000E2E6E12
:10178800000E2F6E2E8E06D0000E2C6E000E2D6EC3
:10179800000E2E6E000E2F6E2C502D102E102F10B6
:1017A800D8A415D0000E286E000E296E000E2A6EE1
:1017B800000E2B6E800E2A127F0E2B1228C028F0E6
:1017C80029C029F02AC02AF02BC02BF012003F5064
:1017D800D8A411D0000E286E000E296E000E2A6EB5
:1017E800000E2B6E28C028F029C029F02AC02AF044
:1017F8002BC02BF012004050306E316A301E311E63
:10180800304A312A3F50326E336A305032263150D6
:1018180033227F0E3224396E000E33203A6E28C0F0
:1018280035F029C036F02AC037F02BC038F0000E4A
:10183800286E000E296E000E2A6E000E2B6E000E0A
:101848003B6E000E3C6E000E3D6E000E3E6E000EAE
:10185800406E28D04050D8B411D0D890353636369E
:1018680037363836D890283629362A362B363EBEB3
:101878002880D8903B363C363D363E362C50355C79
:101888002D5036582E5037582F503858D8A009D0D8
:101898003E8C2C50355E2D50365A2E50375A2F50CC
:1018A800385A402A190E4064D5D7355036103710AB
:1018B8003810D8B411D03B800FD0D89028362936AC
:1018C8002A362B363EBE2880D8903B363C363D36ED
:1018D8003E363906D8A03A062AAEEFD7000E406E3B
:1018E8003EAE16D0FF0E3B14306EFF0E3C14316E28
:1018F800FF0E3D14326E7F0E3E14336E30503110A1
:1019080032103310D8A402D028A002D0010E406EA5
:101918004050D8B41FD0010E2826000E29222A22B2
:101928002B222BA017D028C030F029C031F02AC0B4
:1019380032F02BC033F0333433323232313230327A
:1019480030C028F031C029F032C02AF033C02BF063
:10195800394A3A2A3ABE10D03A5003E13928D8A079
:101968000BD0000E3A6E3968000E286E000E296EF4
:10197800000E2A6E000E2B6E3ABE05D03A5011E1C9
:101988003904D8B00ED0000E3A6E000E396E000E33
:10199800286E000E296E000E2A6E000E2B6E000EA9
:1019A800346E39C03FF03FA002D02A8E01D02A9E63
:1019B800D8903F302B6E34502B1228C028F029C005
:1019C80029F02AC02AF02BC02BF01200000E0001CB
:1019D800726F000E736F800E746F3F0E756FF0C0DC
:1019E8006EF0F1C06FF0F2C070F0F3C071F0A7ECC8
:1019F80003F06EC08BF06FC08CF070C08DF071C0BA
:101A08008EF0000E0001726F000E736F800E746FFF
:101A18003F0E756FE4C06EF0E5C06FF0E6C070F081
:101A2800E7C071F0A7EC03F06EC087F06FC088F0D4
:101A380070C089F071C08AF044EC13F087C08FF051
:101A480088C090F089C091F08AC092F0F8EC06F056
:101A58008BC0DCF08CC0DDF08DC0DEF08EC0DFF016
:101A6800DCC06EF0DDC06FF0DEC070F0DFC071F07A
:101A7800000E0001726F000E736F800E746FBF0E40
:101A8800756FA7EC03F06EC0DCF06FC0DDF070C0BE
:101A9800DEF071C0DFF04EC172F04FC173F050C17B
:101AA80074F051C175F036C18FF037C190F038C16C
:101AB80091F039C192F0DCC08BF0DDC08CF0DEC053
:101AC8008DF0DFC08EF0F8EC06F08BC06EF08CC0A5
:101AD8006FF08DC070F08EC071F0A7EC03F06EC08F
:101AE8009FF06FC0A0F070C0A1F071C0A2F09FC0BD
:101AF8008BF0A0C08CF0A1C08DF0A2C08EF026C1E2
:101B08008FF027C190F028C191F029C192F0F8EC2C
:101B180006F08BC0B3F08CC0B4F08DC0B5F08EC0A9
:101B2800B6F0F8C06EF0F9C06FF0FAC070F0FBC004
:101B380071F0DCC072F0DDC073F0DEC074F0DFC09D
:101B480075F0A7EC03F06EC022F16FC023F170C0EE
:101B580024F171C025F1B3C08BF0B4C08CF0B5C0CE
:101B68008DF0B6C08EF022C18FF023C190F024C151
:101B780091F025C192F0F8EC06F08BC0A7F08CC06C
:101B8800A8F08DC0A9F08EC0AAF0DCC036F1DDC087
:101B980037F1DEC038F1DFC039F1B3C026F1B4C087
:101BA80027F1B5C028F1B6C029F1000E0001606F19
:101BB800000E616FC80E626F420E636FA7C064F0BB
:101BC800A8C065F0A9C066F0AAC067F051EC10F093
:101BD8000001D8B008D0000EA76F000EA86FC80E7D
:101BE800A96F420EAA6FAAAF1200000EA76F000ECF
:101BF800A86F000EA96F000EAA6F1200000E000158
:101C0800726F000E736F800E746F3F0E756FF0C0A9
:101C18006EF0F1C06FF0F2C070F0F3C071F0A7EC95
:101C280003F06EC08BF06FC08CF070C08DF071C087
:101C38008EF0000E0001726F000E736F800E746FCD
:101C48003F0E756FE4C06EF0E5C06FF0E6C070F04F
:101C5800E7C071F0A7EC03F06EC087F06FC088F0A2
:101C680070C089F071C08AF044EC13F087C08FF01F
:101C780088C090F089C091F08AC092F0F8EC06F024
:101C88008BC0AFF08CC0B0F08DC0B1F08EC0B2F098
:101C980052C172F053C173F054C174F055C175F05C
:101CA8003EC18FF03FC190F040C191F041C192F028
:101CB800AFC08BF0B0C08CF0B1C08DF0B2C08EF068
:101CC800F8EC06F08BC06EF08CC06FF08DC070F031
:101CD8008EC071F0A7EC03F06EC09FF06FC0A0F04B
:101CE80070C0A1F071C0A2F09FC08BF0A0C08CF0B2
:101CF800A1C08DF0A2C08EF032C18FF033C190F038
:101D080034C191F035C192F0F8EC06F08BC0B7F011
:101D18008CC0B8F08DC0B9F08EC0BAF0F4C06EF0C7
:101D2800F5C06FF0F6C070F0F7C071F0AFC072F098
:101D3800B0C073F0B1C074F0B2C075F0A7EC03F096
:101D48006EC02AF16FC02BF170C02CF171C02DF15B
:101D5800B7C08BF0B8C08CF0B9C08DF0BAC08EF0A7
:101D68002AC18FF02BC190F02CC191F02DC192F0B7
:101D7800F8EC06F08BC0ABF08CC0ACF08DC0ADF0C9
:101D88008EC0AEF0AFC03EF1B0C03FF1B1C040F17F
:101D9800B2C041F1B7C032F1B8C033F1B9C034F1C3
:101DA800BAC035F1000E0001606F000E616FC80EF9
:101DB800626F420E636FABC064F0ACC065F0ADC03B
:101DC80066F0AEC067F051EC10F00001D8B008D052
:101DD800000EAB6F000EAC6FC80EAD6F420EAE6F4B
:101DE800AEAF1200000EAB6F000EAC6F000EAD6F01
:101DF800000EAE6F12000001686F00016851D8A490
:101E080063AF1AD060C064F061C065F062C066F06C
:101E180063C067F0641F651F661F671F642B000E91
:101E280065236623672364C06AF065C06BF066C0EB
:101E38006CF067C06DF008D060C06AF061C06BF0EC
:101E480062C06CF063C06DF0605161116211631182
:101E5800D8A409D0000E606F000E616F000E626F8B
:101E6800000E636F1200960E696F06D0692BD8902A
:101E78006D336C336B336A33000E6A15646F000E72
:101E88006B15656F000E6C15666FFE0E6D15676F2E
:101E98006451651166116711D8B40DD0E7D7692B65
:101EA800010E6A27000E6B236C236D23D8906D33C7
:101EB8006C336B336A33000E6A15646F000E6B1552
:101EC800656F000E6C15666FFF0E6D15676F6451B8
:101ED800651166116711D8B407D0E1D76907D890A2
:101EE8006A376B376C376D376CBF03D0020E696188
:101EF800F5D769B108D0FF0E6A17FF0E6B177F0E72
:101F08006C17FF0E6D17D890693369C064F0656B64
:101F1800666B676B64C067F0666B656B646B645176
:101F28006A1365516B1366516C1367516D136851D1
:101F3800D8A463AF01D06D8F6AC060F06BC061F048
:101F48006CC062F06DC063F01200096E0950D8A42D
:101F580004AE1AD001C005F002C006F003C007F0B5
:101F680004C008F0051E061E071E081E052A000EDE
:101F780006220722082205C00BF006C00CF007C095
:101F88000DF008C00EF008D001C00BF002C00CF034
:101F980003C00DF004C00EF001500210031004102D
:101FA800D8A409D0000E016E000E026E000E036E5A
:101FB800000E046E1200960E0A6E06D00A2AD890F9
:101FC8000E320D320C320B32000E0B14056E000E61
:101FD8000C14066E000E0D14076EFE0E0E14086E1D
:101FE8000550061007100810D8B40DD0E7D70A2AF4
:101FF800010E0B26000E0C220D220E22D8900E3256
:102008000D320C320B32000E0B14056E000E0C1440
:10201800066E000E0D14076EFF0E0E14086E0550A6
:10202800061007100810D8B407D0E1D70A06D890D0
:102038000B360C360D360E360DBE03D0020E0A6076
:10204800F5D70AB008D0FF0E0B16FF0E0C167F0E40
:102058000D16FF0E0E16D8900A320AC005F0066A51
:10206800076A086A05C008F0076A066A056A055023
:102078000B1206500C1207500D1208500E12095080
:10208800D8A404AE01D00E8E0BC001F00CC002F033
:102098000DC003F00EC004F01200000E0001601520
:1020A800686F000E6115696F800E62156A6F7F0E8A
:1020B80063156B6F685169116A116B11D8A408D048
:1020C800000E606F000E616F000E626F000E636F8E
:1020D800000E6415686F000E6515696F800E661531
:1020E8006A6F7F0E67156B6F685169116A116B1102
:1020F800D8A408D0000E646F000E656F000E666FDE
:10210800000E676F63AF1DD060C068F061C069F0F2
:1021180062C06AF063C06BF0681F691F6A1F6B1F9B
:10212800682B000E69236A236B23000E6825606FF5
:10213800000E6921616F000E6A21626F800E6B21AB
:10214800636F67AF1DD064C068F065C069F066C092
:102158006AF067C06BF0681F691F6A1F6B1F682BE6
:10216800000E69236A236B23000E6825646F000E36
:102178006921656F000E6A21666F800E6B21676F9B
:10218800000E601B000E611B000E621B800E631B9D
:10219800000E641B000E651B000E661B800E671B7D
:1021A8006451605D6551615966516259675163595F
:1021B800D8B002D0D8901200D8801200000E19149E
:1021C800216E000E1A14226E800E1B14236E7F0ED1
:1021D8001C14246E2150221023102410D8A408D0D7
:1021E800000E196E000E1A6E000E1B6E000E1C6E8D
:1021F800000E1D14216E000E1E14226E800E1F1478
:10220800236E7F0E2014246E2150221023102410D8
:10221800D8A408D0000E1D6E000E1E6E000E1F6E94
:10222800000E206E1CAE1DD019C021F01AC022F07D
:102238001BC023F01CC024F0211E221E231E241EB6
:10224800212A000E222223222422000E2124196E84
:10225800000E22201A6E000E23201B6E800E2420F2
:102268001C6E20AE1DD01DC021F01EC022F01FC064
:1022780023F020C024F0211E221E231E241E212A02
:10228800000E222223222422000E21241D6E000E7D
:1022980022201E6E000E23201F6E800E2420206E2A
:1022A800000E191A000E1A1A000E1B1A800E1C1A9C
:1022B800000E1D1A000E1E1A000E1F1A800E201A7C
:1022C8001D50195C1E501A581F501B5820501C587E
:1022D800D8B002D0D8901200D880120058C0BFF0F1
:1022E80059C0C0F05AC0C1F05BC0C2F0BFC060F0B6
:1022F800C0C061F0C1C062F0C2C063F0000E00014E
:10230800646F000E656F000E666F410E676F51ECCB
:1023180010F00001D8B00ED09C0EEC6F330EED6FAC
:10232800A20EEE6F3C0EEF6F630EE86FEE0EE96FD4
:102338007A0E0DD0550EEC6F130EED6F840EEE6F06
:102348003D0EEF6FEE0EE86F7C0EE96F6F0EEA6FD1
:102358003F0EEB6F46C172F047C173F048C174F08D
:1023680049C175F0ECC06EF0EDC06FF0EEC070F0D2
:10237800EFC071F0A7EC03F06EC08BF06FC08CF06B
:1023880070C08DF071C08EF0BBC072F0BCC073F02D
:10239800BDC074F0BEC075F0E8C06EF0E9C06FF063
:1023A800EAC070F0EBC071F0A7EC03F06EC08FF0DC
:1023B8006FC090F070C091F071C092F0F8EC06F028
:1023C8008BC0F0F08CC0F1F08DC0F2F08EC0F3F04D
:1023D800BFC046F1C0C047F1C1C048F1C2C049F111
:1023E800F0C0BBF0F1C0BCF0F2C0BDF0F3C0BEF06D
:1023F8001200000189358A35906F9051D8A409D010
:10240800000E876F000E886F000E896F000E8A6FAE
:10241800120087C08BF088C08CF089C08DF08AC00C
:102428008EF0200E05D0D8908E338D338C338B33BD
:10243800E82EF9D78B518F6F898FFF0E8717FF0E04
:102448008817FF0E8917000E8A17960E905F90AFB7
:1024580016D09051800A970FD8B009D0000E876F18
:10246800000E886F000E896F000E8A6F1200D890D8
:102478008A33893388338733903FF9D715D01F0EB5
:1024880090650FD0000E876F000E886F000E896F61
:10249800000E8A6F1200D8908737883789378A37B5
:1024A80090079051D8A4F7D78F51D8B408D08A1F75
:1024B800891F881F876D000E882389238A2387C078
:1024C80087F088C088F089C089F08AC08AF0120035
:1024D800B60EF66E270EF76E000EF86E01EE4EF091
:1024E80010EE08F00900F5CFEEFFE550E150FAE1F3
:1024F800700EF66E270EF76E000EF86E00EEE4F022
:1025080010EE1AF00900F5CFEEFFE550E150FAE1C0
:10251800BE0EF66E270EF76E000EF86E00EE58F03F
:1025280010EE04F00900F5CFEEFFE550E150FAE1B6
:1025380001EE00F04E0EEE6AE806FDE100EEA7F0AF
:102548003D0EEE6AE806FDE1576A5E6A5D6A5C6AFE
:102558005F905F92000EF86E00019AEF01F0030E93
:102568000F01386F000E396F000E3A6F000E3B6F87
:10257800000E3C6FF70E926E110E936E000E946E65
:10258800000E956E000E966E0D0E0001606FFB0E2C
:10259800E82EFED7602FFCD700D0050EC26E000EC5
:1025A800C16EA50EC06ED08EA8EC13F098EC13F097
:1025B800C5EC13F0CEEC13F087EC13F01200000E0C
:1025C8000001656F000E646F62516311D8B41CD0AE
:1025D800010E666F04D0D89062376337662B63AFFD
:1025E800FAD7D890643765376251605D6351615995
:1025F800D8A005D06251605F6351615B6481D89057
:1026080063336233662FEDD764C060F065C061F054
:10261800120060C062F061C063F00001D8906333BB
:102628006233D8906333623362510F015E6F60C0CA
:1026380062F0030E00016217623BF00E62170F0191
:102648005D51CF0B000162110F015D6F120060C078
:1026580062F061C063F00001D89063336233D890B0
:10266800633362336251676E60C062F0030E6217B3
:10267800623BF00E62176650CF0B6211666E120055
:1026880000018751881189118A11D8B408D0000E29
:10269800871B000E881B000E891B800E8A1B87C0B3
:1026A80087F088C088F089C089F08AC08AF0120053
:1026B8000150021003100410D8B408D0000E011AFB
:1026C800000E021A000E031A800E041A01C001F04F
:1026D80002C002F003C003F004C004F012000001BD
:1026E800606F000E0F013A6F95809582360E6C6E02
:1026F800010E6B6E60C06EFF000E6D6EF28EF28C76
:10270800A38EA49E12000F014E8F4E9D4E9B4E9994
:102718004E974E854E834E817F8294847E92FF0E23
:10272800506FFE0E4F6F12001C0E0F015D6F0C0EE6
:102738005E6F000E5F6F4A0EBB6E5B9F5B995B9B83
:102748005B9D499D499F12001C0E666E0C0E676EBC
:10275800000E686EFA0EBB6E649E6498649A649C60
:102768000F014997499912000000C040EE7C6F3F65
:102778005513843D000060406666263F00006040B7
:102788000100D590D582D594D59CD596D598D59A63
:10279800D58E1200BA86BA88BA8ABA8CBA80BA823A
:1027A800BA8412000250D76E01C0D6FF1200EC5155
:0A27B800383E8FC2753C0000E0407F
:020000040020DA
:08000000FFFFFFFFFFFFFFFF00
:020000040030CA
:0E000000FF321F3FFFBE81FF0FC00FE00F4019
:00000001FF
