:0400000095EF01F087
:100008005F82FACF45F0FBCF46F0E9CF47F0EACF61
:1000180048F0E1CF49F0E2CF4AF0D9CF4BF0DACF40
:100028004CF0F3CF4DF0F4CF4EF0F6CF4FF0F7CFC2
:1000380050F0F8CF51F0F5CF52F0A4AE37D16C980C
:100048006CBC02D06CAE05D06FCF55F06C9C6C9E2A
:100058006C886DB4FFD06DBA03D06FCFDAF0F9D0E9
:100068006FCFD9F05450010D190EF324D96E010E3B
:10007800F420DA6E6FCFDFFF542A400E0101191900
:10008800D8A4DBD05A845A925A90000E536E010EAF
:100098005464D3D01AC159F059C0E2F00001E36B9F
:1000A800000E546E8BA002D0010E01D0000EFF0A84
:1000B800416E8B504118FE0B41188B6EA5D0000E77
:1000C8005B6E000E5C6EA00E0BD0000E5B6E000E19
:1000D8005C6E200E05D0000E5B6E000E5C6E800E0E
:1000E8005D6E400E5E6E000E0001E36F000EE26F63
:1000F800A4D0000E5B6E000E5C6E400EF1D70001BE
:10010800D890E237E3370001D890E237E3375BC095
:100118001EF15CC01FF15DC020F15EC021F1000E30
:10012800136E000E146EB40E156E420E166E990EF6
:10013800416EFF0E426EE2C043F0E3C044F041500E
:1001480043264250442243C001F044C002F0036AEF
:10015800046A000E16EC14F001C00FF002C010F093
:1001680003C011F004C012F0ACEC0BF00FC028F083
:1001780010C029F011C02AF012C02BF0000E2C6E0E
:10018800C00E2D6E530E2E6E440E2F6EF2EC0EF036
:1001980028C05BF029C05CF02AC05DF02BC05EF07F
:1001A800000E196E000E1A6E000E1B6E000E1C6EED
:1001B8005BC009F05CC00AF05DC00BF05EC00CF0DB
:1001C8001EC101F01FC102F020C103F021C104F0DB
:1001D80091EC17F001C005F002C006F003C007F06B
:1001E80004C008F054EC0DF005C01DF006C01EF068
:1001F80007C01FF008C020F0BEEC14F0D8B002D041
:100208005A8871D75A986FD7E2C041F0E3C042F0DC
:100218004250000AD8A473D74150210AD8B469D7EC
:10022800030AD8B466D7010AD8B455D7070AD8B490
:100238004CD7010AD8B443D762D7600E0101191907
:10024800D8A407D05A805A925A94000E536E000EC2
:10025800546E6C886DA428D05AA412D0000E546E27
:100268005350010DD50EF324D96E000EF420DA6E2A
:10027800DF506F6E532A010E536402D0000E536E86
:100288005AA012D0000E546E5350010D140EF324D0
:10029800D96E010EF420DA6EDF506F6E532A010E0C
:1002A800536402D0000E536EA49E6C88F2B4F2AA76
:1002B8001AD0F294FB0E026E1E0E016E01EC18F0BD
:1002C8000A0E5618D8A40ED0010E0001DC6F000EDD
:1002D800566E572A8C8E0A0E576405D08C9E000ED7
:1002E800576E01D0562A52C0F5FF51C0F8FF50C0D2
:1002F800F7FF4FC0F6FF4EC0F4FF4DC0F3FF4CC0F0
:10030800DAFF4BC0D9FF4AC0E2FF49C0E1FF48C04D
:10031800EAFF47C0E9FF46C0FBFF45C0FAFF5F920E
:10032800110063EF16F0E9EC16F0F28EF28CF28A07
:100338007D829D96000E0001616F000E606F3EEC9D
:1003480017F0000E0001616F000E606F1DEC17F0D2
:100358008A948A928986DF0E596E200E0001DD6F1D
:10036800000E0001CA6F200EC96F500EBEEC17F0C8
:100378008B8081B02AD1000E0001616F000E606F82
:100388003EEC17F0000E0001616F000E606F1DEC6F
:1003980017F0000E0001DC6FF29A8C9E000E00012F
:1003A800DB6F040E0001DB6501D023D0050EC26EA1
:1003B800C282C2B2FED7C4500001A46FA36BC3505F
:1003C8000001A3250001D16F000E0001A421000146
:1003D800D26F0001DB51020D000EF324D96E010E1D
:1003E800F420DA6ED1C0DEFFD2C0DDFF0001DB2BC6
:1003F800D8D701010451010102250001A36F0101B1
:100408000551010103210001A46F010106510001FA
:10041800A327010107510001A4230101085100018C
:10042800A327010109510001A42301010051000182
:10043800A3250001D76F010101510001A42100018A
:10044800D86FD7C060F0D8C061F0000E0001636FAC
:10045800050E626FADEC16F060C0D7F061C0D8F041
:10046800D7C0E4F0D8C0E5F0000E0001D86F000E48
:10047800D76F0001E5510AE1670E0001E45DD8B0CD
:1004880005D0000E0001E56F670EE46FB70E00019E
:10049800E45D030E0001E559D8A005D0030E000164
:1004A800E56FB60EE46F000E0001726F000E736FF9
:1004B800B40E746F420E756F990E0001A36FFF0E94
:1004C8000001A46FE4C0A5F0E5C0A6F00001A351A7
:1004D8000001A5270001A4510001A623A5C060F0D2
:1004E800A6C061F00001626B636B000E67EC12F04E
:1004F80060C06EF061C06FF062C070F063C071F0F0
:1005080079EC07F06EC087F06FC088F070C089F092
:1005180071C08AF0000E00018B6FC00E8C6F530EF5
:100528008D6F440E8E6FCCEC09F087C0E6F088C062
:10053800E7F089C0E8F08AC0E9F0000E0001726FA8
:10054800000E736F200E746F410E756FE6C06EF06B
:10055800E7C06FF0E8C070F0E9C071F079EC07F01F
:100568006EC087F06FC088F070C089F071C08AF0E3
:10057800DDEC15F0000188C087F00001886B0001F0
:1005880087510001D56F000E0001726F000E736F66
:10059800200E746F410E756FE6C06EF0E7C06FF005
:1005A800E8C070F0E9C071F079EC07F06EC087F030
:1005B8006FC088F070C089F071C08AF0DDEC15F06A
:1005C800000187510001D66FD4D6F28A000E0001CF
:1005D800DB6F040E0001DB6501D023D0050EC26E6F
:1005E800C282C2B2FED7C4500001A46FA36BC3502D
:1005F8000001A3250001D16F000E0001A421000114
:10060800D26F0001DB51020D000EF324D96E010EEA
:10061800F420DA6ED1C0DEFFD2C0DDFF0001DB2B93
:10062800D8D701010451010102250001A36F01017E
:100638000551010103210001A46F010106510001C8
:10064800A327010107510001A4230101085100015A
:10065800A327010109510001A42301010051000150
:10066800A3250001D76F010101510001A421000158
:10067800D86FD7C060F0D8C061F0000E0001636F7A
:10068800050E626FADEC16F060C0D7F061C0D8F00F
:10069800D7C0E4F0D8C0E5F0000E0001D86F000E16
:1006A800D76F0001E5510AE1670E0001E45DD8B09B
:1006B80005D0000E0001E56F670EE46FB70E00016C
:1006C800E45D030E0001E559D8A005D0030E000132
:1006D800E56FB60EE46F000E0001726F000E736FC7
:1006E800B40E746F420E756F990E0001A36FFF0E62
:1006F8000001A46FE4C0A5F0E5C0A6F00001A35175
:100708000001A5270001A4510001A623A5C060F09F
:10071800A6C061F00001626B636B000E67EC12F01B
:1007280060C06EF061C06FF062C070F063C071F0BD
:1007380079EC07F06EC087F06FC088F070C089F060
:1007480071C08AF0000E00018B6FC00E8C6F530EC3
:100758008D6F440E8E6FCCEC09F087C0E6F088C030
:10076800E7F089C0E8F08AC0E9F0000E0001726F76
:10077800000E736F200E746F410E756FE6C06EF039
:10078800E7C06FF0E8C070F0E9C071F079EC07F0ED
:100798006EC087F06FC088F070C089F071C08AF0B1
:1007A800DDEC15F0000188C087F00001886B0001BE
:1007B80087510001D56F000E0001726F000E736F34
:1007C800200E746F410E756FE6C06EF0E7C06FF0D3
:1007D800E8C070F0E9C071F079EC07F06EC087F0FE
:1007E8006FC088F070C089F071C08AF0DDEC15F038
:1007F800000187510001D66F0001DC51D8B4B9D58A
:10080800000E0001DC6F5AA803D04EEC15F008D09A
:100818005BC0F2F05CC0F3F05DC0F4F05EC0F5F0D0
:100828005BC060F05CC061F05DC062F05EC063F008
:10083800CD0E0001646FCC0E656FBC0E666F400E66
:10084800676F4EEC13F00001D8A016D0E6C060F038
:10085800E7C061F0E8C062F0E9C063F0000E000193
:10086800646F000E656F900E666F400E676F4EECFA
:1008780013F00001D8B02CD0CD0E0001606FCC0E63
:10088800616FBC0E626F400E636F5BC064F05CC04A
:1008980065F05DC066F05EC067F04EEC13F00001D5
:1008A800D8A046D0E6C060F0E7C061F0E8C062F0CA
:1008B800E9C063F0660E0001646F660E656FD60EC0
:1008C800666F400E676F4EEC13F00001D8A030D071
:1008D800000E0001616F000E606F1DEC17F067ECF1
:1008E80011F0140E0001726FAE0E736F230E746F49
:1008F800410E756FABC06EF0ACC06FF0ADC070F05C
:10090800AEC071F079EC07F06EC087F06FC088F068
:1009180070C089F071C08AF0DDEC15F087C0CDF0A9
:1009280088C0CEF0CDC060F0CEC061F03EEC17F0CC
:100938005BC060F05CC061F05DC062F05EC063F0F7
:10094800CD0E0001646FCC0E656FBC0E666F400E55
:10095800676F4EEC13F00001D8B016D0E6C060F017
:10096800E7C061F0E8C062F0E9C063F0660E00011C
:10097800646F660E656FD60E666F400E676F4EEC3D
:1009880013F00001D8A02CD0CD0E0001606FCC0E62
:10099800616FBC0E626F400E636F5BC064F05CC039
:1009A80065F05DC066F05EC067F04EEC13F00001C4
:1009B800D8B0DFD4E6C060F0E7C061F0E8C062F00C
:1009C800E9C063F0000E0001646F000E656F900EC1
:1009D800666F400E676F4EEC13F00001D8B0C9D4B3
:1009E800000E0001616F000E606F3EEC17F04CECDA
:1009F80010F0140E0001726FAE0E736F230E746F39
:100A0800410E756FA7C06EF0A8C06FF0A9C070F056
:100A1800AAC071F079EC07F06EC087F06FC088F05B
:100A280070C089F071C08AF0DDEC15F087C0CDF098
:100A380088C0CEF0CDC060F0CEC061F01DEC17F0DC
:100A480098D400018E51800B00019B6F00018E51DC
:100A58008E2500019D6F00018DAF02D000019D81A0
:100A680000019D510001D8B412D000019D29D8A4DD
:100A780009D0000E00018B6F000E8C6F000E8D6F79
:100A8800000E8E6F00018D8F000E000108D0000E41
:100A980000018B6F000E8C6F000E8D6F000E8E6F35
:100AA80000019251800B00019C6F00019B510001D5
:100AB8009C19D8B402D000019B8D00019251922557
:100AC80000019C6F000191AF02D000019C810001E0
:100AD8009C510001D8B412D000019C29D8A409D097
:100AE800000E00018F6F000E906F000E916F000EC8
:100AF800926F0001918F000E000108D0000E0001D6
:100B08008F6F000E906F000E916F000E926F0001B4
:100B18009D5100019C5DD8B024D000019BAD03D04D
:100B2800800E00019B1B9DC09EF09CC09DF09EC046
:100B38009CF08BC09EF08FC08BF09EC08FF08CC055
:100B48009EF090C08CF09EC090F08DC09EF091C039
:100B58008DF09EC091F08EC09EF092C08EF09EC027
:100B680092F0000E00019E6F00019D510001936FED
:100B7800946B0001931F941F934B942B00019C517D
:100B88000001956F966B00019351000195270001B4
:100B9800945100019623000196BF3DD00001965163
:100BA80005E11A0E0001955DD8A035D000018B51E2
:100BB80000018C1100018D1100018E11D8B402D0F2
:100BC800010E01D0000E00019E6F000E00018B6F18
:100BD800000E8C6F000E8D6F000E8E6F9CC09DF006
:100BE80020D000019EA107D00001D8909E310109B4
:100BF80000019E6F03D00001D8909E3300018BA1A5
:100C080002D000019E8F00018E358E338D338C33D8
:100C18008B3300019D2B00019C5100019D5DD8A0E4
:100C2800E0D700019BBD3FD000019D510001D8A431
:100C38000AD0000E00018B6F000E8C6F000E8D6FB6
:100C4800000E8E6F120000018F5100018B270001EA
:100C5800905100018C230001915100018D23000166
:100C6800925100018E2300018EA1CCD000019EA1DB
:100C780009D00001D8909E3300019E51010900015E
:100C88009E6F03D00001D8909E3300018BA102D043
:100C980000019E8F00018E358E338D338C338B335C
:100CA80000019D2BAFD000018F5100018B5D000129
:100CB800905100018C590001915100018D5900019A
:100CC8008E51800A0001936F00019251800A000141
:100CD8009359D8B050D08BC093F08CC094F08DC08D
:100CE80095F08EC096F00001931F941F951F961FD4
:100CF800932B000E94239523962300018F51000116
:100D080093250001976F0001905100019421000183
:100D1800986F00019151000195210001996F000120
:100D280092510001962100019A6FFF0E000197254C
:100D380000018B6FFF0E0001982100018C6FFF0EE0
:100D48000001992100018D6FFF0E00019A21000119
:100D58008E6F800E00019B1B00019E6D00019E514D
:100D68000001D8A418D0010E00018B27000E8C2397
:100D78008D238E2310D000018F5100018B5F00015D
:100D8800905100018C5B0001915100018D5B0001C5
:100D9800925100018E5B00018B5100018C11000102
:100DA8008D1100018E11D8A42AD000019E51000196
:100DB800D8A425D0000E00018B6F000E8C6F000E9A
:100DC8008D6F000E8E6F12000001D8908B378C3714
:100DD8008D378E3700019EAF02D000018B81000154
:100DE8009EA103D0D880000102D00001D8909E3780
:100DF80000019D510001D8B402D000019D070001F7
:100E08008DAFE2D7000E00019C6F00019EAF0DD0A0
:100E18009EC093F07F0E00019317D8A403D0000161
:100E28008BA103D0010E00019C6F00019C510001B1
:100E3800D8B426D0010E00018B27000E8C238D23F9
:100E48008E2300018EA11CD08BC093F08CC094F02F
:100E58008DC095F08EC096F0000196359633953387
:100E68009433933393C08BF094C08CF095C08DF07D
:100E780096C08EF000019D29D8B402D000019D2BA8
:100E880000019D29D8B405D000019D510001D8A4C6
:100E980011D0000E00018B6F000E8C6F000E8D6F4D
:100EA800000E8E6F00019D510001D8A403D0000EE2
:100EB80000019B6F00019DA103D000018D8F02D01E
:100EC80000018D9F0001D8909D3100018E6F0001B7
:100ED8009BAF02D000018E8F8BC08BF08CC08CF042
:100EE8008DC08DF08EC08EF0120000017151800B04
:100EF80000017A6F0001715171250001806F0001B6
:100F080070AF02D000018081000180510001D8B487
:100F180010D000018029D8A409D0000E00016E6FFE
:100F2800000E6F6F000E706F000E716F0001708FF2
:100F380009D0000E00016E6F000E6F6F000E706F0B
:100F4800000E716F00017551800B00017A1B0001C2
:100F58007551752500017F6F000174AF02D0000143
:100F68007F8100017F510001D8B410D000017F2992
:100F7800D8A409D0000E0001726F000E736F000E26
:100F8800746F000E756F0001748F09D0000E000198
:100F9800726F000E736F000E746F000E756F000194
:100FA8007F510001D8B405D0000180510001D8A4B8
:100FB8000AD0000E00016E6F000E6F6F000E706F8A
:100FC800000E716F12000001745100016E03F3CF1F
:100FD80085F0F4CF86F00001855100017B6F7C6BB2
:100FE8007D6B7E6B000186510001816F826B836B84
:100FF800846B0001735100016F03F3CF85F0F4CFC8
:1010080086F00001855100017B27000E7C237D239B
:101018007E230001865100018127000E822383234D
:1010280084230001725100017003F3CF85F0F4CFDF
:1010380086F00001855100017B27000E7C237D236B
:101048007E230001865100018127000E822383231D
:1010580084237DC07EF07CC07DF07BC07CF00001E5
:101068007B6B0001725100016F03F3CF85F0F4CF61
:1010780086F00001855100017B270001865100019F
:101088007C23000E00017D23000E00017E23000159
:10109800735100016E03F3CF85F0F4CF86F00001A1
:1010A800855100017B270001865100017C23000E39
:1010B80000017D23000E00017E237DC07EF07CC0F0
:1010C8007DF07BC07CF000017B6B00017251000158
:1010D8006E03F3CF85F0F4CF86F00001855100014F
:1010E8007B270001865100017C23000E00017D232F
:1010F800000E00017E230001745100016F03F3CF3D
:1011080085F0F4CF86F000018551000181270001A8
:10111800865100018223000E00018323000E000186
:1011280084230001735100017003F3CF85F0F4CFDD
:1011380086F00001855100018127000186510001D8
:101148008223000E00018323000E00018423000186
:10115800745100017003F3CF85F0F4CF86F00001DD
:1011680085510001766F000186510001776F0001FB
:10117800786B0001796B78C079F077C078F076C029
:1011880077F00001766B000176510001812700019C
:101198007751000182230001785100018323000167
:1011A8007951000184237BC076F07CC077F07DC044
:1011B80078F07EC079F0190E06D00001D890793306
:1011C800783377337633E82EF8D70001765100016B
:1011D8008127000177510001822300017851000125
:1011E800832300017951000184237DC07EF07CC0F7
:1011F8007DF07BC07CF000017B6B00017F5180C0DB
:1012080076F00001776B00017627000E7723820EB7
:10121800000176250001856FFF0E0001772100018E
:10122800866F15D00001D89081378237833784378D
:1012380000017EAF02D0000181810001D8907B3788
:101248007C377D377E3700018507D8A086070001E7
:1012580083AFE8D7000E00017F6F00017EAF24D076
:10126800FF0E00017B150001766FFF0E00017C1553
:101278000001776FFF0E00017D150001786F7F0E6A
:1012880000017E150001796F000176510001771188
:101298000001781100017911D8A403D0000181A1BF
:1012A80003D0010E00017F6F00017F510001D8B407
:1012B80023D0010E00018127000E8223832384237B
:1012C800000184A119D081C076F082C077F083C074
:1012D80078F084C079F00001793579337833773341
:1012E800763376C081F077C082F078C083F079C019
:1012F80084F00001854B862B000186BF10D00001C9
:10130800865104E100018529D8A009D0000E00010A
:10131800816F000E826F800E836F7F0E2BD00001CD
:1013280086BF07D00001865111E100018505D8B0BC
:101338000DD0000E0001816F000E826F000E836FCA
:10134800000E846F000E00017A6F15D085C080F002
:10135800FF0E00018117FF0E82177F0E8317000E04
:101368008417000180A102D00001838F0001D8906A
:1013780080310001846F00017A510001841381C01B
:101388006EF082C06FF083C070F084C071F01200FC
:1013980000018A51800B0001936F00018A518A2550
:1013A80000019E6F000189AF02D000019E810001FB
:1013B8009E510001D8B412D000019E29D8A409D0AA
:1013C800000E0001876F000E886F000E896F000EF7
:1013D8008A6F0001898F000E000108D0000E0001FD
:1013E800876F000E886F000E896F000E8A6F0001EC
:1013F8008E51800B0001931B00018E518E25000138
:101408009F6F00018DAF02D000019F8100019F51A5
:101418000001D8B412D000019F29D8A409D0000E29
:1014280000018B6F000E8C6F000E8D6F000E8E6F9B
:1014380000018D8F000E000108D0000E00018B6F97
:10144800000E8C6F000E8D6F000E8E6F00018B5199
:1014580000018C1100018D1100018E11D8A417D044
:10146800000E0001876F000E886F000E896F000E56
:101478008A6F0001800E89137F0E8A1387C087F058
:1014880088C088F089C089F08AC08AF012000001FB
:101498009E510001D8A412D0000E0001876F000EE3
:1014A800886F000E896F000E8A6F87C087F088C02A
:1014B80088F089C089F08AC08AF0120000019F5123
:1014C80000018F6F906B00018F1F901F8F4B902B27
:1014D80000019E510001916F926B00018F51000134
:1014E800912700019051000192237F0E0001912560
:1014F8000001986F000E000192210001996F87C0CA
:1015080094F088C095F089C096F08AC097F0000ED4
:101518000001876F000E886F000E896F000E8A6FBA
:10152800000E00019A6F000E9B6F000E9C6F000E5C
:101538009D6F000E00019F6F42D000019F51000176
:10154800D8B417D00001D890943795379637973785
:101558000001D8908737883789378A3700019DAFCF
:1015680002D0000187810001D8909A379B379C37B9
:101578009D3700018B510001945D00018C510001E1
:10158800955900018D510001965900018E510001B5
:101598009759D8A012D000019D8D00018B510001F0
:1015A800945F00018C510001955B00018D51000191
:1015B800965B00018E510001975B00019F2B190E6D
:1015C80000019F65BAD700019451000195110001EF
:1015D800961100019711D8B418D000019A8115D03E
:1015E8000001D8908737883789378A3700019DAF3F
:1015F80002D0000187810001D8909A379B379C3729
:101608009D3700019807D8A09907000189AFE8D74E
:10161800000E00019F6F00019DAF24D0FF0E000156
:101628009A1500018F6FFF0E00019B150001906F46
:10163800FF0E00019C150001916F7F0E00019D15A2
:101648000001926F00018F5100019011000191116A
:1016580000019211D8A403D0000187A103D0010E84
:1016680000019F6F00019F510001D8B423D0010EE3
:1016780000018727000E882389238A2300018AA175
:1016880019D087C08FF088C090F089C091F08AC0C7
:1016980092F0000192359233913390338F338FC09B
:1016A80087F090C088F091C089F092C08AF000015C
:1016B800984B992B000199BF14D00001995104E16E
:1016C80000019829D8A00DD0000E0001996F9869E3
:1016D800000E0001876F000E886F000E896F000EE4
:1016E8008A6F000199BF07D00001995115E10001E7
:1016F8009805D8B011D0000E0001996F000E986FB0
:10170800000E0001876F000E886F000E896F000EB3
:101718008A6F000E0001936F98C09EF000019EA191
:1017280003D00001898F02D00001899F0001D89061
:101738009E3100018A6F0001935100018A1387C00E
:1017480087F088C088F089C089F08AC08AF01200C2
:101758001250800B1B6E12501224216E11BE218074
:101768002150D8B40DD02128D8A408D0000E0F6E6F
:10177800000E106E000E116E000E126E118E08D043
:10178800000E0F6E000E106E000E116E000E126E1F
:101798001650800B1B1A16501624206E15BE20807A
:1017A8002050D8B40DD02028D8A408D0000E136E2D
:1017B800000E146E000E156E000E166E158E08D0F3
:1017C800000E136E000E146E000E156E000E166ECF
:1017D8002050D8B403D02150D8A409D0000E0F6EE1
:1017E800000E106E000E116E000E126E12001550D3
:1017F8000F02F3CF26F0F4CF27F026501C6E1D6A97
:101808001E6A1F6A2750226E236A246A256A1450AA
:101818001002F3CF26F0F4CF27F026501C26000E36
:101828001D221E221F2227502226000E2322242298
:10183800252213501102F3CF26F0F4CF27F02650BB
:101848001C26000E1D221E221F2227502226000EB3
:101858002322242225221EC01FF01DC01EF01CC0FA
:101868001DF01C6A13501002F3CF26F0F4CF27F0B6
:1018780026501C2627501D22000E1E22000E1F2255
:1018880014500F02F3CF26F0F4CF27F026501C2671
:1018980027501D22000E1E22000E1F221EC01FF000
:1018A8001DC01EF01CC01DF01C6A13500F02F3CFA0
:1018B80026F0F4CF27F026501C2627501D22000EB4
:1018C8001E22000E1F2215501002F3CF26F0F4CF6F
:1018D80027F02650222627502322000E2422000E0D
:1018E800252214501102F3CF26F0F4CF27F026500A
:1018F800222627502322000E2422000E25221550CE
:101908001102F3CF26F0F4CF27F02650176E275098
:10191800186E196A1A6A19C01AF018C019F017C097
:1019280018F0176A1750222618502322195024221B
:101938001A5025221CC017F01DC018F01EC019F03F
:101948001FC01AF0190E05D0D8901A321932183261
:101958001732E82EF9D7175022261850232219508B
:1019680024221A5025221EC01FF01DC01EF01CC0C4
:101978001DF01C6A205021C017F0186A1726000EA7
:101988001822820E1724266EFF0E1820276E0FD0FD
:10199800D89022362336243625361FBE2280D8908A
:1019A8001C361D361E361F362606D8A0270624AE3E
:1019B800EFD7000E206E1FAE16D0FF0E1C14176E48
:1019C800FF0E1D14186EFF0E1E14196E7F0E1F14C5
:1019D8001A6E1750181019101A10D8A402D022A085
:1019E80002D0010E206E2050D8B41FD0010E22263E
:1019F800000E23222422252225A017D022C017F06A
:101A080023C018F024C019F025C01AF01A341A326D
:101A180019321832173217C022F018C023F019C033
:101A280024F01AC025F0264A272A27BE0DD02750B1
:101A380003E12628D8A008D0000E226E000E236EDF
:101A4800800E246E7F0E20D027BE05D027500EE1D1
:101A58002604D8B00BD0000E226E000E236E000EA6
:101A6800246E000E256E000E1B6E0FD026C021F0CE
:101A7800FF0E2216FF0E23167F0E2416000E2516C3
:101A880021B0248ED8902130256E1B50251222C0FB
:101A98000FF023C010F024C011F025C012F012007E
:101AA8000850800B156E08500824176E07BE178063
:101AB8001750D8B40DD01728D8A408D0000E056E3A
:101AC800000E066E000E076E000E086E078E06D01A
:101AD800000E056E000E066E000E076E000E086EF4
:101AE8000C50800B166E15501618D8A4158C0C5077
:101AF8000C24166E0BBE16801650D8B40DD01628BE
:101B0800D8A408D0000E096E000E0A6E000E0B6EE7
:101B1800000E0C6E0B8E06D0000E096E000E0A6EBB
:101B2800000E0B6E000E0C6E1750165CD8B022D04B
:101B380015AC02D0800E151A17C018F016C017F091
:101B480018C016F005C018F009C005F018C009F053
:101B580006C018F00AC006F018C00AF007C018F04E
:101B68000BC007F018C00BF008C018F00CC008F044
:101B780018C00CF0000E186E17500D6E0E6A0D1E70
:101B88000E1E0D4A0E2A16500F6E106A0D500F26A3
:101B98000E50102210BE2CD0105004E11A0E0F5C0B
:101BA800D8A026D00550061007100810D8B402D0C7
:101BB800010E01D0000E186E000E056E000E066EA6
:101BC800000E076E000E086E16C017F015D018A08C
:101BD80005D0D89018300109186E02D0D890183264
:101BE80005B0188E08340832073206320532172A33
:101BF8001650175CD8A0EBD715BC29D01750D8A41D
:101C080009D0000E056E000E066E000E076E000E5F
:101C1800086E1200095005260A5006220B500722AA
:101C28000C50082208A083D018A006D0D8901832EB
:101C380018500109186E02D0D890183205B0188EC5
:101C480008340832073206320532172A70D0095094
:101C5800055C0A5006580B5007580850800A0D6E4C
:101C68000C50800A0D58D8B036D005C00DF006C00B
:101C78000EF007C00FF008C010F00D1E0E1E0F1E4C
:101C8800101E0D2A000E0E220F22102209500D24BC
:101C9800116E0A500E20126E0B500F20136E0C504E
:101CA8001020146EFF0E1124056EFF0E1220066E12
:101CB800FF0E1320076EFF0E1420086E800E151AF3
:101CC800186C1850D8A40FD0010E0526000E062255
:101CD8000722082208D00950055E0A50065A0B5000
:101CE800075A0C50085A0550061007100810D8A4B7
:101CF8001CD01850D8A419D0000E056E000E066E20
:101D0800000E076E000E086E1200D89005360636D3
:101D18000736083618BE058018A002D0D88001D032
:101D2800D89018361750D8A4170607AEEED7000E6D
:101D3800166E18AE0AD018C00DF07F0E0D16D8A476
:101D480002D005A002D0010E166E1650D8B420D0CD
:101D5800010E0526000E06220722082208A018D028
:101D680005C00DF006C00EF007C00FF008C010F057
:101D7800103410320F320E320D320DC005F00EC085
:101D880006F00FC007F010C008F01728D8A4172ACB
:101D98001728D8B403D01750D8A40DD0000E056E5C
:101DA800000E066E000E076E000E086E1750D8A4BF
:101DB80002D0000E156E17A002D0078E01D0079E24
:101DC800D8901730086E15BE088E05C005F006C0FD
:101DD80006F007C007F008C008F012002B50800B6F
:101DE800346E2B502B243F6E2ABE3F803F50D8B410
:101DF8000DD03F28D8A408D0000E286E000E296EFA
:101E0800000E2A6E000E2B6E2A8E06D0000E286E4B
:101E1800000E296E000E2A6E000E2B6E2F50800BBE
:101E2800341A2F502F24406E2EBE40804050D8B414
:101E38000DD04028D8A408D0000E2C6E000E2D6EB0
:101E4800000E2E6E000E2F6E2E8E06D0000E2C6EFB
:101E5800000E2D6E000E2E6E000E2F6E2C502D10C3
:101E68002E102F10D8A415D0000E286E000E296E43
:101E7800000E2A6E000E2B6E800E2A127F0E2B1279
:101E880028C028F029C029F02AC02AF02BC02BF03E
:101E980012003F50D8A411D0000E286E000E296EF3
:101EA800000E2A6E000E2B6E28C028F029C029F0DB
:101EB8002AC02AF02BC02BF012004050306E316A35
:101EC800301E311E304A312A3F50326E336A30504C
:101ED8003226315033227F0E3224396E000E3320E1
:101EE8003A6E28C035F029C036F02AC037F02BC02A
:101EF80038F0000E286E000E296E000E2A6E000EB5
:101F08002B6E000E3B6E000E3C6E000E3D6E000EFA
:101F18003E6E000E406E28D04050D8B411D0D890F4
:101F28003536363637363836D890283629362A3672
:101F38002B363EBE2880D8903B363C363D363E3662
:101F48002C50355C2D5036582E5037582F50385855
:101F5800D8A009D03E8C2C50355E2D50365A2E50C4
:101F6800375A2F50385A402A190E4064D5D7355061
:101F7800361037103810D8B411D03B800FD0D89015
:101F8800283629362A362B363EBE2880D8903B364E
:101F98003C363D363E363906D8A03A062AAEEFD74B
:101FA800000E406E3EAE16D0FF0E3B14306EFF0E94
:101FB8003C14316EFF0E3D14326E7F0E3E14336EAC
:101FC8003050311032103310D8A402D028A002D0DB
:101FD800010E406E4050D8B41FD0010E2826000EC6
:101FE80029222A222B222BA017D028C030F029C062
:101FF80031F02AC032F02BC033F03334333232326E
:102008003132303230C028F031C029F032C02AF0E5
:1020180033C02BF0394A3A2A3ABE10D03A5003E17D
:102028003928D8A00BD0000E3A6E3968000E286EF9
:10203800000E296E000E2A6E000E2B6E3ABE05D0D9
:102048003A5011E13904D8B00ED0000E3A6E000EA5
:10205800396E000E286E000E296E000E2A6E000ED4
:102068002B6E000E346E39C03FF03FA002D02A8E8E
:1020780001D02A9ED8903F302B6E34502B1228C0A6
:1020880028F029C029F02AC02AF02BC02BF0120012
:10209800000E0001726F000E736F800E746F3F0E9A
:1020A800756FF2C06EF0F3C06FF0F4C070F0F5C059
:1020B80071F079EC07F06EC08BF06FC08CF070C0D7
:1020C8008DF071C08EF0000E0001726F000E736FFC
:1020D800800E746F3F0E756FE6C06EF0E7C06FF04C
:1020E800E8C070F0E9C071F079EC07F06EC087F0D5
:1020F8006FC088F070C089F071C08AF05CEC17F08E
:1021080087C08FF088C090F089C091F08AC092F0A3
:1021180025EC05F08BC0DEF08CC0DFF08DC0E0F060
:102128008EC0E1F0DEC06EF0DFC06FF0E0C070F08E
:10213800E1C071F0000E0001726F000E736F800E27
:10214800746FBF0E756F79EC07F06EC0DEF06FC06C
:10215800DFF070C0E0F071C0E1F04AC172F04BC12D
:1021680073F04CC174F04DC175F036C18FF037C1B2
:1021780090F038C191F039C192F0DEC08BF0DFC029
:102188008CF0E0C08DF0E1C08EF025EC05F08BC03E
:102198006EF08CC06FF08DC070F08EC071F079EC6D
:1021A80007F06EC09FF06FC0A0F070C0A1F071C0C2
:1021B800A2F09FC08BF0A0C08CF0A1C08DF0A2C08F
:1021C8008EF026C18FF027C190F028C191F029C167
:1021D80092F025EC05F08BC0B3F08CC0B4F08DC044
:1021E800B5F08EC0B6F0FAC06EF0FBC06FF0FCC060
:1021F80070F0FDC071F0DEC072F0DFC073F0E0C0B7
:1022080074F0E1C075F079EC07F06EC022F16FC090
:1022180023F170C024F171C025F1B3C08BF0B4C0B4
:102228008CF0B5C08DF0B6C08EF022C18FF023C1FE
:1022380090F024C191F025C192F025EC05F08BC0F7
:10224800A7F08CC0A8F08DC0A9F08EC0AAF0DEC09F
:1022580036F1DFC037F1E0C038F1E1C039F1B3C081
:1022680026F1B4C027F1B5C028F1B6C029F1000E97
:102278000001606F000E616FC80E626F420E636FDF
:10228800A7C064F0A8C065F0A9C066F0AAC067F04E
:102298004EEC13F00001D8B009D0000E0001A76F72
:1022A800000EA86FC80EA96F420EAA6F0001AAAF50
:1022B8001200000E0001A76F000EA86F000EA96F94
:1022C800000EAA6F1200000E0001726F000E736FED
:1022D800800E746F3F0E756FF2C06EF0F3C06FF032
:1022E800F4C070F0F5C071F079EC07F06EC08BF0B7
:1022F8006FC08CF070C08DF071C08EF0000E0001C0
:10230800726F000E736F800E746F3F0E756FE6C0AC
:102318006EF0E7C06FF0E8C070F0E9C071F079ECDA
:1023280007F06EC087F06FC088F070C089F071C088
:102338008AF05CEC17F087C08FF088C090F089C0F5
:1023480091F08AC092F025EC05F08BC0AFF08CC0FC
:10235800B0F08DC0B1F08EC0B2F04EC172F04FC176
:1023680073F050C174F051C175F03EC18FF03FC198
:1023780090F040C191F041C192F0AFC08BF0B0C075
:102388008CF0B1C08DF0B2C08EF025EC05F08BC09A
:102398006EF08CC06FF08DC070F08EC071F079EC6B
:1023A80007F06EC09FF06FC0A0F070C0A1F071C0C0
:1023B800A2F09FC08BF0A0C08CF0A1C08DF0A2C08D
:1023C8008EF032C18FF033C190F034C191F035C135
:1023D80092F025EC05F08BC0B7F08CC0B8F08DC03A
:1023E800B9F08EC0BAF0F6C06EF0F7C06FF0F8C062
:1023F80070F0F9C071F0AFC072F0B0C073F0B1C046
:1024080074F0B2C075F079EC07F06EC02AF16FC0B5
:102418002BF170C02CF171C02DF1B7C08BF0B8C092
:102428008CF0B9C08DF0BAC08EF02AC18FF02BC1E4
:1024380090F02CC191F02DC192F025EC05F08BC0E5
:10244800ABF08CC0ACF08DC0ADF08EC0AEF0AFC0BC
:102458003EF1B0C03FF1B1C040F1B2C041F1B7C0E8
:1024680032F1B8C033F1B9C034F1BAC035F1000E59
:102478000001606F000E616FC80E626F420E636FDD
:10248800ABC064F0ACC065F0ADC066F0AEC067F03C
:102498004EEC13F00001D8B009D0000E0001AB6F6C
:1024A800000EAC6FC80EAD6F420EAE6F0001AEAF3E
:1024B8001200000E0001AB6F000EAC6F000EAD6F86
:1024C800000EAE6F12000001686F00016851000134
:1024D800D8B41ED0000163AF1BD060C064F061C0E7
:1024E80065F062C066F063C067F00001641F651F95
:1024F800661F671F642B000E65236623672364C06D
:102508006AF065C06BF066C06CF067C06DF008D00B
:1025180060C06AF061C06BF062C06CF063C06DF0BF
:102528000001605100016111000162110001631195
:10253800D8A40AD0000E0001606F000E616F000E73
:10254800626F000E636F1200960E0001696F08D06B
:102558000001692B0001D8906D336C336B336A33FB
:10256800000E00016A150001646F000E00016B1572
:102578000001656F000E00016C150001666FFE0E0C
:1025880000016D150001676F0001645100016511BC
:102598000001661100016711D8B410D0D9D7000125
:1025A800692B010E00016A27000E6B236C236D2333
:1025B8000001D8906D336C336B336A33000E000121
:1025C8006A150001646F000E00016B150001656F4C
:1025D800000E00016C150001666FFF0E00016D15FD
:1025E8000001676F00016451000165110001661167
:1025F80000016711D8B409D0D2D7000169070001DA
:10260800D8906A376B376C376D3700016CBF04D0D0
:10261800020E00016961F1D7000169B109D0FF0E0E
:1026280000016A17FF0E6B177F0E6C17FF0E6D17F0
:102638000001D890693369C064F00001656B666B6E
:10264800676B64C067F00001666B656B646B0001C3
:10265800645100016A130001655100016B13000108
:10266800665100016C130001675100016D130001F0
:1026780068510001D8B405D0000163AF02D0000151
:102688006D8F6AC060F06BC061F06CC062F06DC0A5
:1026980063F01200000E000160150001686F000E63
:1026A800000161150001696F800E000162150001CB
:1026B8006A6F7F0E0001631500016B6F000168519E
:1026C8000001691100016A1100016B11D8A409D039
:1026D800000E0001606F000E616F000E626F000E49
:1026E800636F000E000164150001686F000E0001A1
:1026F80065150001696F800E0001661500016A6F9B
:102708007F0E0001671500016B6F00016851000121
:10271800691100016A1100016B11D8A409D0000EDB
:102728000001646F000E656F000E666F000E676F24
:10273800000163AF26D060C068F061C069F062C074
:102748006AF063C06BF00001681F691F6A1F6B1F86
:10275800682B000E69236A236B23000E000168258D
:102768000001606F000E000169210001616F000E19
:1027780000016A210001626F800E00016B210001D7
:10278800636F000167AF26D064C068F065C069F068
:1027980066C06AF067C06BF00001681F691F6A1F96
:1027A8006B1F682B000E69236A236B23000E000140
:1027B80068250001646F000E000169210001656F42
:1027C800000E00016A210001666F800E00016B2176
:1027D8000001676F000E0001601B000E611B000EF8
:1027E800621B800E631B000E0001641B000E651B3C
:1027F800000E661B800E671B000164510001605DBE
:1028080000016551000161590001665100016259DA
:102818000001675100016359D8B002D0D890120066
:10282800D8801200096E0950D8A404AE1AD001C08D
:1028380005F002C006F003C007F004C008F0051E4A
:10284800061E071E081E052A000E06220722082259
:1028580005C00BF006C00CF007C00DF008C00EF064
:1028680008D001C00BF002C00CF003C00DF004C08A
:102878000EF00150021003100410D8A409D0000E65
:10288800016E000E026E000E036E000E046E120042
:10289800960E0A6E06D00A2AD8900E320D320C32E5
:1028A8000B32000E0B14056E000E0C14066E000E93
:1028B8000D14076EFE0E0E14086E05500610071054
:1028C8000810D8B40DD0E7D70A2A010E0B26000E3F
:1028D8000C220D220E22D8900E320D320C320B3201
:1028E800000E0B14056E000E0C14066E000E0D146F
:1028F800076EFF0E0E14086E05500610071008101C
:10290800D8B407D0E1D70A06D8900B360C360D3666
:102918000E360DBE03D0020E0A60F5D70AB008D0F5
:10292800FF0E0B16FF0E0C167F0E0D16FF0E0E1661
:10293800D8900A320AC005F0066A076A086A05C014
:1029480008F0076A066A056A05500B1206500C1251
:1029580007500D1208500E120950D8A404AE01D029
:102968000E8E0BC001F00CC002F00DC003F00EC0BB
:1029780004F01200000E1914216E000E1A14226EB3
:10298800800E1B14236E7F0E1C14246E21502210FF
:1029980023102410D8A408D0000E196E000E1A6E49
:1029A800000E1B6E000E1C6E000E1D14216E000E14
:1029B8001E14226E800E1F14236E7F0E2014246EA8
:1029C8002150221023102410D8A408D0000E1D6E08
:1029D800000E1E6E000E1F6E000E206E1CAE1DD067
:1029E80019C021F01AC022F01BC023F01CC024F02B
:1029F800211E221E231E241E212A000E22222322EB
:102A08002422000E2124196E000E22201A6E000EB8
:102A180023201B6E800E24201C6E20AE1DD01DC0EE
:102A280021F01EC022F01FC023F020C024F0211E78
:102A3800221E231E241E212A000E222223222422A3
:102A4800000E21241D6E000E22201E6E000E232073
:102A58001F6E800E2420206E000E191A000E1A1AFE
:102A6800000E1B1A800E1C1A000E1D1A000E1E1ACC
:102A7800000E1F1A800E201A1D50195C1E501A587D
:102A88001F501B5820501C58D8B002D0D8901200A4
:102A9800D88012005BC0C3F05CC0C4F05DC0C5F054
:102AA8005EC0C6F0C3C060F0C4C061F0C5C062F0CB
:102AB800C6C063F0000E0001646F000E656F000E63
:102AC800666F410E676F4EEC13F00001D8B010D05E
:102AD8009C0E0001EE6F330EEF6FA20EF06F3C0EEE
:102AE800F16F630E0001EA6FEE0EEB6F7A0E0FD0F6
:102AF800550E0001EE6F130EEF6F840EF06F3D0E52
:102B0800F16FEE0E0001EA6F7C0EEB6F6F0EEC6F4B
:102B18003F0EED6FBBC072F0BCC073F0BDC074F067
:102B2800BEC075F0EEC06EF0EFC06FF0F0C070F090
:102B3800F1C071F079EC07F06EC08BF06FC08CF0CB
:102B480070C08DF071C08EF0BFC072F0C0C073F05D
:102B5800C1C074F0C2C075F0EAC06EF0EBC06FF08F
:102B6800ECC070F0EDC071F079EC07F06EC08FF03A
:102B78006FC090F070C091F071C092F025EC05F034
:102B88008BC0F2F08CC0F3F08DC0F4F08EC0F5F07D
:102B9800C3C0BBF0C4C0BCF0C5C0BDF0C6C0BEF069
:102BA800F2C0BFF0F3C0C0F0F4C0C1F0F5C0C2F08D
:102BB8001200000189358A350001906F000190519B
:102BC800D8A40AD0000E0001876F000E886F000E8F
:102BD800896F000E8A6F120087C08BF088C08CF056
:102BE80089C08DF08AC08EF0200E06D00001D890E2
:102BF8008E338D338C338B33E82EF8D700018B510D
:102C080000018F6F0001898FFF0E00018717FF0EEB
:102C18008817FF0E8917000E8A17960E0001905F1D
:102C2800000190AF1AD000019051800A970FD8B0D8
:102C38000AD0000E0001876F000E886F000E896FA2
:102C4800000E8A6F12000001D8908A3389338833C6
:102C580087330001903FF7D71BD01F0E0001906506
:102C680012D0000E0001876F000E886F000E896F6A
:102C7800000E8A6F12000001D8908737883789378D
:102C88008A3700019007000190510001D8A4F3D7BA
:102C980000018F510001D8B409D000018A1F891F93
:102CA800881F876D000E882389238A2387C087F0B1
:102CB80088C088F089C089F08AC08AF012000C0E9A
:102CC800F66E300EF76E000EF86E01EE4AF010EE5A
:102CD80008F00900F5CFEEFFE550E150FAE1C60E25
:102CE800F66E2F0EF76E000EF86E00EEE6F010EEA0
:102CF8001AF00900F5CFEEFFE550E150FAE1140EA5
:102D0800F66E300EF76E000EF86E00EE5BF010EE09
:102D180004F00900F5CFEEFFE550E150FAE101EECD
:102D280000F04A0EEE6AE806FDE100EEA7F03F0E5D
:102D3800EE6AE806FDE15A6A00EE53F0070EEE6A05
:102D4800E806FDE15F905F92000EF86E000197EFD4
:102D580001F0000E0001656F000E646F0001625102
:102D680000016311D8B42CD0010E0001666F06D0A3
:102D78000001D890623763370001662B000163AF0A
:102D8800F7D70001D8906437653700016251000118
:102D9800605D0001635100016159D8A00AD00001AB
:102DA80062510001605F000163510001615B000135
:102DB80064810001D890633362330001662FE1D744
:102DC80064C060F065C061F01200030E0F01386F37
:102DD800000E0F01396F000E0F013A6F000E0F0140
:102DE8003B6F000E0F013C6FF70E926E110E936E43
:102DF800000E946E000E956E000E966E0D0E00017C
:102E0800606FFB0EE82EFED7602FFCD700D0050EB2
:102E1800C26E000EC16EA50EC06ED08ED2EC17F039
:102E2800A8EC17F0F0EC17F0F9EC17F078EC17F0C5
:102E3800120060C062F061C063F00001D890633393
:102E480062330001D89063336233000162510F018D
:102E58005E6F60C062F0030E000162170001623B02
:102E6800F00E62170F015D51CF0B000162110F01C7
:102E78005D6F120060C062F061C063F00001D8901D
:102E8800633362330001D8906333623300016251C7
:102E9800676E60C062F0030E000162170001623BBA
:102EA800F00E62176650CF0B00016211666E1200B9
:102EB80000018751000188110001891100018A1160
:102EC800D8B409D0000E0001871B000E881B000E25
:102ED800891B800E8A1B87C087F088C088F089C04C
:102EE80089F08AC08AF012000F014E8F0F014E9DA3
:102EF8000F014E9B0F014E990F014E970F014E8502
:102F08000F014E830F014E817F8294847E92FF0EC3
:102F18000F01506FFE0E4F6F120001500210031088
:102F28000410D8B408D0000E011A000E021A000EC0
:102F3800031A800E041A01C001F002C002F003C097
:102F480003F004C004F012001C0E0F015D6F0C0E9C
:102F58000F015E6F000E0F015F6F4A0EBB6E0F010F
:102F68005B9F0F015B995B9B5B9D0F01499D0F0167
:102F7800499F12000001606F000E0F013A6F9580A3
:102F88009582360E6C6E010E6B6E60C06EFF000E81
:102F98006D6EF28EF28CA38EA49E12001C0E666ECD
:102FA8000C0E676E000E686EFA0EBB6E649E649817
:102FB800649A649C0F0149970F0149991200000017
:102FC800C040EE7C6F3F5513843D0000604066664C
:102FD800263F000060400100D590D582D594D59C4D
:102FE800D596D598D59AD58E1200BA86BA88BA8A57
:102FF800BA8CBA80BA82BA8412000250D76E01C065
:10300800D6FF1200EC51383E8FC2753C0000E040FC
:020000040020DA
:08000000FFFFFFFFFFFFFFFF00
:020000040030CA
:0E000000FF321F3FFFBE81FF0FC00FE00F4019
:00000001FF
