:0400000089EF00F094
:060008005F829BEF04F093
:100018005F80D8CF62F0E8CF63F0E0CF64F0FACF2A
:1000280065F0FBCF66F0E9CF67F0EACF68F0E1CF83
:1000380069F0E2CF6AF0D9CF6BF0DACF6CF0F3CF8A
:100048006DF0F4CF6EF0F6CF6FF0F7CF70F0F8CF19
:1000580071F0F5CF72F09EB09DA033D09D909E9028
:10006800000E0001C06F000EBF6F000E0101576F38
:10007800000E566F000E0101556F000E546FFF0EF3
:100088000101406FFF0E416F000E426F000E436F7B
:10009800FA0E0101446FFF0E456F000E466F000E09
:1000A800476F000E0001E66FE5698A98000E0001AF
:1000B800616F000E606F17EC1AF0010E0001E96F16
:1000C8009D8072C0F5FF71C0F8FF70C0F7FF6FC068
:1000D800F6FF6EC0F4FF6DC0F3FF6CC0DAFF6BC0B3
:1000E800D9FF6AC0E2FF69C0E1FF68C0EAFF67C0E4
:1000F800E9FF66C0FBFF65C0FAFF64C0E0FF63C0AC
:10010800E8FF62C0D8FF5F901000FEEF18F0000112
:10011800E54BE62B030E0001E5190001E611D8A412
:1001280046D094EC19F001C06CF102C06DF10101E8
:100138006E6B6F6B950E136EBF0E146ED60E156E2A
:10014800340E166E6CC101F06DC102F06EC103F081
:100158006FC104F0010E51EC16F001C00FF002C09F
:1001680010F003C011F004C012F076EC10F00FC0CC
:100178002CF010C02DF011C02EF012C02FF0000E80
:10018800286E000E296E800E2A6E3F0E2B6E1EEC16
:1001980012F028C041F029C042F02AC043F02BC019
:1001A80044F00CEC18F041C0CBF042C0CCF0000E8B
:1001B800026E000E016E29EC1AF001015451010182
:1001C8005511D8B41200030E0001E5190001E6111B
:1001D800D8A42AD00001E751D8A402D0010E0CD02F
:1001E8000001E705D8A402D0020E06D0020E0001D5
:1001F800E719D8A404D0030E0001E76F09D0030E55
:100208000001E719D8A404D0020E0001E76F898421
:1002180084B405D0000E0001BC6F010E04D0000E9E
:100228000001BC6F000EBB6F1E0E0001E519000136
:10023800E611D8A4C0D2D1C0CFF0D2C0D0F0D5C07A
:10024800D3F0D6C0D4F0C9C0C7F0CAC0C8F0C5C082
:10025800C3F0C6C0C4F0BFC0BDF0C0C0BEF0000E41
:100268000001D26F190ED16F0001E8A105D0CDC0F1
:10027800D1F0CEC0D2F004D018C1D1F00001D26BB9
:100288000001D2BF13D00001D25105E1020E0001D6
:10029800D15DD8A00BD00001D2BF13D00001D2513C
:1002A80005E13A0E0001D15DD8A00BD0000E000187
:1002B800D26F010ED16F000E0001D66F1F0ED56FE1
:1002C8001AD01E0E0001D1250001D56F000E0001C5
:1002D800D2210001D66F0001D6BF0DD00001D65142
:1002E80005E13D0E0001D55DD8A005D00001C40E82
:1002F800D527FF0ED6230001B9050001BA11D8A4ED
:1003080009D0000E0001CA6FC969000E0001C66F4E
:10031800C56904D01CC1C9F00001CA6B0001CABF7D
:1003280013D00001CA5105E1020E0001C95DD8A031
:100338000BD00001CABF19D00001CA5105E13A0E1D
:100348000001C95DD8A011D00001B9510001BA114E
:10035800D8A40BD0000E0001CA6F010EC96F000EA1
:100368000001C66F1F0EC56F25D00001B9510001ED
:10037800BA11D8A41FD01E0E0001C9250001C56FEF
:10038800000E0001CA210001C66F0001C6BF0DD0D2
:100398000001C65105E13D0E0001C55DD8A005D09C
:1003A8000001C40EC527FF0EC623000E0001BA6F58
:1003B800000EB96F030E0001E719D8A40DD0899477
:1003C8000B0E036E600E046E300EBCEC18F0000EBF
:1003D80001014D6F010E4C6F01014C5101014D118E
:1003E800D8B483D00001E8A105D0D7C0D9F0D8C0CF
:1003F800DAF004D020C1D9F00001DA6B1EC101F097
:1004080001011D51B2EC19F001504B6E02504C6EB7
:100418004D6A4E6A4B1E4C1E4D1E4E1E4B2A000E38
:100428004C224D224E22FF0E4B240001B36FFF0ECB
:100438004C200001B46F000E4D200001B56F000E76
:100448004E200001B66F1FC1C1F00001C26B1AC176
:1004580001F001011951B2EC19F001504B6E025034
:100468004C6E4D6A4E6A4B1E4C1E4D1E4E1E4B2A3C
:10047800000E4C224D224E22FF0E4B240001A76F86
:10048800FF0E4C200001A86F000E4D200001A96F3F
:10049800000E4E200001AA6FCBC001F0CCC002F0C4
:1004A800000E046E640E036E7AEC18F001C0BFF003
:1004B80002C0C0F021C152F10101536B1E0E0101AF
:1004C80052250101506F000E010153210101516FA6
:1004D80022C1B7F00001B86B1BC15CF101015D6B73
:1004E800000E01014D6F000E4C6F0001B85105E17F
:1004F8004E0E0001B75DD8A002D08A8808D000014E
:10050800B85105E1490E0001B75DD8A08A980001ED
:10051800C0BF08D00001C0512EE1060E0001BF5D2A
:10052800D8B029D00001BEBF08D00001BE5123E1D8
:10053800060E0001BD5DD8B01ED00001BB0500014C
:10054800BC11D8A40AD0000E0001DE6FDD69000ED0
:100558000001DC6F000EDB6F09D0000E0001DE6FBA
:10056800000EDD6F000E0001DC6FDB69000E01017B
:10057800576F010E566F0001D2BF08D00001D2514B
:1005880046E11E0E0001D15DD8B041D00001D0BFB8
:100598003ED00001D05105E11E0E0001CF5DD8A06C
:1005A80036D0D1C04BF0D2C04CF04B1E4C1E4B4A3B
:1005B8004C2A0001CF514B260001D0514C224CBE91
:1005C80006D04C5024E11E0E4B5CD8B020D0000160
:1005D800DABF1DD00001DA5105E1020E0001D95D34
:1005E800D8A015D00001E3510001E411D8A40FD020
:1005F800D9C0BBFF000E026E000E016E48EC1AF067
:100608009E929D82000E0001E46F0E0EE36F0001C2
:10061800D6BF08D00001D65146E11E0E0001D55DB7
:10062800D8B041D00001D4BF3ED00001D45105E17B
:100638001E0E0001D35DD8A036D0D5C04BF0D6C071
:100648004CF04B1E4C1E4B4A4C2A0001D3514B26F2
:100658000001D4514C224CBE06D04C5024E11E0E51
:100668004B5CD8B020D00001DABF1DD00001DA51B0
:1006780005E1020E0001D95DD8A015D00001E351B3
:100688000001E411D8A40FD0D9C0BBFF000E026E40
:10069800000E016E48EC1AF09E929D82000E000139
:1006A800E46F170EE36F0001CABF08D00001CA51FA
:1006B8003EE11E0E0001C95DD8B039D00001C8BFA7
:1006C80036D00001C85105E11E0E0001C75DD8A053
:1006D8002ED0C9C04BF0CAC04CF04B1E4C1E4B4A22
:1006E8004C2A0001C7514B260001C8514C224CBE70
:1006F80006D04C501CE11E0E4B5CD8B018D0B3C0CD
:1007080001F0B4C002F033EC1AF0F294F28A00015E
:10071800DD510001DE11D8A405D0000E0001E26F02
:10072800010E04D0000E0001E26F040EE16F00011B
:10073800C6BF08D00001C6513EE11E0E0001C55DCE
:10074800D8B039D00001C4BF36D00001C45105E18A
:100758001E0E0001C35DD8A02ED0C5C04BF0C6C088
:100768004CF04B1E4C1E4B4A4C2A0001C3514B26E1
:100778000001C4514C224CBE06D04C501CE11E0E48
:100788004B5CD8B018D0B3C001F0B4C002F02EEC66
:100798001AF0A192A0820001DB510001DC11D8A45B
:1007A80005D0000E0001E06F030E04D0000E00011A
:1007B800E06F020EDF6F0001D1510001E51925E15C
:1007C8000001D2510001E619D8A41FD00001E3515D
:1007D8000001E411D8A419D00001DABF16D0000135
:1007E800DA5104E10001D905D8A00FD0D9C0BBFF68
:1007F800000E026E000E016E48EC1AF09E929D8269
:10080800000E0001E46F0E0EE36F0001D5510001E8
:10081800E51925E10001D6510001E619D8A41FD039
:100828000001E3510001E411D8A419D00001DABF96
:1008380016D00001DA5104E10001D905D8A00FD083
:10084800D9C0BBFF000E026E000E016E48EC1AF014
:100858009E929D82000E0001E46F170EE36F000167
:10086800C0BF08D00001C05161E1420E0001BF5D68
:10087800D8B012000101565101015711D8B4120025
:1008880081A212000001C9510001E51924E100010B
:10089800CA510001E619D8A41ED00001E151000197
:1008A800E211D8A418D0B3C001F0B4C002F033EC00
:1008B8001AF0F294F28A0001DD510001DE11D8A489
:1008C80005D0000E0001E26F010E04D0000E0001F9
:1008D800E26F040EE16F0001C5510001E51926E140
:1008E8000001C6510001E619D8A412000001DF5129
:1008F8000001E011D8A41200B3C001F0B4C002F0A6
:100908002EEC1AF0A192A0820001DB510001DC114B
:10091800D8A406D0000E0001E06F030EDF6F1200AE
:10092800000E0001E06F020EDF6F12001200FACF16
:1009380051F0FBCF52F0E9CF53F0EACF54F0E1CFBA
:1009480055F0E2CF56F0D9CF57F0DACF58F0F3CFC1
:1009580059F0F4CF5AF0F6CF5BF0F7CF5CF0F8CF50
:100968005DF0F5CF5EF0F2B4F2AAB2D0F29AF2944A
:1009780092D00001AABF8AD00001AA510001A91192
:100988000001A81105E1150E0001A75DD8A07ED0D1
:100998008C84A7C001F0A8C002F033EC1AF0F294DE
:1009A800F28A000E0001E26F0A0E1CD00001AABFF5
:1009B8006DD00001AA510001A9110001A81105E19B
:1009C800150E0001A75DD8A061D08C8AA7C001F0E0
:1009D800A8C002F033EC1AF0F294F28A000E00017B
:1009E800E26F280EE16F6FD08C940001C0BF4ED02B
:1009F8000001C05105E1060E0001BF5DD8A046D038
:100A08000001BEBF43D00001BE5105E1060E000142
:100A1800BD5DD8A03BD00001DD510001DE11D8A496
:100A280002D0010E01D0000E0001DD6FDE6B000167
:100A3800BB510001BC11D8A429D00001DD5100012F
:100A4800DE11D8B41FD0000E1ED08C9A0001C0BF92
:100A58001DD00001C05105E1060E0001BF5DD8A000
:100A680015D00001BEBF12D00001BE5105E1060E2F
:100A78000001BD5DD8A00AD00001DD510001DE11E2
:100A8800D8A4E1D7010E0001DD6FDE6B000E000176
:100A9800E26F000EA7D7E1C04FF0E2C050F050500F
:100AA800000AD8A410D04F50000AD8B40CD0010ABC
:100AB800D8B45FD7050AD8B479D70E0AD8B494D772
:100AC800220AD8B4C2D7000E0101676F010E666F03
:100AD8007EB27DA209D07E920001E8833C0E026EB0
:100AE800AF0E016E1DEC1AF0F2B2F2A8B2D0F29875
:100AF800F2920001E5290001E611D8B40BD08D90DF
:100B08009D9094EC19F001C044F102C045F1010137
:100B1800466B476B010144510101405D010145519C
:100B28000101415901014651010142590101435155
:100B3800800A4F6E01014751800A4F58D8B04BD0F8
:100B48000001E6BF48D00001E65105E1330E00017F
:100B5800E55DD8A040D08A8E000E0101556F010EC8
:100B6800546F000E0001E66F000EE56F000E0101E4
:100B7800596F000E586F000E0101616F000E606F13
:100B880060C162F161C163F162C164F163C165F181
:100B980064C166F165C167F166C168F167C169F151
:100BA8001AD0000E0101916FC00E926F8F0E936FD5
:100BB800440E946F23D0000E0101916F000E926FC6
:100BC800480E936F440E946F000E0101916F000E52
:100BD800926F610EECD75CC14FF05DC150F0505080
:100BE800000AD8A4F1D74F50320AD8B4DAD7560A37
:100BF800D8B4EAD7F20AD8B4DED7E6D7D89001013C
:100C080044350101446F010145350101456F01017A
:100C180046350101466F010147350101476F44C15F
:100C280040F145C141F146C142F147C143F18BEC66
:100C380000F09E909D80020E0001E5190001E6116A
:100C4800D8B48A9E000E0101616F010E606FF292A6
:100C5800F2889EB29DA27FD09D929E9201015E5124
:100C680001015F11D8B44AD064D08B928B90000EEA
:100C78000001E46F000EE36F000E01015F6F000ECC
:100C88001ED00001C2BF34D00001C25105E1020EDE
:100C98000001C15DD8A02CD08B82C1C0BBFF000E63
:100CA800026E000E016E48EC1AF01FD0000E000113
:100CB800E46F010EE36F000E01015F6F010E5E6FBE
:100CC80032D00001C2BF14D00001C25105E1020EAA
:100CD8000001C15DD8A00CD08B80C1C0BBFF000E45
:100CE800026E000E016E48EC1AF09E929D82DED7CD
:100CF800000E0001E46F000EE36F15D0E3C04FF063
:100D0800E4C050F05050000AD8A40DD04F50000A4B
:100D1800D8B409D0010AD8B4A8D70F0AD8B4D1D703
:100D2800190AD8B4AED7000E0101656F010E646FC1
:100D380012D0000E026E000E016E48EC1AF0000E82
:100D480001015F6F000E5E6F000E0001E46F010E7F
:100D5800E36F9E929D82A1B2A0A2B2D0A192A0926E
:100D680092D00001AABF8AD00001AA510001A9119E
:100D78000001A81105E1150E0001A75DD8A07ED0DD
:100D88008C86A7C001F0A8C002F02EEC1AF0A19240
:100D9800A082000E0001E06F140E1CD00001AABF53
:100DA8006DD00001AA510001A9110001A81105E1A7
:100DB800150E0001A75DD8A061D08C88A7C001F0EE
:100DC800A8C002F02EEC1AF0A192A082000E000139
:100DD800E06F1E0EDF6F6FD08C960001C0BF4ED043
:100DE8000001C05105E1060E0001BF5DD8A046D044
:100DF8000001BEBF43D00001BE5105E1060E00014F
:100E0800BD5DD8A03BD00001DB510001DC11D8B496
:100E180031D0000E30D08C980001C0BF2FD0000117
:100E2800C05105E1060E0001BF5DD8A027D0000122
:100E3800BEBF24D00001BE5105E1060E0001BD5D14
:100E4800D8A01CD00001DB510001DC11D8A402D0CD
:100E5800010E01D0000E0001DB6FDC6B0001BB51FD
:100E68000001BC11D8A40AD00001DB510001DC113B
:100E7800D8A4CFD7010E0001DB6FDC6B000E000198
:100E8800E06F000EA7D7DFC04FF0E0C050F0505021
:100E9800000AD8A410D04F50000AD8B40CD0020AC7
:100EA800D8B45FD7010AD8B479D7170AD8B494D779
:100EB8000A0AD8B4B0D7000E0101636F010E626F41
:100EC8005EC0F5FF5DC0F8FF5CC0F7FF5BC0F6FFD2
:100ED8005AC0F4FF59C0F3FF58C0DAFF57C0D9FF12
:100EE80056C0E2FF55C0E1FF54C0EAFF53C0E9FF16
:100EF80052C0FBFF51C0FAFF5F9211002CEC19F0B1
:100F08007D827F827D92FA0E0101446FFF0E456F4C
:100F1800000E466F000E476FFF0E0101406FFF0E77
:100F2800416F000E426F000E436F000E0001E66F26
:100F3800E569000E0001E46F000EE36F000E00018A
:100F4800E26F000EE16FE1C0DFF0E2C0E0F0000EFA
:100F58000001DA6F000ED96F000E0001B36F000EAA
:100F6800B46F000EB56F000EB66F000E0001D66F9D
:100F7800C80ED56F000E0001D26FC80ED16F000EDB
:100F88000001CA6FC80EC96F000E0001C66FC80EF7
:100F9800C56F000E0001D46FC80ED36F000E00019C
:100FA800D06FC80ECF6F000E0001C86FC80EC76F94
:100FB800000E0001C46FC80EC36F000E0101596F07
:100FC800000E586F000E0001C06F000EBF6F000EBC
:100FD8000001BE6F000EBD6F000E0001DC6F000E39
:100FE800DB6FDBC0DDF0DCC0DEF0000E0101556F09
:100FF800000E546F000E0101576F000E566F000E61
:101008000001BC6F000EBB6F000E0001BA6F000E2E
:10101800B96F8D808A968A988A948B9489988A98D1
:101028008C9C8C9E8B908B92D08EF1849F90A28208
:101038009F828C948C968C988C9A0001E891F28E01
:10104800F28CF2887D92000E01015F6F000E5E6FD8
:10105800FC9E89848984A4EC19F00001CCBFB3D12B
:10106800F50E0001CB5D010E0001CC59D8A0ABD123
:10107800010EC26EC282C2B2FED7C4500001A66F72
:10108800A56BC3500001A52501014E6F000E00019C
:10109800A62101014F6F01014F5105E19C0E01018D
:1010A8004E5DD8A009D0000E0001BA6F000EB96FCE
:1010B8000001E8917D920FD00001E8B10CD0000149
:1010C800E8810F014E813C0E0001746FAF0E736F03
:1010D800FBEC19F07D820001E8A1BFD70001E8A36D
:1010E800BCD70001E89378EC13F0AFC073F0B0C040
:1010F80074F0B1C075F0B2C076F0000E0001776FE1
:10110800000E786FC00E796F400E7A6F96EC0EF075
:1011180073C030F174C031F175C032F176C033F16B
:1011280030C181F031C182F032C183F033C184F023
:1011380053EC19F081C085F082C086F083C087F037
:1011480084C088F0000E0001896F000E8A6F600E5F
:101158008B6F410E8C6FEFEC09F085C030F186C0C3
:1011680031F187C032F188C033F1100E0001736F7E
:10117800270E746F000E756F000E766F6CC177F0D6
:101188006DC178F06EC179F06FC17AF0F9EC16F0A4
:1011980073C05AF174C05BF15AC173F05BC174F04B
:1011A8000001000E74BFFF0E756F766F010EA2EC82
:1011B80014F073C081F074C082F075C083F076C0FB
:1011C80084F053EC19F081C085F082C086F083C0AA
:1011D80087F084C088F030C189F031C18AF032C10B
:1011E8008BF033C18CF0EFEC09F085C02CF186C090
:1011F8002DF187C02EF188C02FF12CC173F02DC1BD
:1012080074F02EC175F02FC176F086EC17F073C01C
:10121800CDF074C0CEF02CC189F02DC18AF02EC15A
:101228008BF02FC18CF0CDC073F0CEC074F00001EC
:10123800000E74BFFF0E756F766F010EA2EC14F0EE
:1012480073C081F074C082F075C083F076C084F0FA
:1012580053EC19F081C085F082C086F083C087F016
:1012680084C088F0EFEC09F085C099F086C09AF048
:1012780087C09BF088C09CF06CC173F06DC174F09E
:101288006EC175F06FC176F0010EA2EC14F073C058
:101298009DF074C09EF075C09FF076C0A0F043EC3E
:1012A8000CF099C0ABF09AC0ACF09BC0ADF09CC0FC
:1012B800AEF0D7C0A5F0D8C0A6F0D8900001A537E9
:1012C800A637A5C073F0A6C074F00001000E74BF65
:1012D800FF0E756F766F010EA2EC14F073C0ABF0C1
:1012E80074C0ACF075C0ADF076C0AEF0ABC073F0B2
:1012F800ACC074F0ADC075F0AEC076F0000E000161
:10130800776F000E786F200E796F410E7A6F89EC37
:1013180015F00001D8B009D0000E0001AB6F000E27
:10132800AC6F200EAD6F410EAE6FABC073F0ACC0AA
:1013380074F0ADC075F0AEC076F0000E0001776FA6
:10134800000E786F500E796F420E7A6F96EC0EF0A1
:1013580073C0ABF074C0ACF075C0ADF076C0AEF041
:10136800ABC073F0ACC074F0ADC075F0AEC076F031
:10137800000E0001776F000E786F800E796F3F0EB8
:101388007A6F89EC15F00001D8B009D0000E000181
:10139800AB6F000EAC6F800EAD6F3F0EAE6FABC083
:1013A80073F0ACC074F0ADC075F0AEC076F086ECEA
:1013B80017F0D890000173350001D76F000174351C
:1013C8000001D86F4AD60001E891000E0001BA6FFB
:1013D800000EB96F42D600018851800B0001956F4D
:1013E8000001885188250001976F000187AF02D05E
:1013F80000019781000197510001D8B412D0000173
:101408009729D8A409D0000E0001856F000E866FB9
:10141800000E876F000E886F0001878F000E000195
:1014280008D0000E0001856F000E866F000E876FD2
:10143800000E886F00018C51800B0001966F00012F
:10144800955100019619D8B402D00001958D00017C
:101458008C518C250001966F00018BAF02D00001E2
:101468009681000196510001D8B412D00001962946
:10147800D8A409D0000E0001896F000E8A6F000EF3
:101488008B6F000E8C6F00018B8F000E000108D04F
:10149800000E0001896F000E8A6F000E8B6F000E20
:1014A8008C6F000197510001965DD8B024D00001DF
:1014B80095AD03D0800E0001951B97C098F096C09B
:1014C80097F098C096F085C098F089C085F098C0CC
:1014D80089F086C098F08AC086F098C08AF087C0E4
:1014E80098F08BC087F098C08BF088C098F08CC0BB
:1014F80088F098C08CF0000E0001986F0001975199
:1015080000018D6F8E6B00018D1F8E1F8D4B8E2BF2
:101518000001965100018F6F906B00018D51000101
:101528008F2700018E5100019023000190BF3DD00C
:101538000001905105E11A0E00018F5DD8A035D049
:1015480000018551000186110001871100018811F1
:10155800D8B402D0010E01D0000E0001986F000E21
:101568000001856F000E866F000E876F000E886F72
:1015780096C097F020D0000198A107D00001D8901C
:10158800983101090001986F03D00001D890983371
:10159800000185A102D00001988F000188358833A9
:1015A8008733863385330001972B0001965100015C
:1015B800975DD8A0E0D7000195BD3FD000019751B5
:1015C8000001D8A40AD0000E0001856F000E866FB6
:1015D800000E876F000E886F12000001895100010C
:1015E800852700018A510001862300018B510001E3
:1015F800872300018C5100018823000188A1CCD0E9
:10160800000198A109D00001D890983300019851A1
:1016180001090001986F03D00001D89098330001A8
:1016280085A102D00001988F00018835883387335F
:10163800863385330001972BAFD000018951000113
:10164800855D00018A510001865900018B51000116
:10165800875900018851800A00018D6F00018C5163
:10166800800A00018D59D8B050D085C08DF086C051
:101678008EF087C08FF088C090F000018D1F8E1FFC
:101688008F1F901F8D2B000E8E238F239023000118
:10169800895100018D250001916F00018A510001D7
:1016A8008E210001926F00018B5100018F210001F2
:1016B800936F00018C51000190210001946FFF0E7F
:1016C800000191250001856FFF0E000192210001A4
:1016D800866FFF0E000193210001876FFF0E000146
:1016E80094210001886F800E0001951B0001986D00
:1016F800000198510001D8A418D0010E00018527D7
:10170800000E86238723882310D000018951000109
:10171800855F00018A510001865B00018B51000141
:10172800875B00018C510001885B00018551000135
:1017380086110001871100018811D8A42AD0000160
:1017480098510001D8A425D0000E0001856F000E25
:10175800866F000E876F000E886F12000001D89008
:101768008537863787378837000198AF02D0000160
:101778008581000198A103D0D880000102D0000122
:10178800D8909837000197510001D8B402D00001D1
:101798009707000187AFE2D7000E0001966F00019E
:1017A80098AF0DD098C08DF07F0E00018D17D8A48A
:1017B80003D0000185A103D0010E0001966F00013E
:1017C80096510001D8B426D0010E00018527000EDD
:1017D800862387238823000188A11CD085C08DF02B
:1017E80086C08EF087C08FF088C090F000019035D9
:1017F80090338F338E338D338DC085F08EC086F055
:101808008FC087F090C088F000019729D8B402D023
:101818000001972B00019729D8B405D000019751F2
:101828000001D8A411D0000E0001856F000E866F4C
:10183800000E876F000E886F000197510001D8A431
:1018480003D0000E0001956F000197A103D000019D
:10185800878F02D00001879F0001D890973100013F
:10186800886F000195AF02D00001888F85C085F090
:1018780086C086F087C087F088C088F01200000113
:101888009C51800B0101706F00019C519C25010146
:10189800766F00019BAF02D001017681010176517C
:1018A8000101D8B410D001017629D8A409D0000EBE
:1018B8000001996F000E9A6F000E9B6F000E9C6FCF
:1018C80000019B8F09D0000E0001996F000E9A6FDE
:1018D800000E9B6F000E9C6F0001A051800B010150
:1018E800701B0001A051A0250101716F00019FAF7D
:1018F80002D001017181010171510101D8B410D0E8
:1019080001017129D8A409D0000E00019D6F000EB5
:101918009E6F000E9F6F000EA06F00019F8F09D071
:10192800000E00019D6F000E9E6F000E9F6F000E4F
:10193800A06F010171510101D8B405D001017651A0
:101948000101D8A40AD0000E0001996F000E9A6F09
:10195800000E9B6F000E9C6F120000019F5100014A
:101968009903F3CF7BF1F4CF7CF101017B510101A5
:10197800726F736B746B756B01017C510101776F2A
:10198800786B796B7A6B00019E5100019A03F3CF53
:101998007BF1F4CF7CF101017B5101017227000E2C
:1019A80073237423752301017C5101017727000EED
:1019B800782379237A2300019D5100019B03F3CFFB
:1019C8007BF1F4CF7CF101017B5101017227000EFC
:1019D80073237423752301017C5101017727000EBD
:1019E800782379237A2374C175F173C174F172C1B4
:1019F80073F10101726B00019D5100019A03F3CF4D
:101A08007BF1F4CF7CF101017B51010172270101C7
:101A18007C5101017323000E01017423000E0101A2
:101A2800752300019E5100019903F3CF7BF1F4CF98
:101A38007CF101017B510101722701017C510101F7
:101A48007323000E01017423000E0101752374C174
:101A580075F173C174F172C173F10101726B000108
:101A68009D5100019903F3CF7BF1F4CF7CF1010183
:101A78007B510101722701017C5101017323000E82
:101A880001017423000E0101752300019F5100011B
:101A98009A03F3CF7BF1F4CF7CF101017B51010173
:101AA800772701017C5101017823000E0101792378
:101AB800000E01017A2300019E5100019B03F3CF20
:101AC8007BF1F4CF7CF101017B5101017727010102
:101AD8007C5101017823000E01017923000E0101D8
:101AE8007A2300019F5100019B03F3CF7BF1F4CFD0
:101AF8007CF101017B510001A16F01017C510001C2
:101B0800A26F0001A36B0001A46BA3C0A4F0A2C044
:101B1800A3F0A1C0A2F00001A16B0001A151010135
:101B280077270001A251010178230001A351010187
:101B380079230001A45101017A2372C1A1F073C174
:101B4800A2F074C1A3F075C1A4F0190E06D000016B
:101B5800D890A433A333A233A133E82EF8D70001D9
:101B6800A151010177270001A25101017823000149
:101B7800A351010179230001A45101017A2374C101
:101B880075F173C174F172C173F10101726B0101D6
:101B9800715176C1A1F00001A26B0001A127000ECE
:101BA800A223820E0001A12501017B6FFF0E000117
:101BB800A22101017C6F15D00101D89077377837C1
:101BC80079377A37010175AF02D0010177810101B8
:101BD800D890723773377437753701017B07D8A0EF
:101BE8007C07010179AFE8D7000E0101716F01018F
:101BF80075AF24D0FF0E010172150001A16FFF0E11
:101C0800010173150001A26FFF0E01017415000197
:101C1800A36F7F0E010175150001A46F0001A1518A
:101C28000001A2110001A3110001A411D8A403D03E
:101C3800010177A103D0010E0101716F01017151FA
:101C48000101D8B423D0010E01017727000E7823B3
:101C580079237A2301017AA119D077C1A1F078C13B
:101C6800A2F079C1A3F07AC1A4F00001A435A4338D
:101C7800A333A233A133A1C077F1A2C078F1A3C0E6
:101C880079F1A4C07AF101017B4B7C2B01017CBF67
:101C980010D001017C5104E101017B29D8A009D0B1
:101CA800000E0101776F000E786F800E796F7F0E3E
:101CB8002BD001017CBF07D001017C5111E101014A
:101CC8007B05D8B00DD0000E0101776F000E786F3C
:101CD800000E796F000E7A6F000E0101706F15D03B
:101CE8007BC176F1FF0E01017717FF0E78177F0E83
:101CF8007917000E7A17010176A102D00101798FB8
:101D08000101D890763101017A6F0101705101010A
:101D18007A1377C199F078C19AF079C19BF07AC1AA
:101D28009CF0120000017651800B00017F6F0001CA
:101D38007651762500018A6F000175AF02D0000147
:101D48008A8100018A510001D8B412D000018A2981
:101D5800D8A409D0000E0001736F000E746F000E36
:101D6800756F000E766F0001758F000E000108D0A8
:101D7800000E0001736F000E746F000E756F000E79
:101D8800766F00017A51800B00017F1B00017A51A8
:101D98007A2500018B6F000179AF02D000018B8199
:101DA80000018B510001D8B412D000018B29D8A4AE
:101DB80009D0000E0001776F000E786F000E796F62
:101DC800000E7A6F0001798F000E000108D0000E16
:101DD8000001776F000E786F000E796F000E7A6F32
:101DE80000017751000178110001791100017A1181
:101DF800D8A417D0000E0001736F000E746F000E88
:101E0800756F000E766F0001800E75137F0E7613C6
:101E180073C073F074C074F075C075F076C076F056
:101E2800120000018A510001D8A412D0000E00014E
:101E3800736F000E746F000E756F000E766F73C0AF
:101E480073F074C074F075C075F076C076F0120047
:101E580000018B5100017B6F7C6B00017B1F7C1F95
:101E68007B4B7C2B00018A5100017D6F7E6B00014A
:101E78007B5100017D2700017C5100017E237F0EEC
:101E880000017D250001846F000E00017E21000104
:101E9800856F73C080F074C081F075C082F076C021
:101EA80083F0000E0001736F000E746F000E756FE3
:101EB800000E766F000E0001866F000E876F000E11
:101EC800886F000E896F000E00018B6F42D00001F1
:101ED8008B510001D8B417D00001D89080378137D2
:101EE800823783370001D890733774377537763760
:101EF800000189AF02D0000173810001D8908637B4
:101F0800873788378937000177510001805D0001E4
:101F1800785100018159000179510001825900016D
:101F28007A5100018359D8A012D00001898D00018F
:101F380077510001805F000178510001815B000149
:101F480079510001825B00017A510001835B000135
:101F58008B2B190E00018B65BAD700018051000147
:101F680081110001821100018311D8B418D0000139
:101F7800868115D00001D890733774377537763756
:101F8800000189AF02D0000173810001D890863723
:101F980087378837893700018407D8A0850700016B
:101FA80075AFE8D7000E00018B6F000189AF24D010
:101FB800FF0E0001861500017B6FFF0E00018715DB
:101FC80000017C6FFF0E0001881500017D6F7F0EF8
:101FD8000001891500017E6F00017B5100017C1111
:101FE80000017D1100017E11D8A403D0000173A166
:101FF80003D0010E00018B6F00018B510001D8B492
:1020080023D0010E00017327000E74237523762355
:10201800000176A119D073C07BF074C07CF075C044
:102028007DF076C07EF000017E357E337D337C33D3
:102038007B337BC073F07CC074F07DC075F07EC0CC
:1020480076F00001844B852B000185BF14D0000178
:10205800855104E100018429D8A00DD0000E0001AB
:10206800856F8469000E0001736F000E746F000E97
:10207800756F000E766F000185BF07D0000185518E
:1020880015E100018405D8B011D0000E0001856F5C
:10209800000E846F000E0001736F000E746F000E47
:1020A800756F000E766F000E00017F6F84C08AF096
:1020B80000018AA103D00001758F02D00001759F2D
:1020C8000001D8908A310001766F00017F5100012C
:1020D800761373C073F074C074F075C075F076C071
:1020E80076F012001250800B1B6E12501224216ED3
:1020F80011BE21802150D8B40DD02128D8A408D0F1
:10210800000E0F6E000E106E000E116E000E126E95
:10211800118E08D0000E0F6E000E106E000E116E9C
:10212800000E126E1650800B1B1A165016241C6EC9
:1021380015BE1C801C50D8B40DD01C28D8A408D0BB
:10214800000E136E000E146E000E156E000E166E45
:10215800158E08D0000E136E000E146E000E156E4C
:10216800000E166E1C50D8B403D02150D8A409D044
:10217800000E0F6E000E106E000E116E000E126E25
:10218800120015500F02F3CF26F0F4CF27F0265097
:102198001D6E1E6A1F6A206A2750226E236A246AEF
:1021A800256A14501002F3CF26F0F4CF27F02650FA
:1021B8001D26000E1E221F22202227502226000E36
:1021C80023222422252213501102F3CF26F0F4CF24
:1021D80027F026501D26000E1E221F2220222750DF
:1021E8002226000E2322242225221FC020F01EC0F2
:1021F8001FF01DC01EF01D6A13501002F3CF26F009
:10220800F4CF27F026501D2627501E22000E1F222D
:10221800000E202214500F02F3CF26F0F4CF27F03F
:1022280026501D2627501E22000E1F22000E202297
:102238001FC020F01EC01FF01DC01EF01D6A1350E5
:102248000F02F3CF26F0F4CF27F026501D26275093
:102258001E22000E1F22000E202215501002F3CF5E
:1022680026F0F4CF27F02650222627502322000EEE
:102278002422000E252214501102F3CF26F0F4CFA9
:1022880027F02650222627502322000E2422000E53
:10229800252215501102F3CF26F0F4CF27F026504F
:1022A800176E2750186E196A1A6A19C01AF018C0E2
:1022B80019F017C018F0176A175022261850232251
:1022C800195024221A5025221DC017F01EC018F0DC
:1022D8001FC019F020C01AF0190E05D0D8901A3274
:1022E800193218321732E82EF9D71750222618500B
:1022F8002322195024221A5025221FC020F01EC064
:102308001FF01DC01EF01D6A1C5021C017F0186A6E
:102318001726000E1822820E1724266EFF0E18208C
:10232800276E0FD0D890223623362436253620BE85
:102338002280D8901D361E361F3620362606D8A095
:10234800270624AEEFD7000E1C6E20AE16D0FF0E67
:102358001D14176EFF0E1E14186EFF0E1F14196E33
:102368007F0E20141A6E1750181019101A10D8A4BE
:1023780002D022A002D0010E1C6E1C50D8B41FD06F
:10238800010E2226000E23222422252225A017D062
:1023980022C017F023C018F024C019F025C01AF085
:1023A8001A341A3219321832173217C022F018C0EC
:1023B80023F019C024F01AC025F0264A272A27BE80
:1023C8000DD0275003E12628D8A008D0000E226E91
:1023D800000E236E800E246E7F0E20D027BE05D0FF
:1023E80027500EE12604D8B00BD0000E226E000E46
:1023F800236E000E246E000E256E000E1B6E0FD08D
:1024080026C021F0FF0E2216FF0E23167F0E24167B
:10241800000E251621B0248ED8902130256E1B5031
:10242800251222C00FF023C010F024C011F025C0DF
:1024380012F012002B50800B346E2B502B243F6E61
:102448002ABE3F803F50D8B40DD03F28D8A408D02A
:10245800000E286E000E296E000E2A6E000E2B6EDE
:102468002A8E06D0000E286E000E296E000E2A6EE7
:10247800000E2B6E2F50800B341A2F502F24406ED5
:102488002EBE40804050D8B40DD04028D8A408D0E3
:10249800000E2C6E000E2D6E000E2E6E000E2F6E8E
:1024A8002E8E06D0000E2C6E000E2D6E000E2E6E97
:1024B800000E2F6E2C502D102E102F10D8A415D0D2
:1024C800000E286E000E296E000E2A6E000E2B6E6E
:1024D800800E2A127F0E2B1228C028F029C029F05E
:1024E8002AC02AF02BC02BF012003F50D8A411D0DC
:1024F800000E286E000E296E000E2A6E000E2B6E3E
:1025080028C028F029C029F02AC02AF02BC02BF0B7
:1025180012004050306E316A301E311E304A312A66
:102528003F50326E336A30503226315033227F0E9C
:102538003224396E000E33203A6E28C035F029C097
:1025480036F02AC037F02BC038F0000E286E000E87
:10255800296E000E2A6E000E2B6E000E3B6E000ECA
:102568003C6E000E3D6E000E3E6E000E406E28D092
:102578004050D8B411D0D89035363636373638363C
:10258800D890283629362A362B363EBE2880D89051
:102598003B363C363D363E362C50355C2D50365851
:1025A8002E5037582F503858D8A009D03E8C2C5070
:1025B800355E2D50365A2E50375A2F50385A402AE9
:1025C800190E4064D5D73550361037103810D8B4A6
:1025D80011D03B800FD0D890283629362A362B3692
:1025E8003EBE2880D8903B363C363D363E363906CE
:1025F800D8A03A062AAEEFD7000E406E3EAE16D0EF
:10260800FF0E3B14306EFF0E3C14316EFF0E3D146E
:10261800326E7F0E3E14336E30503110321033104C
:10262800D8A402D028A002D0010E406E4050D8B4E1
:102638001FD0010E2826000E29222A222B222BA089
:1026480017D028C030F029C031F02AC032F02BC092
:1026580033F03334333232323132303230C028F052
:1026680031C029F032C02AF033C02BF0394A3A2A57
:102678003ABE10D03A5003E13928D8A00BD0000E4A
:102688003A6E3968000E286E000E296E000E2A6E0A
:10269800000E2B6E3ABE05D03A5011E13904D8B07D
:1026A8000ED0000E3A6E000E396E000E286E000E27
:1026B800296E000E2A6E000E2B6E000E346E39C085
:1026C8003FF03FA002D02A8E01D02A9ED8903F30FA
:1026D8002B6E34502B1228C028F029C029F02AC0AC
:1026E8002AF02BC02BF01200CBC073F0CCC074F0D2
:1026F8000001000E74BFFF0E756F766F010EA2EC1D
:1027080014F073C081F074C082F075C083F076C095
:1027180084F053EC19F081C085F082C086F083C044
:1027280087F084C088F091C189F092C18AF093C182
:102738008BF094C18CF0EFEC09F085C03CF186C0B9
:102748003DF187C03EF188C03FF189C19DF08AC143
:102758009EF08BC19FF08CC1A0F08DC199F08EC105
:102768009AF08FC19BF090C19CF043EC0CF099C09B
:102778007DF19AC07EF19BC07FF19CC080F138C189
:102788009DF039C19EF03AC19FF03BC1A0F07DC1D8
:1027980099F07EC19AF07FC19BF080C19CF043EC18
:1027A8000CF099C081F09AC082F09BC083F09CC065
:1027B80084F053EC19F081C089F082C08AF083C09C
:1027C8008BF084C08CF03CC19DF03DC19EF03EC1B1
:1027D8009FF03FC1A0F08DC199F08EC19AF08FC1D2
:1027E8009BF090C19CF043EC0CF099C085F09AC026
:1027F80086F09BC087F09CC088F0EFEC09F085C09C
:1028080081F186C082F187C083F188C084F181C1DB
:1028180085F082C186F083C187F084C188F034C115
:1028280089F035C18AF036C18BF037C18CF0EFECF6
:1028380009F085C0AFF086C0B0F087C0B1F088C09D
:10284800B2F0000E0001736F000E746F700E756F9A
:10285800420E766F3CC177F03DC178F03EC179F009
:102868003FC17AF089EC15F00001D8B012D0550EAE
:1028780001018D6F130E8E6FE40E8F6F3E0E906FF9
:10288800000E0101956F000E966F0C0E976F420EA9
:1028980011D0DE0E01018D6F590E8E6F7B0E8F6F7A
:1028A8003E0E906F000E0101956F000E966FA80EF8
:1028B800976F410E986F95C173F096C174F097C1E8
:1028C80075F098C176F0AFC077F0B0C078F0B1C0BD
:1028D80079F0B2C07AF089EC15F00001D8B011D0C7
:1028E80095C1AFF096C1B0F097C1B1F098C1B2F000
:1028F800000E0101386F000E396F000E3A6F000E9E
:102908003B6F0001B2AF09D0000E0001AF6F000E9F
:10291800B06F000EB16F000EB26F3CC138F13DC10F
:1029280039F13EC13AF13FC13BF1AFC034F1B0C01B
:1029380035F1B1C036F1B2C037F1120000017B6F3A
:1029480000017B510001D8B41ED0000176AF1BD026
:1029580073C077F074C078F075C079F076C07AF0FB
:102968000001771F781F791F7A1F772B000E7823B5
:1029780079237A2377C07DF078C07EF079C07FF024
:102988007AC080F008D073C07DF074C07EF075C046
:102998007FF076C080F000017351000174110001CE
:1029A800751100017611D8A40AD0000E0001736FCA
:1029B800000E746F000E756F000E766F1200960E83
:1029C80000017C6F08D000017C2B0001D890803377
:1029D8007F337E337D33000E00017D150001776F54
:1029E800000E00017E150001786F000E00017F15B2
:1029F8000001796FFE0E0001801500017A6F000159
:102A08007751000178110001791100017A11D8B4C9
:102A180010D0D9D700017C2B010E00017D27000EB4
:102A28007E237F2380230001D89080337F337E3339
:102A38007D33000E00017D150001776F000E000147
:102A48007E150001786F000E00017F150001796F77
:102A5800FF0E0001801500017A6F00017751000117
:102A680078110001791100017A11D8B409D0D2D7B0
:102A780000017C070001D8907D377E377F3780378B
:102A880000017FBF04D0020E00017C61F1D7000174
:102A98007CB109D0FF0E00017D17FF0E7E177F0E57
:102AA8007F17FF0E80170001D8907C337CC077F029
:102AB8000001786B796B7A6B77C07AF00001796BDB
:102AC800786B776B0001775100017D130001785115
:102AD80000017E130001795100017F1300017A5132
:102AE8000001801300017B510001D8B405D000011A
:102AF80076AF02D00001808F7DC073F07EC074F085
:102B08007FC075F080C076F01200000E00017315CA
:102B180000017B6F000E0001741500017C6F800EB0
:102B28000001751500017D6F7F0E0001761500010B
:102B38007E6F00017B5100017C1100017D110001B5
:102B48007E11D8A409D0000E0001736F000E746FB7
:102B5800000E756F000E766F000E000177150001EC
:102B68007B6F000E0001781500017C6F800E00015C
:102B7800791500017D6F7F0E00017A1500017E6FC7
:102B880000017B5100017C1100017D1100017E11C3
:102B9800D8A409D0000E0001776F000E786F000EE0
:102BA800796F000E7A6F000176AF26D073C07BF084
:102BB80074C07CF075C07DF076C07EF000017B1F8C
:102BC8007C1F7D1F7E1F7B2B000E7C237D237E2395
:102BD800000E00017B250001736F000E00017C21AF
:102BE8000001746F000E00017D210001756F800ED9
:102BF80000017E210001766F00017AAF26D077C0F0
:102C08007BF078C07CF079C07DF07AC07EF000015E
:102C18007B1F7C1F7D1F7E1F7B2B000E7C237D234B
:102C28007E23000E00017B250001776F000E000156
:102C38007C210001786F000E00017D210001796F71
:102C4800800E00017E2100017A6F000E0001731BC7
:102C5800000E741B000E751B800E761B000E000103
:102C6800771B000E781B000E791B800E7A1B000163
:102C780077510001735D000178510001745900011A
:102C880079510001755900017A5100017659D8B07F
:102C980002D0D8901200D8801200096E0950D8A42A
:102CA80004AE1AD001C005F002C006F003C007F058
:102CB80004C008F0051E061E071E081E052A000E81
:102CC80006220722082205C00BF006C00CF007C038
:102CD8000DF008C00EF008D001C00BF002C00CF0D7
:102CE80003C00DF004C00EF00150021003100410D0
:102CF800D8A409D0000E016E000E026E000E036EFD
:102D0800000E046E1200960E0A6E06D00A2AD8909B
:102D18000E320D320C320B32000E0B14056E000E03
:102D28000C14066E000E0D14076EFE0E0E14086EBF
:102D38000550061007100810D8B40DD0E7D70A2A96
:102D4800010E0B26000E0C220D220E22D8900E32F8
:102D58000D320C320B32000E0B14056E000E0C14E3
:102D6800066E000E0D14076EFF0E0E14086E055049
:102D7800061007100810D8B407D0E1D70A06D89073
:102D88000B360C360D360E360DBE03D0020E0A6019
:102D9800F5D70AB008D0FF0E0B16FF0E0C167F0EE3
:102DA8000D16FF0E0E16D8900A320AC005F0066AF4
:102DB800076A086A05C008F0076A066A056A0550C6
:102DC8000B1206500C1207500D1208500E12095023
:102DD800D8A404AE01D00E8E0BC001F00CC002F0D6
:102DE8000DC003F00EC004F01200000E00017C6F4D
:102DF80000017AAF0CD000017A1F791F781F776D18
:102E0800000E782379237A23010E00017C6F0001DC
:102E180076AF0CD00001761F751F741F736D000EFE
:102E2800742375237623010E00017C1B000E00011C
:102E38007D6F000E7E6F000E7F6F000E806F0001A9
:102E48007751000178110001791100017A11D8B485
:102E580042D0010E00017B6F08D00001D89077376F
:102E6800783779377A3700017B2B00017AAFF5D7AD
:102E78000001D8907D377E377F3780370001775142
:102E88000001735D00017851000174590001795106
:102E98000001755900017A5100017659D8A012D065
:102EA800000177510001735F000178510001745BE4
:102EB800000179510001755B00017A510001765BD0
:102EC80000017D810001D8907A33793378337733E4
:102ED80000017B2FCDD700017C510001D8B409D067
:102EE8000001801F7F1F7E1F7D6D000E7E237F23C4
:102EF80080237DC073F07EC074F07FC075F080C001
:102F080076F0120000017535763500017C6F0001FE
:102F18007C51D8A40AD0000E0001736F000E746FA4
:102F2800000E756F000E766F120073C077F074C0D4
:102F380078F075C079F076C07AF0200E06D00001DE
:102F4800D8907A33793378337733E82EF8D700017D
:102F5800775100017B6F0001758FFF0E0001731719
:102F6800FF0E7417FF0E7517000E7617960E0001E8
:102F78007C5F00017CAF1AD000017C51800A970F5A
:102F8800D8B00AD0000E0001736F000E746F000EE7
:102F9800756F000E766F12000001D8907633753386
:102FA8007433733300017C3FF7D71BD01F0E000129
:102FB8007C6512D0000E0001736F000E746F000E56
:102FC800756F000E766F12000001D8907337743752
:102FD8007537763700017C0700017C510001D8A4C1
:102FE800F3D700017B510001D8B409D00001761F46
:102FF800751F741F736D000E74237523762373C0B9
:1030080073F074C074F075C075F076C076F0120075
:10301800433444344A6E4A50D8A409D0000E416E55
:10302800000E426E000E436E000E446E120041C048
:1030380045F042C046F043C047F044C048F0200E77
:1030480005D0D8904832473246324532E82EF9D773
:103058004550496E438EFF0E4116FF0E4216FF0E75
:103068004316000E4416960E4A5E4AAE16D04A50D3
:10307800800A970FD8B009D0000E416E000E426E3C
:10308800000E436E000E446E1200D8904432433254
:10309800423241324A3EF9D715D01F0E4A640FD04A
:1030A800000E416E000E426E000E436E000E446E1E
:1030B8001200D89041364236433644364A064A50C2
:1030C800D8A4F7D74950D8B408D0441E431E421E8E
:1030D800416C000E42224322442241C041F042C0CA
:1030E80042F043C043F044C044F01200000E066EA4
:1030F80004AE06D0036C041ED8B0042A010E066E76
:1031080002AE06D0016C021ED8B0022A010E061AC1
:10311800000E086E000E076E03500410D8B41CD0C1
:10312800010E056E04D0D89003360436052A04AE85
:10313800FAD7D890073608360350015C0450025875
:10314800D8A005D00350015E0450025A0780D890D9
:1031580004320332052EEDD70650D8B404D0076CDC
:10316800081ED8B0082A07C001F008C002F01200F3
:103178000C6E000E0D6E40EC1AF00C5023EC1AF099
:10318800045023EC1AF044EC1AF00C50010923EC1B
:103198001AF029D00D50010D180EF324D96E010E26
:1031A800F420DA6E02EC1AF0DF6EFF0E056EFF0EE9
:1031B800066E0350076E086A055007260650082257
:1031C8000D50096E0A6A0750095C0A50800A0B6E96
:1031D8000850800A0B58D8B003D010EC1AF002D06F
:1031E80009EC1AF00D2A03500D5CD8A0D3D73CEC9B
:1031F8001AF01200940EF66E330EF76E000EF86E8B
:1032080001EE85F010EE14F00900F5CFEEFFE55061
:10321800E150FAE1960EF66E340EF76E000EF86E77
:103228000900F5CFE9F001EE00F0700EEE6AE8064D
:10323800FDE10001E86B00EEA7F0410EEE6AE8063A
:10324800FDE15F905F92000EF86E000182EF07F0DB
:10325800210E926E230E936E180E946E000E956ECC
:10326800040E966EA60EE82EFED700D084EC19F058
:10327800010E0F01386F010EC26E000EC16EA50E51
:10328800C06E38EC1AF0BFEC19F0E8EC19F0DEEC7F
:1032980019F0BB68D4EC19F06FEC19F012000001BA
:1032A8008151000182110001831100018411D8B4F9
:1032B80009D0000E0001811B000E821B000E831B2B
:1032C800800E841B81C081F082C082F083C083F0AD
:1032D80084C084F012007D920F014E8B0F014E992D
:1032E8000F014E973F0E0F014E170F014E83000E30
:1032F8000F014F6F000E0F01506F0F014E8112002A
:10330800000E0F01386F000E0F01396F000E0F010C
:103318003A6F000E0F013B6F000E0F013C6F120059
:10332800CE50CFCF03F0046A03C004F0036A031041
:10333800056E0450066E05C001F006C002F01200CA
:10334800000E0F013B6F95809582280E6C6E000E63
:103358006B6E630E6E6E000E6D6E1200056E015080
:1033680005C003F0046A03C004F0036A0310016E89
:103378000450026E1200F29AD590D582D594D59C4D
:10338800D596D598D59AD58EF28612000000803F42
:10339800AA60643FDE597B3E00007A440000A841E1
:1033A800A092B18AB188B1963F0EB116B182B180B0
:1033B800F28612009D92BA86BA88BA8ABA8CBA8006
:1033C800BA82BA84F28612009D90CD8ACD98CD96A5
:1033D8003F0ECD16CD82CD80F28612006DB4FED799
:1033E8006BCF01F01F0E0116D8B41200F7D70001F9
:1033F80074510F01506F73C04FFF1200F2EC19F0B7
:103408006B866DA0FED76F501200F2EC19F06B8A34
:103418006B886BA81200FDD7F2EC19F06B9A6B88D9
:103428006BA81200FDD700016151CF6E60C0CEFFBE
:10343800120002500F01506F01C04FFF1200026EC0
:10344800F2EC19F002C06FFF12000250CF6E01C0FB
:10345800CEFF12000250B36E01C0B2FF120002503C
:10346800D76E01C0D6FF12009380F19CF28612003D
:10347800F2EC19F06B841200F2EC19F06B80120078
:0F348800F2EC19F06B82120001C0BCFF120001C0
:020000040020DA
:08000000FFFFFFFFFFFFFFFF00
:020000040030CA
:0E000000FF32193CFFBF80FF0FC00FE00F4022
:00000001FF
