:0400000063EF04F0B6
:060008005F8265EF04F0C9
:100018005F80D8CFC9F2E8CFCAF2E0CFCBF2FACFEF
:10002800CCF2FBCFCDF2E9CFCEF2EACFCFF2E1CFDF
:10003800D0F2E2CFD1F2D9CFD2F2DACFD3F2F3CFE6
:10004800D4F2F4CFD5F2F6CFD6F2F7CFD7F2F8CF75
:10005800D8F2F5CFD9F29EB09DA0DAD09D909E90AF
:100068009D92000E0001CE6F000ECD6F000E0101B3
:10007800996F000E986FFF0E0101586FFF0E596FB0
:10008800000E5A6F000E5B6FFA0E01015C6FFF0ED7
:100098005D6F000E5E6F000E5F6F0001C86981B270
:1000A80010D08C9E000E0101B36F030E0101F36F97
:1000B800E80EF26F000E0101B26F000E0101B06F81
:1000C80009D0650E0101B36104D08C8E0101B32BF8
:1000D80001D08C9E000E0001B26F240EB16FB1C02A
:1000E8008BF20101624B632B0101635105E10B0E99
:1000F8000101625DD8A00AD0000E0101636F000EF5
:10010800626F000E0101616F010E606F01016051A5
:1001180001016111D8B46DD020EC29F01CEC27F056
:100128007EEC25F011EC26F07AEC29F0240E000183
:10013800936F400E0001946F500E74EC28F094C138
:1001480080F20001BC510201816FBBC082F286C1FE
:1001580083F290C184F20001BE510201856FBDC0D7
:1001680086F28EC187F292C188F28AC189F2B5C03F
:100178008AF20001B1290001B211D8A405D0000EFD
:100188000001B26FFE0EB16FB1C08BF20001CE510B
:1001980002018C6FCDC08DF2B7C08EF29AC18FF27A
:1001A8009BC190F284C191F2C3C092F2C4C093F291
:1001B800800E0001936F020E0001946F140E00016F
:1001C800956F400E0001966F300E57EC27F0020E27
:1001D8000001936F400E0001946F500E23EC25F040
:1001E80014C29AF115C29BF1000E0101616F000E55
:1001F800606F8BA002D0010E01D0000EFF0A020131
:10020800C56F8B500201C519FE0BC5198B6E9D80F9
:100218009EB29DA230D39E9201016E5101016F11D1
:10022800D8A424D309EC2AF0000E0101CE6F000EE9
:10023800CF6F1C0ED06F420ED16F80C1C0F181C14B
:10024800C1F10101000EC1BFFF0EC26FC36F010EE5
:1002580051EC1FF0C0C1D2F1C1C1D3F1C2C1D4F178
:10026800C3C1D5F138EC20F00101D8A043D1000E6C
:100278000001CA6F000EC96F0101EC050101ED1103
:10028800D8A406D0000E0001B26F240EB16F67D05B
:100298000101B251D8A442D0C40E0101F25D090E89
:1002A8000101F359D8B03AD00001CEBF37D00001D0
:1002B800CE5120E1060E0001CD5DD8B01BD02ED066
:1002C800000E0001B26F250E13D0000E0001B26FB0
:1002D800250EB16F330E0201DE6F330EDF6FB30EE2
:1002E800E06F3F0EE16F11D0000E0001B26F230ED8
:1002F800B16F0BD00101B051000AD8B4E1D7010A9F
:10030800D8B4E3D7030AD8B4EFD7000E0101876F3A
:10031800320E866F0101F24BF32B21D00001CEBFC4
:100328001ED00001CE5105E1060E0001CD5DD8A01A
:1003380016D00101B251D8A412D0010E0101B26F3A
:10034800000E0101B06F000E0001C16F000E020126
:10035800DE6F000EDF6F800EE06F3F0EE16F010170
:10036800B205D8A433D00001B6BF08D00001B651F9
:1003780007E1280E0001B55DD8B002D0020E24D0E6
:100388000001B6BF15D00001B65105E1280E0001E5
:10039800B55DD8A00DD00001B6BF08D00001B65198
:1003A80007E1320E0001B55DD8B002D0030E0CD0C3
:1003B8000001B6BF0BD00001B65105E1330E0001B4
:1003C800B55DD8A003D0040E0101B26F0001B6BF1D
:1003D80008D00001B65127E1280E0001B55DD8B05C
:1003E80022D0020E0101B219D8A41DD0000E0001BE
:1003F800B26F240EB16F000E0101876F320E866F47
:100408000001CEBF08D0EE0E0001CD5D020E000146
:10041800CE59D8B004D00101B005D8B455D0010EDA
:100428000101B06F1ED20001B6BF26D00001B6513F
:1004380005E1280E0001B55DD8A01ED00001B6BFA9
:1004480008D00001B65118E1320E0001B55DD8B0F0
:1004580013D0030E0101B219D8A40ED0000E00016A
:10046800B26F230EB16F000E0101876F640E866FA5
:100478000001CEAFC8D724D00001B6BF34D00001E8
:10048800B65105E1320E0001B55DD8A02CD0040E9E
:100498000101B219D8A427D0F8C1B1F00001B26B9C
:1004A800000E0101876F640E866F0001CEBF08D071
:1004B800EE0E0001CD5D020E0001CE59D8B0AFD7C7
:1004C8000101B005D8A4ABD7000E0101B26F030E2D
:1004D8000101F36FE80EF26F010E0101B06F000E1B
:1004E8000001C16F9CD70101B251D8B4BAD1010142
:1004F800B22BB7D1000E0101B06F000E0101B26F2F
:10050800070E0101F36FD00EF26FC9C072F1CAC0B5
:1005180073F1000E0101D26F000ED36F180ED46F65
:10052800430ED56FD90E010180250001916FFF0E92
:10053800010181210001926F000E0001946F640E89
:10054800936FB8EC28F0000191C0C0F1000192C08F
:10055800C1F10101000EC1BFFF0EC26FC36F010ED2
:1005680051EC1FF0C0C1CEF1C1C1CFF1C2C1D0F171
:10057800C3C1D1F18DEC18F0CEC1DAF1CFC1DBF1F6
:10058800D0C1DCF1D1C1DDF1E3EC22F0DAC1C9F070
:10059800DBC1CAF00001CA5105E1640E0001C95D62
:1005A800D8A005D0000E0001CA6F640EC96F000103
:1005B800C9510001CA11D8A405D0000E0001CA6FA4
:1005C800000EC96FC9C0C0F1CAC0C1F10101C26B38
:1005D800C36B000E51EC1FF0C0C1D2F1C1C1D3F101
:1005E800C2C1D4F1C3C1D5F1C9C0C0F1CAC0C1F1FB
:1005F8000101C26BC36B000E51EC1FF0C0C1CEF1FC
:10060800C1C1CFF1C2C1D0F1C3C1D1F12FEC12F0F9
:10061800CEC1DAF2CFC1DBF2D0C1DCF2D1C1DDF25A
:100628000A0E0101D26FD70ED36F230ED46F3C0E82
:10063800D56FDAC2CEF1DBC2CFF1DCC2D0F1DDC2B8
:10064800D1F12FEC12F0CEC1DAF1CFC1DBF1D0C17C
:10065800DCF1D1C1DDF1E3EC22F0DAC170F1DBC1EC
:1006680071F1000E0101CE6F000ECF6FC80ED06F72
:10067800420ED16F70C1C0F171C1C1F10101C26BED
:10068800C36B000E51EC1FF0C0C1D2F1C1C1D3F150
:10069800C2C1D4F1C3C1D5F138EC20F00101D8B002
:1006A80005D0000E0101716F640E706F0001CEBF9E
:1006B80008D0780E0001CD5D050E0001CE59D8B0E6
:1006C80002D0190E53D00001CEBF08D0C40E0001CD
:1006D800CD5D090E0001CE59D8B002D0280E46D003
:1006E8000001CEBF08D0940E0001CD5D110E0001AF
:1006F800CE59D8B03AD03C0E0001CD250001916FFB
:10070800F60E0001CE210001926F000E0001946FD9
:100718000F0E936FB8EC28F091C097F092C098F044
:10072800070E00019A6FD00E996F66EC24F0280E20
:1007380000019727000E00019823000197C010F1CF
:10074800000198C011F10101000E11BFFF0E126FD8
:10075800136F01011351010112110101111105E17A
:10076800650E0101105DD8A009D0640E0101106F5B
:10077800000E116F000E126F000E136F0101705101
:100788000201C56F010171510201C66F0201C76BF9
:100798000201C86B0201C5510101105D0201C65179
:1007A800010111590201C751010112590201C85131
:1007B80001011359D8B004D010C170F111C171F101
:1007C80070C1C0F171C1C1F10101C26BC36B000EF0
:1007D80051EC1FF0C0C1CEF1C1C1CFF1C2C1D0F1FF
:1007E800C3C1D1F1000E0101D26F000ED36F200EEC
:1007F800D46F400ED56F2FEC12F0CEC14CF2CFC1A2
:100808004DF2D0C14EF2D1C14FF24CC2DAF14DC215
:10081800DBF14EC2DCF14FC2DDF1E3EC22F0DAC1CC
:10082800B1F0DBC1B2F00001B2BF08D00001B25193
:100838000AE1250E0001B15DD8B005D0000E000117
:10084800B26F240EB16F0001B2BF0BD00001B251DC
:1008580004E10001B129D8A004D0000E0001B26F54
:10086800B169000E01016F6F010E04D0000E010185
:100878006F6F000E6E6FD9C2F5FFD8C2F8FFD7C2EE
:10088800F7FFD6C2F6FFD5C2F4FFD4C2F3FFD3C236
:10089800DAFFD2C2D9FFD1C2E2FFD0C2E1FFCFC294
:1008A800EAFFCEC2E9FFCDC2FBFFCCC2FAFFCBC242
:1008B800E0FFCAC2E8FFC9C2D8FF5F901000C5EFC9
:1008C80024F0FACF7BF0FBCF7CF0E9CF7DF0EACFC4
:1008D8007EF0E1CF7FF0E2CF80F0D9CF81F0DACFA0
:1008E80082F0F3CF83F0F4CF84F0F6CF85F0F7CF22
:1008F80086F0F8CF87F0F5CF88F0F2B2F2A876D07C
:10090800F298F2920001C829D8B40BD09D909D822C
:10091800C2EC29F001C05CF102C05DF101015E6B1F
:100928005F6B01015C510101585D01015D510101DD
:10093800595901015E5101015A5901015B51800A5F
:100948000001756F01015F51800A00017559D8B027
:100958001FD0320E0001C8651BD08A8E000E01011F
:10096800996F010E986F000E0001C86F8C8E000EF3
:100978000101A56F000EA46FA4C1A6F1A5C1A7F13E
:10098800A6C1A8F1A7C1A9F1A8C1AAF1A9C1ABF153
:10099800D89001015C3501015C6F01015D350101F1
:1009A8005D6F01015E3501015E6F01015F35010177
:1009B8005F6F5CC158F15DC159F15EC15AF15FC109
:1009C8005BF11FEC28F0000E026E000E016E9DEC2C
:1009D8002AF09E909D80020E0001C819D8B48A9E04
:1009E800000E0101A76F010EA66FF288A1B2A0A2A6
:1009F800BDEF0FF0A092A19201019651010197114C
:100A0800D8B4E8EF09F091EC27F0C9EC25F04FECE9
:100A180029F098EC26F0A0EC29F001016A510101B7
:100A28006B11D8B495D094C180F20001BC51020179
:100A3800816FBBC082F286C183F290C184F200014B
:100A4800BE510201856FBDC086F28EC187F292C188
:100A580088F28AC189F2B5C08AF20001B129000181
:100A6800B211D8A405D0000E0001B26FFE0EB16F0E
:100A7800B1C08BF20001CE5102018C6FCDC08DF256
:100A8800B7C08EF29AC18FF29BC190F230C15AF072
:100A980031C15BF032C15CF033C15DF0E9EC23F0A9
:100AA8005A500201916FC3C092F2C4C093F28B8076
:100AB800800E036E020E046E140E056E400E066E56
:100AC800300EC3EC27F0000E0001C06FB1C003F078
:100AD800400E046E500E98EC28F00001C551D8A4C1
:100AE80007D0400E036E300EEDEC28F00001C06F09
:100AF8000001C52B0001C505D8A403D0000E0001D4
:100B0800C56F320E0001C019D8A412D00F0E036EA3
:100B1800400E046E300E56EC26F00201145101010D
:100B2800AD6FAC6B020115510101AC13ACC1F8F10A
:100B3800020E036E400E046E500E56EC26F014C2E0
:100B48009AF115C29BF1000E01016B6F000E6A6FDE
:100B5800000E4E6E400E4F6E9C0E506E450E516E3E
:100B6800CBC00FF0CCC010F0000E10BEFF0E116EFF
:100B7800126E010EABEC21F00FC052F010C053F012
:100B880011C054F012C055F015EC1CF04EC048F2DC
:100B98004FC049F250C04AF251C04BF248C21DF052
:100BA80049C21EF04AC21FF04BC220F0000E216E4F
:100BB800000E226E7A0E236E440E246E6DEC1AF02F
:100BC8001DC01CF11EC01DF11FC01EF120C01FF169
:100BD8001CC15AF01DC15BF01EC15CF01FC15DF065
:100BE800E9EC23F05AC0CDF05BC0CEF00001CEBFD7
:100BF8000AD0650E0001CD5D190E0001CE59D8A0AE
:100C080002D0410E1DD0000E526E000E536EC80E5B
:100C1800546E420E556E1CC14EF01DC14FF01EC1E0
:100C280050F01FC151F015EC1CF04EC05AF04FC0E7
:100C38005BF050C05CF051C05DF0E9EC23F05A5015
:100C48000001C76F0001CEBFAAD3BD0E0001CD5D64
:100C5800020E0001CE59D8A0A2D3000E0101ED6FFB
:100C6800000EEC6F72C175F073C176F00001751F4C
:100C7800761F754B762B0001C951000175250101BE
:100C8800826F0001CA51000176210101836F0101C1
:100C980083BF2ED00101835104E101018205D8A050
:100CA80027D082C10FF083C110F0000E10BEFF0ED6
:100CB800116E126E010EABEC21F00FC01DF010C0CA
:100CC8001EF011C01FF012C020F00A0E216ED70EC0
:100CD800226EA30E236E3C0E246E6DEC1AF01DC01E
:100CE80058F21EC059F21FC05AF220C05BF209D058
:100CF800000E0201586F000E596F000E5A6F000E59
:100D08005B6F58C23AF059C23BF05AC23CF05BC222
:100D18003DF0000E3E6E000E3F6EA00E406E3F0E80
:100D2800416EB3EC1DF03AC060F23BC061F23CC0CA
:100D380062F23DC063F2000E216EA00E226EAE0E6E
:100D4800236E440E246EB8C11DF0B9C11EF0BAC19D
:100D58001FF0BBC120F06DEC1AF01DC04EF01EC094
:100D68004FF01FC050F020C051F030C152F031C1D7
:100D780053F032C154F033C155F015EC1CF04EC09D
:100D880068F24FC069F250C06AF251C06BF2CD0EE2
:100D9800216ECC0E226E6C0E236E400E246EFDC1A9
:100DA8000FF0FEC110F0116A126A000EABEC21F0D0
:100DB8000FC01DF010C01EF011C01FF012C020F0AF
:100DC8006DEC1AF01DC04EF01EC04FF01FC050F061
:100DD80020C051F0000E526E000E536EC80E546EB5
:100DE800420E556E15EC1CF04EC064F24FC065F211
:100DF80050C066F251C067F268C24EF069C24FF047
:100E08006AC250F06BC251F0330E3E6E330E3F6E25
:100E18004B0E406E410E416E64C236F065C237F02B
:100E280066C238F067C239F038EC29F036C03AF0BB
:100E380037C03BF038C03CF039C03DF0B3EC1DF092
:100E48003AC052F03BC053F03CC054F03DC055F09E
:100E580015EC1CF04EC02CF14FC02DF150C02EF1F6
:100E680051C02FF12CC11DF02DC11EF02EC11FF055
:100E78002FC120F060C221F061C222F062C223F0CB
:100E880063C224F06DEC1AF01DC02CF11EC02DF1C8
:100E98001FC02EF120C02FF10001C105D8A407D032
:100EA8000001C205D8A40CD0A8EC16F009D0000E99
:100EB8000001AD6F000EAE6F000EAF6F000EB06F89
:100EC800660E216E260E226E960E236E430E246E3B
:100ED8002CC11DF02DC11EF02EC11FF02FC120F016
:100EE8006DEC1AF01DC03AF01EC03BF01FC03CF07C
:100EF80020C03DF0ADC03EF0AEC03FF0AFC040F006
:100F0800B0C041F0B3EC1DF03AC054F23BC055F20A
:100F18003CC056F23DC057F2000E0001A96F000E0A
:100F2800AA6F800EAB6F3F0EAC6FB5C00FF0B6C0A6
:100F380010F0000E10BEFF0E116E126E010EABEC1B
:100F480021F00FC01DF010C01EF011C01FF012C01C
:100F580020F0000E216E000E226EF00E236E410E60
:100F6800246E53EC22F0D8B055D0000E3E6E000E21
:100F78003F6E000E406E3F0E416E6F0E216E120ED8
:100F8800226E830E236E3B0E246EB5C00FF0B6C0E2
:100F980010F0000E10BEFF0E116E126E010EABECBB
:100FA80021F00FC01DF010C01EF011C01FF012C0BC
:100FB80020F06DEC1AF01DC036F01EC037F01FC0CF
:100FC80038F020C039F038EC29F036C03AF037C094
:100FD8003BF038C03CF039C03DF0B3EC1DF03AC0EE
:100FE8008DF03BC08EF03CC08FF03DC090F0A9C0A2
:100FF8003AF0AAC03BF0ABC03CF0ACC03DF08DC0AD
:101008003EF08EC03FF08FC040F090C041F0B3EC8E
:101018001DF01DD00001B6BF08D00001B6511FE178
:101028001E0E0001B55DD8B01AD0A9C03AF0AAC00A
:101038003BF0ABC03CF0ACC03DF0CD0E3E6ECC0EEC
:101048003F6ECC0E406E3D0E416EB3EC1DF03AC0C3
:10105800A9F03BC0AAF03CC0ABF03DC0ACF0000129
:10106800CEBF45D0F50E0001CD5D010E0001CE5971
:10107800D8A03DD0A9C03AF0AAC03BF0ABC03CF024
:10108800ACC03DF0FB0EF66EFF0EF76E0900F5CF13
:1010980021F00900F5CF22F00900F5CF23F00A006E
:1010A800F5CF24F0C9C00FF0CAC010F0116A126A57
:1010B800000EABEC21F00FC01DF010C01EF011C0E7
:1010C8001FF012C020F06DEC1AF01DC03EF01EC0DB
:1010D8003FF01FC040F020C041F0B3EC1DF03AC013
:1010E800A9F03BC0AAF03CC0ABF03DC0ACF0000199
:1010F800CEBF08D0E80E0001CD5D030E0001CE5929
:10110800D8B028D0010181BF25D00101815105E166
:10111800280E0101805DD8A01DD0A9C01DF0AAC06D
:101128001EF0ABC01FF0ACC020F0CD0E216ECC0E6F
:10113800226E8C0E236E3F0E246E53EC22F0D8B034
:1011480009D0CD0E0001A96FCC0EAA6F8C0EAB6F23
:101158003F0EAC6F9A0E1D6E990E1E6ED90E1F6E45
:101168003F0E206EA9C021F0AAC022F0ABC023F028
:10117800ACC024F053EC22F0D8B007D09A0E00018E
:10118800A96F990EAA6FD90E1AD0A9C01DF0AAC0CE
:101198001EF0ABC01FF0ACC020F0000E216E000E98
:1011A800226E400E236E3F0E246E53EC22F0D8B010
:1011B80009D0000E0001A96F000EAA6F400EAB6F98
:1011C8003F0EAC6F54C21DF055C21EF056C21FF040
:1011D80057C220F0A9C021F0AAC022F0ABC023F06A
:1011E800ACC024F06DEC1AF01DC0A5F01EC0A6F02E
:1011F8001FC0A7F020C0A8F0A5C01DF0A6C01EF013
:10120800A7C01FF0A8C020F0000E216E800E226E2D
:10121800BB0E236E440E246E53EC22F0D8B009D0D6
:10122800000E0001A56F800EA66FBB0EA76F440EBF
:101238001CD0000E1D6E000E1E6E7A0E1F6E460E1E
:10124800206EA5C021F0A6C022F0A7C023F0A8C038
:1012580024F053EC22F0D8B009D0000E0001A56F9D
:10126800000EA66F7A0EA76F460EA86FA5C01DF0D8
:10127800A6C01EF0A7C01FF0A8C020F0DEC221F053
:10128800DFC222F0E0C223F0E1C224F06DEC1AF0D4
:101298001DC038F11EC039F11FC03AF120C03BF122
:1012A800CBC00FF0CCC010F0000E10BEFF0E116EB8
:1012B800126E010EABEC21F00FC01DF010C01EF035
:1012C80011C01FF012C020F0660E216E660E226E4D
:1012D800260E236E410E246E6DEC1AF01DC018F117
:1012E8001EC019F11FC01AF120C01BF118C11DF052
:1012F80019C11EF01AC11FF01BC120F0A5C021F0B2
:10130800A6C022F0A7C023F0A8C024F053EC22F016
:10131800D8B03BD018C1A5F019C1A6F01AC1A7F0E2
:101328001BC1A8F0A5C034F1A6C035F1A7C036F19D
:10133800A8C037F138C13EF039C13FF03AC140F09A
:101348003BC141F034C136F035C137F036C138F011
:1013580037C139F038EC29F036C03AF037C03BF0E5
:1013680038C03CF039C03DF0B3EC1DF03AC05AF03B
:101378003BC05BF03CC05CF03DC05DF0E9EC23F0A5
:101388005AC08CF15BC08DF105D0000E01018D6F44
:10139800000E8C6F0F0E01017B6FA00E12D0000E95
:1013A8000101ED6F010EEC6F000E0001A56F400EFC
:1013B800A66F1C0EA76F460EA86F170E01017B6F54
:1013C800700E7A6FACEF0FF00001CEBF08D0F40EAC
:1013D8000001CD5D010E0001CE59D8B005D0000E38
:1013E8000001B26F240EB16F0001CEBF0DD0A10E67
:1013F8000001CD5D0F0E0001CE59D8A005D00F0E0B
:1014080001017B6FA00E7A6F0A0E216ED70E226E35
:10141800230E236E3C0E246E1CC11DF01DC11EF050
:101428001EC11FF01FC120F06DEC1AF01DC05AF04C
:101438001EC05BF01FC05CF020C05DF0E9EC23F03B
:101448005A500001C76FB8C11DF0B9C11EF0BAC12A
:101458001FF0BBC120F0000E216E000E226EF00EB0
:10146800236E410E246E53EC22F0D8B002D0000E49
:1014780045D0000E1D6E000E1E6EF00E1F6E420E41
:10148800206EB8C121F0B9C122F0BAC123F0BBC1A6
:1014980024F053EC22F0D8B002D0090E2FD0000E61
:1014A8003E6E000E3F6E400E406EC00E416E000E46
:1014B800526E000E536E200E546E410E556EB8C11A
:1014C8004EF0B9C14FF0BAC150F0BBC151F015ECA4
:1014D8001CF04EC03AF04FC03BF050C03CF051C039
:1014E8003DF0B3EC1DF03AC05AF03BC05BF03CC095
:1014F8005CF03DC05DF0E9EC23F05A500001C66F86
:10150800000E526E000E536EA00E546E400E556EB5
:10151800CBC00FF0CCC010F0000E10BEFF0E116E45
:10152800126E010EABEC21F00FC04EF010C04FF060
:1015380011C050F012C051F015EC1CF04EC05AF01A
:101548004FC05BF050C05CF051C05DF0E9EC23F097
:101558005AC0CBF05BC0CCF0CBC00FF0CCC010F0C1
:10156800000E10BEFF0E116E126E010EABEC21F0D4
:101578000FC052F010C053F011C054F012C055F013
:10158800A5C04EF0A6C04FF0A7C050F0A8C051F0BB
:1015980015EC1CF04EC05AF04FC05BF050C05CF028
:1015A80051C05DF0E9EC23F05AC076F15BC077F1E9
:1015B8000001C751040DEF0EF324F66EFE0EF42061
:1015C800F76E0900F5CF3EF00900F5CF3FF00900AE
:1015D800F5CF40F00A00F5CF41F076C10FF077C1A2
:1015E80010F0000E10BEFF0E116E126E010EABEC65
:1015F80021F00FC036F010C037F011C038F012C01B
:1016080039F038EC29F036C03AF037C03BF038C032
:101618003CF039C03DF0B3EC1DF03AC08DF03BC052
:101628008EF03CC08FF03DC090F08DC03AF08EC077
:101638003BF08FC03CF090C03DF0000E3E6E000EB7
:101648003F6E800E406EBF0E416EB3EC1DF03AC087
:10165800A1F03BC0A2F03CC0A3F03DC0A4F0A1C0E3
:101668001DF0A2C01EF0A3C01FF0A4C020F0000E01
:10167800216E000E226E800E236E3F0E246E53ECF8
:1016880022F0D8B01AD0A1C03AF0A2C03BF0A3C053
:101698003CF0A4C03DF0000E3E6E000E3F6E700E92
:1016A800406E420E416EB3EC1DF03AC0A1F03BC053
:1016B800A2F03CC0A3F03DC0A4F0A1C05AF0A2C063
:1016C8005BF0A3C05CF0A4C05DF0E9EC23F05AC065
:1016D800B9F05BC0BAF03B0E0001B9190001BA11AC
:1016E800D8B40BD00001BABF0DD00001BA5105E142
:1016F8003C0E0001B95DD8A005D0000E0001BA6FFC
:101708003A0E12D01D0E0001B9190001BA11D8B451
:1017180007D01E0E0001B9190001BA11D8A405D0CE
:10172800000E0001BA6F1C0EB96FA1C03EF0A2C036
:101738003FF0A3C040F0A4C041F0B9C00FF0BAC058
:1017480010F0000E10BEFF0E116E126E010EABEC03
:1017580021F00FC036F010C037F011C038F012C0B9
:1017680039F038EC29F036C03AF037C03BF038C0D1
:101778003CF039C03DF0B3EC1DF03AC01DF03BC061
:101788001EF03CC01FF03DC020F0CBC00FF0CCC015
:1017980010F0000E10BEFF0E116E126E010EABECB3
:1017A80021F00FC021F010C022F011C023F012C0A8
:1017B80024F06DEC1AF01DC020F11EC021F11FC0ED
:1017C80022F120C023F1000E1D6E000E1E6E000EC9
:1017D8001F6E000E206E8CC10FF08DC110F0000E30
:1017E80010BEFF0E116E126E010EABEC21F00FC091
:1017F80021F010C022F011C023F012C024F053ECE5
:1018080022F0D8B092D00001CEBF8FD0290E0001AF
:10181800CD5D0A0E0001CE59D8A087D08CC107F043
:101828008DC108F0CBC009F0CCC00AF0DAEC26F084
:1018380007C074F108C075F174C10FF075C110F0DC
:10184800000E10BEFF0E116E126E010EABEC21F0F1
:101858000FC036F010C037F011C038F012C039F0A0
:1018680038EC29F036C03AF037C03BF038C03CF0CD
:1018780039C03DF0A1C03EF0A2C03FF0A3C040F087
:10188800A4C041F0B3EC1DF03AC00CF13BC00DF11F
:101898003CC00EF13DC00FF10CC11DF00DC11EF092
:1018A8000EC11FF00FC120F0000E216E000E226E37
:1018B800800E236E3F0E246E53EC22F0D8B009D070
:1018C800000E01010C6F000E0D6F800E0E6F3F0EA3
:1018D8000F6F000E1D6E000E1E6EE00E1F6E410E85
:1018E800206E0CC121F00DC122F00EC123F00FC1F2
:1018F80024F053EC22F0D8B009D0000E01010C6F8F
:10190800000E0D6FE00E0E6F410E0F6F0CC15AF0F6
:101918000DC15BF00EC15CF00FC15DF0E9EC23F086
:101928005AC08AF15BC08BF105D0000E01018B6FA4
:10193800000E8A6F000E526E000E536EC80E546E63
:10194800420E556E0001C751280D4F0E0001756FEC
:10195800EA0E0001766FF35000017527F45000017C
:1019680076230001C651040DF35000017527F45089
:101978000001762375C0F6FF76C0F7FF0900F5CFA2
:1019880021F00900F5CF22F00900F5CF23F00A0075
:10199800F5CF24F0FDC177F0FEC178F00001771F84
:1019A800781F774B782B640E00017727000E782379
:1019B80077C00FF078C010F0116A126A000EABEC15
:1019C80021F00FC01DF010C01EF011C01FF012C092
:1019D80020F06DEC1AF01DC04EF01EC04FF01FC075
:1019E80050F020C051F015EC1CF04EC03AF04FC03A
:1019F8003BF050C03CF051C03DF00001C751280DEC
:101A08009F0E0001796FF40E00017A6FF350000108
:101A18007927F45000017A230001C651040DF350D0
:101A280000017927F45000017A2379C0F6FF7AC0C3
:101A3800F7FF0900F5CF21F00900F5CF22F00900E2
:101A4800F5CF23F00A00F5CF24F0000E046E640EE3
:101A5800036EFDC101F0FEC102F04BEC28F001C09D
:101A68000FF002C010F0116A126A000EABEC21F000
:101A78000FC01DF010C01EF011C01FF012C020F0E2
:101A88006DEC1AF01DC03EF01EC03FF01FC040F0C4
:101A980020C041F0B3EC1DF03AC050F23BC051F207
:101AA8003CC052F23DC053F27AC101F07BC102F052
:101AB800CBC003F0CCC004F04BEC28F001C076F1A9
:101AC80002C077F176C10FF077C110F0000E10BE9A
:101AD800FF0E116E126E010EABEC21F00FC036F046
:101AE80010C037F011C038F012C039F038EC29F0C6
:101AF80036C03AF037C03BF038C03CF039C03DF052
:101B080050C23EF051C23FF052C240F053C241F0C1
:101B1800B3EC1DF03AC014F13BC015F13CC016F10E
:101B28003DC017F114C11DF015C11EF016C11FF0FC
:101B380017C120F0000E216E000E226E800E236E5B
:101B48003F0E246E53EC22F0D8B01AD014C13AF0EC
:101B580015C13BF016C13CF017C13DF0000E3E6EBA
:101B6800000E3F6E700E406E420E416EB3EC1DF0DB
:101B78003AC014F13BC015F13CC016F13DC017F155
:101B880014C15AF015C15BF016C15CF017C15DF0C5
:101B9800E9EC23F05AC0B3F05BC0B4F03B0E00018F
:101BA800B3190001B411D8B40BD00001B4BF0DD0E3
:101BB8000001B45105E13C0E0001B35DD8A005D089
:101BC800000E0001B46F3A0E12D01D0E0001B319B9
:101BD8000001B411D8B407D01E0E0001B3190001DA
:101BE800B411D8A405D0000E0001B46F1C0EB36F59
:101BF80014C13EF015C13FF016C140F017C141F0C5
:101C0800B3C00FF0B4C010F0000E10BEFF0E116E7E
:101C1800126E010EABEC21F00FC036F010C037F099
:101C280011C038F012C039F038EC29F036C03AF05B
:101C380037C03BF038C03CF039C03DF0B3EC1DF084
:101C48003AC01DF03BC01EF03CC01FF03DC020F064
:101C5800CBC00FF0CCC010F0000E10BEFF0E116EFE
:101C6800126E010EABEC21F00FC021F010C022F073
:101C780011C023F012C024F06DEC1AF01DC024F13D
:101C88001EC025F11FC026F120C027F120C11DF07C
:101C980021C11EF022C11FF023C120F0000E216EC9
:101CA800000E226E200E236E410E246E53EC22F09D
:101CB800D8B009D0000E0101206F000E216F200E50
:101CC800226F410E236F24C11DF025C11EF026C1CD
:101CD8001FF027C120F0000E216E000E226E200E8C
:101CE800236E410E246E53EC22F0D8B009D0000EBA
:101CF8000101246F000E256F200E266F410E276FFD
:101D08009DC01DF09EC01EF09FC01FF0A0C020F017
:101D1800000E216E000E226E7A0E236EC40E246E03
:101D280053EC22F0D8A00BD00001CEBF1FD0A30ED9
:101D38000001CD5D170E0001CE59D8A017D0000EB6
:101D48000001BA6FC80EB96F000E0101206F000EB6
:101D5800216F000E226F000E236F000E0001A56F89
:101D6800000EA66F000EA76F000EA86FB3C094F107
:101D7800B4C095F1B9C090F1BAC091F124C14EF048
:101D880025C14FF026C150F027C151F0000E526E08
:101D9800000E536E500E546E420E556E15EC1CF02C
:101DA8004EC024F14FC025F150C026F151C027F193
:101DB80024C11DF025C11EF026C11FF027C120F047
:101DC800000E216E000E226E800E236E3F0E246ED2
:101DD80053EC22F0D8B009D0000E0101246F000E98
:101DE800256F800E266F3F0E276F20C11DF021C181
:101DF8001EF022C11FF023C120F0000E216E000E3C
:101E0800226E800E236E3F0E246E53EC22F0D8B063
:101E180009D0000E0101206F000E216F800E226F85
:101E28003F0E236F24C15AF025C15BF026C15CF038
:101E380027C15DF0E9EC23F0D8905A340101926F84
:101E48005B340101936F20C15AF021C15BF022C1BC
:101E58005CF023C15DF0E9EC23F05AC0BDF05BC033
:101E6800BEF07AC101F07BC102F0000E046E340EA0
:101E7800036E4BEC28F001C07AF102C07BF17AC105
:101E88008EF17BC18FF1000E526E000E536EA00EC4
:101E9800546E420E556E000E216E000E226EC80E54
:101EA800236E420E246EA5C01DF0A6C01EF0A7C06A
:101EB8001FF0A8C020F06DEC1AF01DC04EF01EC037
:101EC8004FF01FC050F020C051F015EC1CF04EC070
:101ED80089F04FC08AF050C08BF051C08CF089C097
:101EE8001DF08AC01EF08BC01FF08CC020F028C1E6
:101EF80021F029C122F02AC123F02BC124F06DEC76
:101F08001AF01DC0A5F01EC0A6F01FC0A7F020C083
:101F1800A8F0A5C05AF0A6C05BF0A7C05CF0A8C0A6
:101F28005DF0E9EC23F05AC0BBF05BC0BCF081B2B5
:101F380005D0000E0001BC6F000EBB6F000E010142
:101F4800A56F010EA46F000E01016B6F010E6A6F81
:101F5800000E0101A96F010EA86F01019651010140
:101F68009711D8A402D0010E01D0000E0101966F7E
:101F7800976B88C0F5FF87C0F8FF86C0F7FF85C05C
:101F8800F6FF84C0F4FF83C0F3FF82C0DAFF81C08C
:101F9800D9FF80C0E2FF7FC0E1FF7EC0EAFF7DC0BD
:101FA800E9FF7CC0FBFF7BC0FAFF5F9211000001D4
:101FB8009451800B0001996F000194519425000100
:101FC8009B6F000193AF02D000019B8100019B51E0
:101FD8000001D8B412D000019B29D8A409D0000E62
:101FE8000001916F000E926F000E936F000E946FB8
:101FF8000001938F000E000108D0000E0001916FC0
:10200800000E926F000E936F000E946F00019851AE
:10201800800B00019A6F0001995100019A19D8B4F8
:1020280002D00001998D00019851982500019A6FFE
:10203800000197AF02D000019A8100019A51000176
:10204800D8B412D000019A29D8A409D0000E0001F2
:10205800956F000E966F000E976F000E986F000137
:10206800978F000E000108D0000E0001956F000E3A
:10207800966F000E976F000E986F00019B5100013C
:102088009A5DD8B024D0000199AD03D0800E00012C
:10209800991B9BC09CF09AC09BF09CC09AF091C081
:1020A8009CF095C091F09CC095F092C09CF096C0B1
:1020B80092F09CC096F093C09CF097C093F09CC09F
:1020C80097F094C09CF098C094F09CC098F0000ED3
:1020D80000019C6F00019B510101BC6FBD6B0101A8
:1020E800BC1FBD1FBC4BBD2B00019A510101BE6F27
:1020F800BF6B0101BC510101BE270101BD510101A6
:10210800BF230101BFBF3DD00101BF5105E11A0E38
:102118000101BE5DD8A035D0000191510001921196
:102128000001931100019411D8B402D0010E01D01E
:10213800000E00019C6F000E0001916F000E926F5F
:10214800000E936F000E946F9AC09BF020D0000190
:102158009CA107D00001D8909C31010900019C6F17
:1021680003D00001D8909C33000191A102D0000156
:102178009C8F00019435943393339233913300014B
:102188009B2B00019A5100019B5DD8A0E0D700016C
:1021980099BD3FD000019B510001D8A40AD0000E80
:1021A8000001916F000E926F000E936F000E946FF6
:1021B800120000019551000191270001965100017C
:1021C80092230001975100019323000198510001C7
:1021D8009423000194A1CCD000019CA109D0000156
:1021E800D8909C3300019C51010900019C6F03D0D9
:1021F8000001D8909C33000191A102D000019C8F6E
:1022080000019435943393339233913300019B2B1F
:10221800AFD0000195510001915D00019651000178
:102228009259000197510001935900019451800A75
:102238000101BC6F00019851800A0101BC59D8B056
:1022480050D091C0BCF192C0BDF193C0BEF194C012
:10225800BFF10101BC1FBD1FBE1FBF1FBC2B000E5D
:10226800BD23BE23BF23000195510101BC250101F7
:10227800C06F000196510101BD210101C16F00012C
:1022880097510101BE210101C26F0001985101015E
:10229800BF210101C36FFF0E0101C0250001916F2D
:1022A800FF0E0101C1210001926FFF0E0101C22141
:1022B8000001936FFF0E0101C3210001946F800E8E
:1022C8000001991B00019C6D00019C510001D8A4DC
:1022D80018D0010E00019127000E92239323942316
:1022E80010D0000195510001915F00019651000145
:1022F800925B000197510001935B00019851000126
:10230800945B0001915100019211000193110001A9
:102318009411D8A42AD000019C510001D8A425D03A
:10232800000E0001916F000E926F000E936F000E69
:10233800946F12000001D8909137923793379437F1
:1023480000019CAF02D00001918100019CA103D043
:10235800D880000102D00001D8909C3700019B5121
:102368000001D8B402D000019B07000193AFE2D767
:10237800000E00019A6F00019CAF0DD09CC0BCF10B
:102388007F0E0101BC17D8A403D0000191A103D08E
:10239800010E00019A6F00019A510001D8B426D0AD
:1023A800010E00019127000E92239323942300012C
:1023B80094A11CD091C0BCF192C0BDF193C0BEF1F4
:1023C80094C0BFF10101BF35BF33BE33BD33BC3349
:1023D800BCC191F0BDC192F0BEC193F0BFC194F0F1
:1023E80000019B29D8B402D000019B2B00019B2936
:1023F800D8B405D000019B510001D8A411D0000E1B
:102408000001916F000E926F000E936F000E946F93
:1024180000019B510001D8A403D0000E0001996F60
:1024280000019BA103D00001938F02D00001939F6C
:102438000001D8909B310001946F000199AF02D040
:102448000001948F91C091F092C092F093C093F0E4
:1024580094C094F012000101D151800B0201B26FB7
:102468000101D151D1250201B86F0101D0AF02D0CD
:102478000201B8810201B8510201D8B410D002019A
:10248800B829D8A409D0000E0101CE6F000ECF6F75
:10249800000ED06F000ED16F0101D08F09D0000E51
:1024A8000101CE6F000ECF6F000ED06F000ED16FFE
:1024B8000101D551800B0201B21B0101D551D5256F
:1024C8000201B36F0101D4AF02D00201B38102014E
:1024D800B3510201D8B410D00201B329D8A409D04D
:1024E800000E0101D26F000ED36F000ED46F000EE4
:1024F800D56F0101D48F09D0000E0101D26F000EF3
:10250800D36F000ED46F000ED56F0201B3510201D4
:10251800D8B405D00201B8510201D8A40AD0000EDF
:102528000101CE6F000ECF6F000ED06F000ED16F7D
:1025380012000101D4510101CE03F3CFBDF2F4CF53
:10254800BEF20201BD510201B46FB56BB66BB76B39
:102558000201BE510201B96FBA6BBB6BBC6B0101C2
:10256800D3510101CF03F3CFBDF2F4CFBEF2020184
:10257800BD510201B427000EB523B623B7230201CB
:10258800BE510201B927000EBA23BB23BC230101A7
:10259800D2510101D003F3CFBDF2F4CFBEF2020154
:1025A800BD510201B427000EB523B623B72302019B
:1025B800BE510201B927000EBA23BB23BC23B6C201
:1025C800B7F2B5C2B6F2B4C2B5F20201B46B0101FA
:1025D800D2510101CF03F3CFBDF2F4CFBEF2020115
:1025E800BD510201B4270201BE510201B523000EFC
:1025F8000201B623000E0201B7230101D3510101E4
:10260800CE03F3CFBDF2F4CFBEF20201BD510201F9
:10261800B4270201BE510201B523000E0201B62300
:10262800000E0201B723B6C2B7F2B5C2B6F2B4C201
:10263800B5F20201B46B0101D2510101CE03F3CF0F
:10264800BDF2F4CFBEF20201BD510201B42702016E
:10265800BE510201B523000E0201B623000E02018D
:10266800B7230101D4510101CF03F3CFBDF2F4CF59
:10267800BEF20201BD510201B9270201BE51020199
:10268800BA23000E0201BB23000E0201BC23010184
:10269800D3510101D003F3CFBDF2F4CFBEF2020152
:1026A800BD510201B9270201BE510201BA23000E31
:1026B8000201BB23000E0201BC230101D451010118
:1026C800D003F3CFBDF2F4CFBEF20201BD51010138
:1026D800D66F0201BE510101D76F0101D86B01010C
:1026E800D96BD8C1D9F1D7C1D8F1D6C1D7F1010179
:1026F800D66B0101D6510201B9270101D751020158
:10270800BA230101D8510201BB230101D9510201A9
:10271800BC23B4C2D6F1B5C2D7F1B6C2D8F1B7C29C
:10272800D9F1190E06D00101D890D933D833D7334F
:10273800D633E82EF8D70101D6510201B927010195
:10274800D7510201BA230101D8510201BB2301016B
:10275800D9510201BC23B6C2B7F2B5C2B6F2B4C2AF
:10276800B5F20201B46B0201B351B8C2D6F101014E
:10277800D76B0101D627000ED723820E0101D6257B
:102788000201BD6FFF0E0101D7210201BE6F15D0F6
:102798000201D890B937BA37BB37BC370201B7AF97
:1027A80002D00201B9810201D890B437B537B637E3
:1027B800B7370201BD07D8A0BE070201BBAFE8D7F3
:1027C800000E0201B36F0201B7AF24D0FF0E020161
:1027D800B4150101D66FFF0E0201B5150101D76FBF
:1027E800FF0E0201B6150101D86F7F0E0201B71561
:1027F8000101D96F0101D6510101D7110101D81189
:102808000101D911D8A403D00201B9A103D0010E46
:102818000201B36F0201B3510201D8B423D0010EF3
:102828000201B927000EBA23BB23BC230201BCA1B5
:1028380019D0B9C2D6F1BAC2D7F1BBC2D8F1BCC25D
:10284800D9F10101D935D933D833D733D633D6C1E5
:10285800B9F2D7C1BAF2D8C1BBF2D9C1BCF20201F0
:10286800BD4BBE2B0201BEBF10D00201BE5104E118
:102878000201BD29D8A009D0000E0201B96F000ECF
:10288800BA6F800EBB6F7F0E2BD00201BEBF07D080
:102898000201BE5111E10201BD05D8B00DD0000EF4
:1028A8000201B96F000EBA6F000EBB6F000EBC6F4D
:1028B800000E0201B26F15D0BDC2B8F2FF0E0201C0
:1028C800B917FF0EBA177F0EBB17000EBC1702010F
:1028D800B8A102D00201BB8F0201D890B831020121
:1028E800BC6F0201B2510201BC13B9C2CEF1BAC227
:1028F800CFF1BBC2D0F1BCC2D1F11200A4704D40DF
:10290800F6284C40713D4A40C3F548403D0A4740CF
:10291800B81E45400AD7434085EB4140D7A3404005
:1029280052B83E40A4703D40F6283C40713D3A40C4
:10293800C3F538403D0A37408FC23540E17A34400C
:102948005C8F3240AE4731400000304052B82E40D4
:10295800CDCC2C401F852B40713D2A40C3F5284023
:1029680014AE27408FC22540E17A244033332340F8
:1029780085EB2140D7A32040295C1F407B141E40D3
:10298800CDCC1C401F851B40713D1A40C3F5184033
:1029980014AE174066661640B81E15400AD7134095
:1029A8005C8F1240AE47114000001040295C0F4078
:1029B8007B140E40CDCC0C401F850B40713D0A4066
:1029C8009A990940EC5108403D0A07408FC20540DA
:1029D800B81E05400AD703405C8F024085EB0140D2
:1029E800D7A3004052B8FE3FA470FD3F48E1FA3F2C
:1029F800EC51F83F3D0AF73FE17AF43F3333F33FB8
:102A0800D7A3F03F7B14EE3FCDCCEC3F713DEA3FBE
:102A1800C3F5E83F6666E63FB81EE53F5C8FE23FD8
:102A2800AE47E13F0000E03FA470DD3FF628DC3F01
:102A38009A99D93FEC51D83F3D0AD73FE17AD43F24
:102A48003333D33FD7A3D03F295CCF3F7B14CE3F4E
:102A58001F85CB3F713DCA3FC3F5C83F14AEC73F82
:102A6800B81EC53F0AD7C33F5C8FC23F0000C03FB6
:102A780052B8BE3FA470BD3FF628BC3F48E1BA3FFC
:102A8800EC51B83F3D0AB73F8FC2B53FE17AB43F3A
:102A98003333B33F85EBB13F295CAF3F7B14AE3F87
:102AA800CDCCAC3F1F85AB3F713DAA3FC3F5A83FD6
:102AB80014AEA73F6666A63FB81EA53F0AD7A33F38
:102AC8005C8FA23F0000A03F52B89E3FA4709D3F7C
:102AD800F6289C3F48E19A3F9A99993FEC51983FD4
:102AE8003D0A973F8FC2953F8FC2953FE17A943F49
:102AF8003333933F85EB913FD7A3903F295C8F3FBA
:102B08007B148E3FCDCC8C3F1F858B3F713D8A3F18
:102B1800C3F5883F14AE873F14AE873F6666863F8D
:102B2800B81E853F0AD7833F5C8F823FAE47813FFF
:102B38000000803F0000803FA4707D3F48E17A3F5D
:102B4800EC51783F8FC2753FBB01AE01A601A001D1
:102B58009C0198019501920190018E018C018A01D6
:102B68008901870186018501830182018101800134
:102B78007F017E017D017C017B017A017A01790167
:102B88007801770177017601750175017401730188
:102B98007301720171017101700170016F016F01A0
:102BA8006E016E016D016D016C016C016B016B01B1
:102BB8006A016A01690169016901680168016701BF
:102BC80067016601660166016501650164016401CA
:102BD80064016301630163016201620161016101D2
:102BE80061016001600160015F015F015F015E01D9
:102BF8005E015E015D015D015D015C015C015C01DE
:102C08005B015B015B015A015A015A0159015901E3
:102C180059015801580158015701570157015701E7
:102C280056015601560155015501550154015401EB
:102C380054015401530153015301520152015201ED
:102C480051015101510150015001500150014F01F2
:102C58004F014F014E014E014E014D014D014D01F5
:102C68004D014C014C014C014B014B014B014A01F8
:102C78004A014A014A0149014901490148014801FB
:102C88004801470147014701460146014601450100
:102C98004501450144014401440143014301430105
:102CA800420142014201410141014101400140010B
:102CB80040013F013F013E013E013E013D013D0112
:102CC8003D013C013C013B013B013B013A013A011A
:102CD8003901390138013801380137013701360126
:102CE8003601350135013401340133013301320134
:102CF800320131013101300130012F012E012E0145
:102D08002D012C012C012B012A012A01290128015E
:102D18002701270126012501240123012201210180
:102D280020011F011E011C011B011A0118011701B6
:102D38001501130111010F010C0109010501010120
:102D4800FB00F300E60000000001C3510F6E106A9B
:102D5800116A126A000EABEC21F00FC01DF010C012
:102D68001EF011C01FF012C020F0090E216E280EAF
:102D7800226EA00E236E3C0E246E6DEC1AF01DC060
:102D880040F11EC041F11FC042F120C043F140C1D3
:102D980036F041C137F042C138F043C139F038EC60
:102DA80029F036C03AF037C03BF038C03CF039C0A3
:102DB8003DF0000E3E6E000E3F6E800E406E3F0EE0
:102DC800416EB3EC1DF03AC050F13BC051F13CC02C
:102DD80052F13DC053F10001CEBF2FD0C50E000106
:102DE800CD5D090E0001CE59D8A027D0320E0A6E4B
:102DF800320E096ECDC007F0CEC008F0DAEC26F02E
:102E080007C00FF008C010F0000E10BEFF0E116EC4
:102E1800126E010EABEC21F00FC0E0F110C0E1F131
:102E280011C0E2F112C0E3F1E0C1E8F1E1C1E9F15A
:102E3800E2C1EAF1E3C1EBF112D0290E0101E06F22
:102E48005C0EE16F8F0EE26F3D0EE36F290E0101FC
:102E5800E86F5C0EE96F8F0EEA6F3D0EEB6FE8C10D
:102E68001DF0E9C11EF0EAC11FF0EBC120F050C10E
:102E780021F051C122F052C123F053C124F06DEC6E
:102E88001AF01DC04CF11EC04DF11FC04EF120C0FC
:102E98004FF1000E4E6E000E4F6EF00E506E420E49
:102EA800516ECDC00FF0CEC010F0000E10BEFF0E58
:102EB800116E126E010EABEC21F00FC052F010C073
:102EC80053F011C054F012C055F015EC1CF04EC070
:102ED80054F14FC055F150C056F151C057F154C18B
:102EE80021F055C122F056C123F057C124F0E0C1AA
:102EF8001DF0E1C11EF0E2C11FF0E3C120F06DEC4E
:102F08001AF01DC06DF01EC06EF01FC06FF020C01B
:102F180070F06DC021F06EC022F06FC023F070C059
:102F280024F03CC13EF03DC13FF03EC140F03FC1FE
:102F380041F050C13AF051C13BF052C13CF053C18D
:102F48003DF0B3EC1DF03AC01DF03BC01EF03CC094
:102F58001FF03DC020F06DEC1AF01DC071F01EC0CE
:102F680072F01FC073F020C074F071C03AF072C0E4
:102F78003BF073C03CF074C03DF044C13EF045C125
:102F88003FF046C140F047C141F0B3EC1DF03AC0F4
:102F980048F13BC049F13CC04AF13DC04BF14CC13E
:102FA8003AF04DC13BF04EC13CF04FC13DF048C135
:102FB8003EF049C13FF04AC140F04BC141F0B3EC8B
:102FC8001DF03AC0ADF03BC0AEF03CC0AFF03DC024
:102FD800B0F0ADC01DF0AEC01EF0AFC01FF0B0C065
:102FE80020F0000E216E000E226E7A0E236E440E23
:102FF800246E6DEC1AF01DC0ADF01EC0AEF01FC0FF
:10300800AFF020C0B0F038C14EF039C14FF03AC12E
:1030180050F03BC151F0000E526E000E536E200E60
:10302800546E410E556E15EC1CF04EC0F9F14FC0B0
:10303800FAF150C0FBF151C0FCF1F9C11DF0FAC121
:103048001EF0FBC11FF0FCC120F0000E216E000E27
:10305800226E800E236EBF0E246E6DEC1AF01DC01A
:10306800E4F11EC0E5F11FC0E6F120C0E7F1F9C1A7
:103078001DF0FAC11EF0FBC11FF0FCC120F0ADC06D
:1030880021F0AEC022F0AFC023F0B0C024F053EC62
:1030980022F0D8B009D0F9C1ADF0FAC1AEF0FBC149
:1030A800AFF0FCC1B0F01CD0ADC01DF0AEC01EF03A
:1030B800AFC01FF0B0C020F0E4C121F0E5C122F09C
:1030C800E6C123F0E7C124F053EC22F0D8B008D0D1
:1030D800E4C1ADF0E5C1AEF0E6C1AFF0E7C1B0F0D4
:1030E80050C13CF151C13DF152C13EF153C13FF1D4
:1030F80048C144F149C145F14AC146F14BC147F1C4
:10310800ADC078F2AEC079F2AFC07AF2B0C07BF24F
:1031180012000101D151800B0201B26F0101D1519E
:10312800D1250201BD6F0101D0AF02D00201BD81DE
:103138000201BD510201D8B412D00201BD29D8A4A0
:1031480009D0000E0101CE6F000ECF6F000ED06FB8
:10315800000ED16F0101D08F000E010108D0000EC2
:103168000101CE6F000ECF6F000ED06F000ED16F31
:103178000101D551800B0201B21B0101D551D525A2
:103188000201BE6F0101D4AF02D00201BE8102016B
:10319800BE510201D8B412D00201BE29D8A409D068
:1031A800000E0101D26F000ED36F000ED46F000E17
:1031B800D56F0101D48F000E010108D0000E010166
:1031C800D26F000ED36F000ED46F000ED56F0101C1
:1031D800D2510101D3110101D4110101D511D8A493
:1031E80017D0000E0101CE6F000ECF6F000ED06F0A
:1031F800000ED16F0101800ED0137F0ED113CEC106
:10320800CEF1CFC1CFF1D0C1D0F1D1C1D1F11200EF
:103218000201BD510201D8A412D0000E0101CE6FE7
:10322800000ECF6F000ED06F000ED16FCEC1CEF161
:10323800CFC1CFF1D0C1D0F1D1C1D1F1120002017B
:10324800BE510101D66FD76B0101D61FD71FD64BD0
:10325800D72B0201BD510101D86FD96B0101D6519D
:103268000101D8270101D7510101D9237F0E01019E
:10327800D8250201B76F000E0101D9210201B86FEC
:10328800CEC1B3F2CFC1B4F2D0C1B5F2D1C1B6F25A
:10329800000E0101CE6F000ECF6F000ED06F000E32
:1032A800D16F000E0201B96F000EBA6F000EBB6F2E
:1032B800000EBC6F000E0201BE6F42D00201BE516B
:1032C8000201D8B417D00201D890B337B437B53754
:1032D800B6370101D890CE37CF37D037D137020172
:1032E800BCAF02D00101CE810201D890B937BA37FC
:1032F800BB37BC370101D2510201B35D0101D35183
:103308000201B4590101D4510201B5590101D55145
:103318000201B659D8A012D00201BC8D0101D251C8
:103328000201B35F0101D3510201B45B0101D45121
:103338000201B55B0101D5510201B65B0201BE2B4A
:10334800190E0201BE65BAD70201B3510201B411C8
:103358000201B5110201B611D8B418D00201B98121
:1033680015D00101D890CE37CF37D037D1370201E9
:10337800BCAF02D00101CE810201D890B937BA376B
:10338800BB37BC370201B707D8A0B8070101D0AFD7
:10339800E8D7000E0201BE6F0201BCAF24D0FF0EB9
:1033A8000201B9150101D66FFF0E0201BA1501011C
:1033B800D76FFF0E0201BB150101D86F7F0E020106
:1033C800BC150101D96F0101D6510101D7110101C5
:1033D800D8110101D911D8A403D00101CEA103D07D
:1033E800010E0201BE6F0201BE510201D8B423D002
:1033F800010E0101CE27000ECF23D023D1230101D6
:10340800D1A119D0CEC1D6F1CFC1D7F1D0C1D8F151
:10341800D1C1D9F10101D935D933D833D733D6330E
:10342800D6C1CEF1D7C1CFF1D8C1D0F1D9C1D1F130
:103438000201B74BB82B0201B8BF14D00201B85132
:1034480004E10201B729D8A00DD0000E0201B86F1F
:10345800B769000E0101CE6F000ECF6F000ED06F5E
:10346800000ED16F0201B8BF07D00201B85115E1B3
:103478000201B705D8B011D0000E0201B86F000ED6
:10348800B76F000E0101CE6F000ECF6F000ED06F28
:10349800000ED16F000E0201B26FB7C2BDF2020179
:1034A800BDA103D00101D08F02D00101D09F02013C
:1034B800D890BD310101D16F0201B2510101D11380
:1034C800CEC1CEF1CFC1CFF1D0C1D0F1D1C1D1F1B0
:1034D80012002050800B296E205020242F6E1FBE12
:1034E8002F802F50D8B40DD02F28D8A408D0000E84
:1034F8001D6E000E1E6E000E1F6E000E206E1F8EBB
:1035080008D0000E1D6E000E1E6E000E1F6E000EFF
:10351800206E2450800B291A245024242A6E23BE9E
:103528002A802A50D8B40DD02A28D8A408D0000E52
:10353800216E000E226E000E236E000E246E238E66
:1035480008D0000E216E000E226E000E236E000EB3
:10355800246E2A50D8B403D02F50D8A409D0000E16
:103568001D6E000E1E6E000E1F6E000E206E1200E5
:1035780023501D02F3CF34F0F4CF35F034502B6EC6
:103588002C6A2D6A2E6A3550306E316A326A336A77
:1035980022501E02F3CF34F0F4CF35F034502B26EE
:1035A800000E2C222D222E2235503026000E3122DC
:1035B8003222332221501F02F3CF34F0F4CF35F0FA
:1035C80034502B26000E2C222D222E223550302648
:1035D800000E3122322233222DC02EF02CC02DF0C5
:1035E8002BC02CF02B6A21501E02F3CF34F0F4CFFD
:1035F80035F034502B2635502C22000E2D22000E8B
:103608002E2222501D02F3CF34F0F4CF35F034507F
:103618002B2635502C22000E2D22000E2E222DC0D6
:103628002EF02CC02DF02BC02CF02B6A21501D023F
:10363800F3CF34F0F4CF35F034502B2635502C220C
:10364800000E2D22000E2E2223501E02F3CF34F03E
:10365800F4CF35F03450302635503122000E322266
:10366800000E332222501F02F3CF34F0F4CF35F08E
:103678003450302635503122000E3222000E3322CB
:1036880023501F02F3CF34F0F4CF35F03450256EB9
:103698003550266E276A286A27C028F026C027F0EA
:1036A80025C026F0256A255030262650312227507D
:1036B8003222285033222BC025F02CC026F02DC0F2
:1036C80027F02EC028F0190E05D0D89028322732BE
:1036D80026322532E82EF9D72550302626503122B9
:1036E80027503222285033222DC02EF02CC02DF026
:1036F8002BC02CF02B6A2A502FC025F0266A2526CD
:10370800000E2622820E2524346EFF0E2620356EEA
:103718000FD0D89030363136323633362EBE308020
:10372800D8902B362C362D362E363406D8A03506B2
:1037380032AEEFD7000E2A6E2EAE16D0FF0E2B1427
:10374800256EFF0E2C14266EFF0E2D14276E7F0E8D
:103758002E14286E2550261027102810D8A402D021
:1037680030A002D0010E2A6E2A50D8B41FD0010E04
:103778003026000E31223222332233A017D030C037
:1037880025F031C026F032C027F033C028F02834A5
:10379800283227322632253225C030F026C031F0B3
:1037A80027C032F028C033F0344A352A35BE0DD050
:1037B800355003E13428D8A008D0000E306E000E32
:1037C800316E800E326E7F0E20D035BE05D035505A
:1037D8000EE13404D8B00BD0000E306E000E316EFE
:1037E800000E326E000E336E000E296E0FD034C0FC
:1037F8002FF0FF0E3016FF0E31167F0E3216000E18
:1038080033162FB0328ED8902F30336E29503312A2
:1038180030C01DF031C01EF032C01FF033C020F0A0
:1038280012005150800B0001606F5150512400016B
:103838006B6F50AE02D000016B8100016B5100012B
:10384800D8B40ED000016B29D8A408D0000E4E6E53
:10385800000E4F6E000E506E000E516E508E06D048
:10386800000E4E6E000E4F6E000E506E000E516E22
:103878005550800B0001601B5550552400016C6F9A
:1038880054AE02D000016C8100016C510001D8B423
:103898000ED000016C29D8A408D0000E526E000E7C
:1038A800536E000E546E000E556E548E06D0000EE8
:1038B800526E000E536E000E546E000E556E52502E
:1038C800531054105510D8A415D0000E4E6E000E8B
:1038D8004F6E000E506E000E516E800E50127F0E0D
:1038E80051124EC04EF04FC04FF050C050F051C072
:1038F80051F0120000016B510001D8A411D0000E44
:103908004E6E000E4F6E000E506E000E516E4EC081
:103918004EF04FC04FF050C050F051C051F012005F
:1039280000016C51566E576A561E571E564A572A42
:1039380000016B51586E596A5650582657505922F3
:103948007F0E58240001656F000E59200001666F34
:103958004EC061F04FC062F050C063F051C064F0D7
:10396800000E4E6E000E4F6E000E506E000E516E21
:10397800000E0001676F000E686F000E696F000E81
:103988006A6F000E00016C6F37D000016C510001A6
:10399800D8B414D00001D8906137623763376437E0
:1039A800D8904E364F365036513600016ABF4E8099
:1039B8000001D8906737683769376A375250000175
:1039C800615D5350000162595450000163595550CC
:1039D80000016459D8A00ED000016A8D5250000130
:1039E800615F53500001625B54500001635B5550A6
:1039F8000001645B00016C2B190E00016C65C5D7D2
:103A0800000161510001621100016311000164119C
:103A1800D8B415D00001678112D0D8904E364F36F1
:103A28005036513600016ABF4E800001D890673782
:103A3800683769376A3700016507D8A0660750AE4E
:103A4800ECD7000E00016C6F00016AAF1BD0FF0EAF
:103A580000016715566EFF0E00016815576EFF0EC0
:103A680000016915586E7F0E00016A15596E56508F
:103A7800571058105910D8A402D04EA003D0010EE8
:103A880000016C6F00016C510001D8B420D0010E08
:103A98004E26000E4F225022512251A018D04EC05F
:103AA80056F04FC057F050C058F051C059F0593433
:103AB800593258325732563256C04EF057C04FF02E
:103AC80058C050F059C051F00001654B662B0001F9
:103AD80066BF13D00001665104E100016529D8A032
:103AE8000CD0000E0001666F6569000E4E6E000E68
:103AF8004F6E000E506E000E516E000166BF07D06B
:103B08000001665114E100016505D8B010D0000E1F
:103B18000001666F000E656F000E4E6E000E4F6E50
:103B2800000E506E000E516E000E0001606F65C0F1
:103B38006BF000016BA102D0508E01D0509E0001A5
:103B4800D8906B31516E0001605151124EC04EF049
:103B58004FC04FF050C050F051C051F012003D50CE
:103B6800800B4A6E3D503D244C6E3CBE4C804C5000
:103B7800D8B40DD04C28D8A408D0000E3A6E000E48
:103B88003B6E000E3C6E000E3D6E3C8E06D0000E65
:103B98003A6E000E3B6E000E3C6E000E3D6E4150BC
:103BA800800B4B6E4A504B18D8A44A8C4150412484
:103BB8004B6E40BE4B804B50D8B40DD04B28D8A488
:103BC80008D0000E3E6E000E3F6E000E406E000ED6
:103BD800416E408E06D0000E3E6E000E3F6E000E07
:103BE800406E000E416E4C504B5CD8B022D04AACAF
:103BF80002D0800E4A1A4CC04DF04BC04CF04DC05C
:103C08004BF03AC04DF03EC03AF04DC03EF03BC0DC
:103C18004DF03FC03BF04DC03FF03CC04DF040C0C0
:103C28003CF04DC040F03DC04DF041C03DF04DC0AE
:103C380041F0000E4D6E4C50426E436A421E431EC8
:103C4800424A432A4B50446E456A425044264350E8
:103C5800452245BE2CD0455004E11A0E445CD8A03C
:103C680026D03A503B103C103D10D8B402D0010E7B
:103C780001D0000E4D6E000E3A6E000E3B6E000E27
:103C88003C6E000E3D6E4BC04CF015D04DA005D0DB
:103C9800D8904D3001094D6E02D0D8904D323AB0CF
:103CA8004D8E3D343D323C323B323A324C2A4B50F9
:103CB8004C5CD8A0EBD74ABC29D04C50D8A409D02A
:103CC800000E3A6E000E3B6E000E3C6E000E3D6E0E
:103CD80012003E503A263F503B2240503C22415071
:103CE8003D223DA083D04DA006D0D8904D324D50F6
:103CF80001094D6E02D0D8904D323AB04D8E3D3408
:103D08003D323C323B323A324C2A70D03E503A5C1B
:103D18003F503B5840503C583D50800A426E4150FD
:103D2800800A4258D8B036D03AC042F03BC043F07F
:103D38003CC044F03DC045F0421E431E441E451E93
:103D4800422A000E4322442245223E504224466E17
:103D58003F504320476E40504420486E4150452014
:103D6800496EFF0E46243A6EFF0E47203B6EFF0E4B
:103D780048203C6EFF0E49203D6E800E4A1A4D6C5D
:103D88004D50D8A40FD0010E3A26000E3B223C22FB
:103D98003D2208D03E503A5E3F503B5A40503C5A74
:103DA80041503D5A3A503B103C103D10D8A41CD00D
:103DB8004D50D8A419D0000E3A6E000E3B6E000E7E
:103DC8003C6E000E3D6E1200D8903A363B363C36BB
:103DD8003D364DBE3A804DA002D0D88001D0D89053
:103DE8004D364C50D8A44C063CAEEED7000E4B6E68
:103DF8004DAE0AD04DC042F07F0E4216D8A402D074
:103E08003AA002D0010E4B6E4B50D8B420D0010E10
:103E18003A26000E3B223C223D223DA018D03AC053
:103E280042F03BC043F03CC044F03DC045F045344F
:103E3800453244324332423242C03AF043C03BF04A
:103E480044C03CF045C03DF04C28D8A44C2A4C282E
:103E5800D8B403D04C50D8A40DD0000E3A6E000E42
:103E68003B6E000E3C6E000E3D6E4C50D8A402D046
:103E7800000E4A6E4CA002D03C8E01D03C9ED890D9
:103E88004C303D6E4ABE3D8E3AC03AF03BC03BF0E6
:103E98003CC03CF03DC03DF012000101C86F01017B
:103EA800C8510101D8B41ED00101C3AF1BD0C0C195
:103EB800C4F1C1C1C5F1C2C1C6F1C3C1C7F1010195
:103EC800C41FC51FC61FC71FC42B000EC523C6238A
:103ED800C723C4C1CAF1C5C1CBF1C6C1CCF1C7C1A2
:103EE800CDF108D0C0C1CAF1C1C1CBF1C2C1CCF17A
:103EF800C3C1CDF10101C0510101C1110101C211BC
:103F08000101C311D8A40AD0000E0101C06F000E30
:103F1800C16F000EC26F000EC36F1200960E010132
:103F2800C96F08D00101C92B0101D890CD33CC331A
:103F3800CB33CA33000E0101CA150101C46F000E4C
:103F48000101CB150101C56F000E0101CC1501015E
:103F5800C66FFE0E0101CD150101C76F0101C451E5
:103F68000101C5110101C6110101C711D8B410D052
:103F7800D9D70101C92B010E0101CA27000ECB2395
:103F8800CC23CD230101D890CD33CC33CB33CA33E6
:103F9800000E0101CA150101C46F000E0101CB1505
:103FA8000101C56F000E0101CC150101C66FFF0E9E
:103FB8000101CD150101C76F0101C4510101C511EE
:103FC8000101C6110101C711D8B409D0D2D7010126
:103FD800C9070101D890CA37CB37CC37CD37010193
:103FE800CCBF04D0020E0101C961F1D70101C9B1EA
:103FF80009D0FF0E0101CA17FF0ECB177F0ECC1791
:10400800FF0ECD170101D890C933C9C1C4F1010110
:10401800C56BC66BC76BC4C1C7F10101C66BC56B65
:10402800C46B0101C4510101CA130101C551010149
:10403800CB130101C6510101CC130101C751010184
:10404800CD130101C8510101D8B405D00101C3AF96
:1040580002D00101CD8FCAC1C0F1CBC1C1F1CCC121
:10406800C2F1CDC1C3F11200000E0101CE1501014C
:10407800D66F000E0101CF150101D76F800E010127
:10408800D0150101D86F7F0E0101D1150101D96F3B
:104098000101D6510101D7110101D8110101D9112E
:1040A800D8A409D0000E0101CE6F000ECF6F000E0C
:1040B800D06F000ED16F000E0101D2150101D66F2D
:1040C800000E0101D3150101D76F800E0101D4152F
:1040D8000101D86F7F0E0101D5150101D96F0101CA
:1040E800D6510101D7110101D8110101D911D8A464
:1040F80009D0000E0101D26F000ED36F000ED46FED
:10410800000ED56F0101D1AF26D0CEC1D6F1CFC1F7
:10411800D7F1D0C1D8F1D1C1D9F10101D61FD71F2C
:10412800D81FD91FD62B000ED723D823D923000E8A
:104138000101D6250101CE6F000E0101D721010131
:10414800CF6F000E0101D8210101D06F800E01014F
:10415800D9210101D16F0101D5AF26D0D2C1D6F145
:10416800D3C1D7F1D4C1D8F1D5C1D9F10101D61F36
:10417800D71FD81FD91FD62B000ED723D823D92352
:10418800000E0101D6250101D26F000E0101D721D1
:104198000101D36F000E0101D8210101D46F800EF7
:1041A8000101D9210101D56F000E0101CE1B000EBE
:1041B800CF1B000ED01B800ED11B000E0101D21B9D
:1041C800000ED31B000ED41B800ED51B0101D2514B
:1041D8000101CE5D0101D3510101CF590101D45133
:1041E8000101D0590101D5510101D159D8B002D0EE
:1041F800D8901200D8801200F3EC27F08D828A84C0
:104208008B8C8B828B848C928C9E000E0101956F17
:10421800C80E946F000E0101916FC80E906F000ECA
:104228000101936F000E926F000E0001BE6F000E29
:10423800BD6F000E0001BC6F000EBB6F000E0101C8
:104248008F6F000E8E6FFA0E01015C6FFF0E5D6FAF
:10425800000E5E6F000E5F6FFF0E0101586FFF0EBC
:10426800596F000E5A6F000E5B6F0001C869000E8F
:104278000001CE6F000ECD6F000E0101996F000E88
:10428800986F000E0201306F000E316F000E326F12
:10429800000E336F000E01016F6F000E6E6F000E7F
:1042A8000101976F000E966FD08EF1949F90A282B5
:1042B8009F927F908B8C8B92E00E0401026F000E10
:1042C800016FFDEC29F08B82420EE82EFED700D05C
:1042D8008B926A0EE82EFED700D08B82420EE82E13
:1042E800FED700D08B928B82420EE82EFED700D0EC
:1042F8008B921F0E0401026F000E016FFDEC29F076
:104308008B82420EE82EFED700D08B922A0E040133
:10431800026F0169FDEC29F08B823BEC2AF0F28EEA
:10432800F28C9D80F288E2EC29F08B808998FE0E51
:104338000401046FA70E0401036F650EE82EFED773
:10434800032FFCD7042FFAD700D0FFD7FFD7176E5B
:104358001750D8A412AE1AD00FC013F010C014F022
:1043680011C015F012C016F0131E141E151E161ECD
:10437800132A000E14221522162213C019F014C095
:104388001AF015C01BF016C01CF008D00FC019F0A9
:1043980010C01AF011C01BF012C01CF00F50101002
:1043A80011101210D8A409D0000E0F6E000E106E56
:1043B800000E116E000E126E1200960E186E06D0C8
:1043C800182AD8901C321B321A321932000E1914CE
:1043D800136E000E1A14146E000E1B14156EFE0ECA
:1043E8001C14166E1350141015101610D8B40DD0D6
:1043F800E7D7182A010E1926000E1A221B221C22A2
:10440800D8901C321B321A321932000E1914136E4E
:10441800000E1A14146E000E1B14156EFF0E1C14D9
:10442800166E1350141015101610D8B407D0E1D713
:104438001806D89019361A361B361C361BBE03D000
:10444800020E1860F5D718B008D0FF0E1916FF0E27
:104458001A167F0E1B16FF0E1C16D890183218C09D
:1044680013F0146A156A166A13C016F0156A146AEE
:10447800136A1350191214501A1215501B121650A1
:104488001C121750D8A412AE01D01C8E19C00FF000
:104498001AC010F01BC011F01CC012F01200000E60
:1044A8001D14256E000E1E14266E800E1F14276E16
:1044B8007F0E2014286E2550261027102810D8A407
:1044C80008D0000E1D6E000E1E6E000E1F6E000E30
:1044D800206E000E2114256E000E2214266E800E0A
:1044E8002314276E7F0E2414286E255026102710BB
:1044F8002810D8A408D0000E216E000E226E000EDF
:10450800236E000E246E20AE1DD01DC025F01EC0E7
:1045180026F01FC027F020C028F0251E261E271EC3
:10452800281E252A000E262227222822000E2524AE
:104538001D6E000E26201E6E000E27201F6E800E98
:104548002820206E24AE1DD021C025F022C026F0E0
:1045580023C027F024C028F0251E261E271E281E4B
:10456800252A000E262227222822000E2524216E25
:10457800000E2620226E000E2720236E800E282093
:10458800246E000E1D1A000E1E1A000E1F1A800E31
:10459800201A000E211A000E221A000E231A800E6D
:1045A800241A21501D5C22501E5823501F58245095
:1045B8002058D8B002D0D8901200D880120001013B
:1045C800DC35DD350101DF6F0101DF51D8A40AD0E8
:1045D800000E0101DA6F000EDB6F000EDC6F000EBB
:1045E800DD6F1200DAC1BFF2DBC1C0F2DCC1C1F27B
:1045F800DDC1C2F2200E06D00201D890C233C13309
:10460800C033BF33E82EF8D70201BF510101DE6F76
:104618000101DC8FFF0E0101DA17FF0EDB17FF0E19
:10462800DC17000EDD17960E0101DF5F0101DFAF19
:104638001AD00101DF51800A970FD8B00AD0000EB6
:104648000101DA6F000EDB6F000EDC6F000EDD6F0C
:1046580012000101D890DD33DC33DB33DA3301019A
:10466800DF3FF7D71BD01F0E0101DF6512D0000E08
:104678000101DA6F000EDB6F000EDC6F000EDD6FDC
:1046880012000101D890DA37DB37DC37DD3701015A
:10469800DF070101DF510101D8A4F3D70101DE5181
:1046A8000101D8B409D00101DD1FDC1FDB1FDA6D61
:1046B800000EDB23DC23DD23DAC1DAF1DBC1DBF119
:1046C800DCC1DCF1DDC1DDF112009A8E87827E7BD0
:1046D80079767473716F6E6D6B6A69686766656504
:1046E8006463626261605F5F5E5E5D5C5C5B5B5AD7
:1046F8005A5959585857575756565555545454534C
:10470800535252525151515050504F4F4E4E4E4DA0
:104718004D4D4D4C4C4C4B4B4B4A4A4A49494949E3
:10472800484848474747474646464545454544441F
:104738004444434343424242424141414140404054
:10474800403F3F3F3E3E3E3E3D3D3D3D3C3C3C3C88
:104758003B3B3B3B3A3A3A3A3939393838383837BB
:1047680037373736363636353535343434343333EF
:1047780033323232323131313030302F2F2F2F2E29
:104788002E2E2D2D2D2C2C2C2B2B2B2A2A2929296A
:1047980028282827272626262525242423232322BC
:1047A80022212120201F1E1E1D1D1C1C1B1A1A1928
:1047B800181717161514131211100F0E0C0B0908E1
:1047C80006040200FDF9F4EDE2005C345D340001FA
:1047D800726F00017251D8A409D0000E5A6E000EF3
:1047E8005B6E000E5C6E000E5D6E12005AC06DF0BE
:1047F8005BC06EF05CC06FF05DC070F0200E06D03C
:104808000001D89070336F336E336D33E82EF8D7CC
:1048180000016D510001716F5C8EFF0E5A16FF0E7C
:104828005B16FF0E5C16000E5D16960E0001725F99
:10483800000172AF18D000017251800A970FD8B0EA
:1048480009D0000E5A6E000E5B6E000E5C6E000EF4
:104858005D6E1200D8905D325C325B325A320001D4
:10486800723FF8D719D01F0E0001726510D0000EE4
:104878005A6E000E5B6E000E5C6E000E5D6E1200CE
:10488800D8905A365B365C365D36000172070001F7
:1048980072510001D8A4F4D7000171510001D8B4B5
:1048A80008D05D1E5C1E5B1E5A6C000E5B225C22EB
:1048B8005D225AC05AF05BC05BF05CC05CF05DC022
:1048C8005DF01200000E0101BD6F00019AAF08D023
:1048D8000001996D9A1FD8B09A2B010E0101BD6F86
:1048E800000198AF08D00001976D981FD8B0982B99
:1048F800010E0101BD1B000E0101BF6F000EBE6F4E
:104908000001995100019A11D8B42CD0010E01016F
:10491800BC6F06D00001D89099379A370101BC2B9B
:1049280000019AAFF7D70101D890BE37BF37000111
:1049380099510001975D00019A5100019859D8A03A
:104948000AD0000199510001975F00019A510001B6
:10495800985B0101BE810001D8909A339933010117
:10496800BC2FE1D70101BD510101D8B405D0010127
:10497800BE6DBF1FD8B0BF2BBEC197F0BFC198F0A6
:104988001200040EF66E290EF76E000EF86E04EE95
:1049980005F014EE4CF00900F5CFEEFFE550E150BC
:1049A800FAE1E250F8E1D20EF66E460EF76E000E0E
:1049B800F86E03EE00F011EE00F00900F5CFEEFFFF
:1049C800E550E150FAE1E250F8E17C0EF66E550E42
:1049D800F76E000EF86E02EEDEF010EE04F009003D
:1049E800F5CFEEFFE550E150FAE1A40EF66E530E56
:1049F800F76E000EF86E01EEE0F010EE1FF0090001
:104A0800F5CFEEFFE550E150FAE102EE00F0B20E0C
:104A1800EE6AE806FDE101EE00F0BC0EEE6AE8067B
:104A2800FDE100EE9DF0320EEE6AE806FDE15E6AF9
:104A38005F905F92000EF86E000100EF21F0010117
:104A4800BC6F000E0101BD6FAAEC2AF00101BC5138
:104A58004BEC2AF0000194514BEC2AF0AEEC2AF012
:104A68000101BC5101094BEC2AF03BD00101BD51B9
:104A7800010D140EF324D96E020EF420DA6E52ECF6
:104A88002AF0DF6EFF0E0001956FFF0E0001966F92
:104A9800000193510001976F986B00019551000137
:104AA800972700019651000198230101BD5100018B
:104AB800996F9A6B000197510001995D00019A5115
:104AC800800A00019B6F00019851800A00019B59E0
:104AD800D8B003D060EC2AF002D059EC2AF00101DA
:104AE800BD2B000193510101BD5DD8A0BFD7A6EC35
:104AF8002AF012000B0E07EC29F091C07CF192C04D
:104B08007DF1D89001017C35D96E01017D35DA6ED1
:104B1800510ED926060EDA22DECFC3F2DDCFC4F25B
:104B2800C3C2C0F1C4C2C1F10101C26BC36B000EA4
:104B380051EC1FF0C0C130F1C1C131F1C2C132F135
:104B4800C3C133F1000E0001956F800E966F880E79
:104B5800976FC30E986F30C191F031C192F032C196
:104B680093F033C194F0DBEC0FF091C0DAF192C00E
:104B7800DBF193C0DCF194C0DDF1E3EC22F001013C
:104B8800DA510101846F856B12000B0E65EC29F078
:104B980001C07CF102C07DF1D89001017C35D96E4D
:104BA80001017D35DA6E510ED926060EDA22DECFE6
:104BB80073F0DDCF74F073C00FF074C010F0116A99
:104BC800126A000EABEC21F00FC030F110C031F1C9
:104BD80011C032F112C033F1000E3E6E800E3F6EEE
:104BE800880E406EC30E416E30C13AF031C13BF0C1
:104BF80032C13CF033C13DF0B3EC1DF03AC05AF07D
:104C08003BC05BF03CC05CF03DC05DF0E9EC23F0DC
:104C18005A500101846F856B1200B40E00D0E82E43
:104C2800FDD7080E07EC29F0000191510001C46F6F
:104C38000001C451930F0001C46F0001C429D8B406
:104C480012000001C451040D050EF324D96E040EA0
:104C5800F420DA6EDECF28F1DECF29F1DECF2AF19B
:104C6800DECF2BF128C1CEF129C1CFF12AC1D0F175
:104C78002BC1D1F1000E0101D26F000ED36F800E4F
:104C8800D46F3F0ED56F38EC20F00101D8B0120078
:104C9800000E0101286F000E296F800E2A6F3F0E4B
:104CA8002B6F12000C6E000E0D6EB6EC2AF00C5035
:104CB80088EC2AF0045088EC2AF0BAEC2AF00C5060
:104CC800010988EC2AF029D00D50010D140EF324A7
:104CD800D96E020EF420DA6E6EEC2AF0DF6EFF0E4B
:104CE800056EFF0E066E0350076E086A055007260C
:104CF800065008220D50096E0A6A0750095C0A50CE
:104D0800800A0B6E0850800A0B58D8B003D067ECA5
:104D18002AF002D075EC2AF00D2A03500D5CD8A0B9
:104D2800D3D7B2EC2AF01200B40E00D0E82EFDD78B
:104D3800080E65EC29F001500001C46F0001C45150
:104D4800930F0001C46F0001C429D8B412000001F8
:104D5800C451040D050EF324D96E040EF420DA6E46
:104D6800DECF28F1DECF29F1DECF2AF1DECF2BF11D
:104D780028C11DF029C11EF02AC11FF02BC120F047
:104D8800000E216E000E226E800E236E3F0E246EE2
:104D980053EC22F0D8B01200000E0101286F000E6B
:104DA800296F800E2A6F3F0E2B6F1200000E0C6EBB
:104DB8000AAE06D0096C0A1ED8B00A2A010E0C6E7B
:104DC80008AE06D0076C081ED8B0082A010E0C1AC7
:104DD800000E0E6E000E0D6E09500A10D8B41CD0CD
:104DE800010E0B6E04D0D89009360A360B2A0AAE8B
:104DF800FAD7D8900D360E360950075C0A50085875
:104E0800D8A005D00950075E0A50085A0D80D890DE
:104E18000A3209320B2EEDD70C50D8B404D00D6CE1
:104E28000E1ED8B00E2A0DC007F00EC008F01200F2
:104E3800050E07EC29F091C0B7F092C0B8F0000E4B
:104E480000019A6F640E996FB7C091F0B8C092F0E4
:104E5800000E0001946F310E936FB8EC28F07E0EAF
:104E6800000191250001976FFE0E000192210001BB
:104E7800986F66EC24F0000197C0C0F1000198C05B
:104E8800C1F10101000EC1BFFF0EC26FC36F010E59
:104E980051EC1FF0C0C1B8F1C1C1B9F1C2C1BAF13A
:104EA800C3C1BBF112000001976F000E0001986F9B
:104EB800AAEC2AF0000197514BEC2AF00001965118
:104EC8004BEC2AF07CEC2AF00009D8A415D0A6EC0B
:104ED8002AF012001FEC2AF000019851010DF3503E
:104EE80000019325D96EF45000019421DA6EDF5049
:104EF8004BEC2AF00001982B000195510001985DB8
:104F0800D8A0E8D77CEC2AF00009D8A403D0A6ECF6
:104F18002AF01200A6EC2AF01200050E65EC29F022
:104F280001C0B7F002C0B8F0000E0A6E640E096E38
:104F3800B7C001F0B8C002F0000E046E310E036E67
:104F48008DEC29F07E0E0124076EFE0E0220086EFD
:104F5800DAEC26F007C00FF008C010F0000E10BE03
:104F6800FF0E116E126E010EABEC21F00FC0B8F1FE
:104F780010C0B9F111C0BAF112C0BBF11200076E2E
:104F8800000E086EB6EC2AF0075088EC2AF006509E
:104F980088EC2AF082EC2AF00009D8A411D0B2ECEF
:104FA8002AF0120032EC2AF00850010DF3500324C5
:104FB800D96EF4500420DA6EDF5088EC2AF0082A03
:104FC8000550085CD8A0EED782EC2AF00009D8A4D6
:104FD80003D0B2EC2AF01200B2EC2AF012002F0E25
:104FE800926E3B0E936E900E946E680E956E010E47
:104FF800966EA60EE82EFED700D0000E0F01386F71
:10500800000E0F01396F000E0F013A6F000E0F01ED
:105018003B6F000E0F013C6FD3EC28F029EC2AF00F
:1050280015EC2AF043EC2AF0C30EBB6EF0EC29F025
:10503800A2EC2AF012000001C82B010198510101CD
:105048009911D8B41200020E0001C819D8A406D0CC
:10505800000E026E000E016E98EC2AF0030E00019D
:10506800C819D8A40ED0B2EC29F001C0CBF002C008
:10507800CCF0FE0E026E0C0E016E93EC2AF0A1929B
:10508800A082000E0101AB6F010EAA6F1200000E84
:10509800066E000E056E03500410D8B41CD0010E25
:1050A800076E04D0D89003360436072A04AEFAD720
:1050B800D890053606360350015C04500258D8A033
:1050C80005D00350015E0450025A0580D89004327E
:1050D8000332072EEDD705C001F006C002F012001A
:1050E8000001956FAAEC2AF0000195514BEC2AF0CB
:1050F800000194514BEC2AF07CEC2AF00009D8A46A
:1051080004D08B90A6EC2AF01200000193514BECCE
:105118002AF07CEC2AF00009D8A403D0A6EC2AF0E7
:105128001200A6EC2AF01200056EB6EC2AF0055023
:1051380088EC2AF0045088EC2AF082EC2AF0000966
:10514800D8A404D08B90B2EC2AF01200035088EC5B
:105158002AF082EC2AF00009D8A403D0B2EC2AF095
:105168001200B2EC2AF012000001915100019303E1
:10517800F3CF95F0F4CF96F000019151000194031C
:10518800F350000196270001925100019303F35058
:105198000001962795C091F096C092F012000F0179
:1051A80038810F0138830F0138870F01388B0F01C1
:1051B8003C810F013989C09EF30EC116FC0EC11641
:1051C800C080C082C094C050C70B2009C06EC28086
:1051D8001200056E000E046EB6EC2AF0055088EC3D
:1051E8002AF0035088EC2AF0BAEC2AF0055001099D
:1051F80088EC2AF06EEC2AF0046E75EC2AF0B2EC1A
:105208002AF0045012000001946F94C093F000013A
:1052180093479347C25000019319830B9319C26EA9
:10522800210EE82EFED700F0C282C2B2FED7C4CF4C
:1052380091F00001926B1200050E07EC29F091C065
:1052480088F192C089F1000E01018825D96E030EFC
:1052580001018921DA6EDF500001956F0001955137
:105268000001B56FB66B1200365037103810391080
:10527800D8B408D0000E361A000E371A000E381AA5
:10528800800E391A36C036F037C037F038C038F0DB
:1052980039C039F01200050E65EC29F001C088F11B
:1052A80002C089F1000E01018825D96E030E0101A3
:1052B8008921DA6EDF50056E05500001B56FB66BB7
:1052C8001200046E04C003F003460346C2500318DC
:1052D800830B0318C26E210EE82EFED700F0C2829F
:1052E800C2B2FED7C4CF01F0026A1200020E07EC68
:1052F80029F0000191510001C36F700E0001C361D4
:1053080004D0010E0001C26F1200000E0001C26F2E
:10531800120001500302F3CF05F0F4CF06F001505C
:105328000402F350062602500302F350062605C075
:1053380001F006C002F01200020E65EC29F00150DF
:105348000001C36F700E0001C36104D0010E00019B
:10535800C26F1200000E0001C26F1200D650D7CFE4
:1053680003F0046A03C004F0036A0310056E0450D6
:10537800066E05C001F006C002F01200CE50CFCF75
:1053880003F0046A03C004F0036A0310056E0450B6
:10539800066E05C001F006C002F01200295C8F3DC0
:1053A800000096C3295C8F3D010023002300E80319
:0B53B8004C04E805220000964364004E
:1053C400000E0F013B6F95809582280E6C6E000EC7
:1053D4006B6E630E6E6E000E6D6E1200A092B19A2B
:1053E400B188B1963F0EB116B182000EB26E000EB6
:1053F400B36EB1801200040102518EEC2AF0C80E83
:10540400E82EFED7040101518EEC2AF01200B40EEE
:1054140000D0E82EFDD7000E07EC29F091C080F1F2
:1054240092C081F112009D90CD8ACD98CD963F0E09
:10543400CD16CD82CD80F28612006DB4FED76BCF2F
:1054440091F01F0E00019117D8B41200F6D7D59031
:10545400D592D594D59CD596D598D59AD58E12004B
:105464006DB4FED76BCF01F01F0E0116D8B4120035
:10547400F7D7310EC66E000EC76E94969488949A30
:105484001200BA86BA88BA8ABA8CBA80BA82BA8446
:1054940012000001926F1FEC2AF092C06FFF1200FD
:1054A4001FEC2AF06B866DA0FED76F5012001FEC24
:1054B4002AF06B8A6B886BA81200FDD71FEC2AF0C8
:1054C4006B9A6B886BA81200FDD732EC2AF06B9AAA
:1054D4006B886BA81200FDD732EC2AF06B866DA0A6
:1054E400FED76F50120032EC2AF06B8A6B886BA8DF
:1054F4001200FDD76BBC02D0010E1200000E120088
:105504006BBC02D0010E1200000E1200026E32ECCF
:105514002AF002C06FFF12000401006F00C4C9FF2B
:1055240012000250B36E01C0B2FF12000250D76ED7
:1055340001C0D6FF12000250CF6E01C0CEFF120090
:105544009380F19CF28612001FEC2AF06B84120007
:105554001FEC2AF06B8012001FEC2AF06B82120001
:1055640032EC2AF06B84120032EC2AF06B801200C9
:0C55740032EC2AF06B8212000000803F35
:10EA4E0000000048430000484300004843000048CF
:10EA5E00430000484300004843000048430000487C
:10EA6E00430000484300004843000038410000388E
:10EA7E0041000038410000384100003841000038A4
:10EA8E004100003841000038410000384100003894
:10EA9E004100003841000038410000384100003884
:10EAAE004100003841000038410000384100003874
:10EABE004100003841000038410000384100003864
:10EACE004100003841000038410000384100003854
:10EADE004100003841000038410000384100003844
:10EAEE004100003841000038410000384100003834
:10EAFE004100003841000038410000384100003824
:10EB0E004100003841000038410000384100003813
:10EB1E004100003841000038410000384100003803
:10EB2E0041000038410000384100003841000038F3
:10EB3E0041000038410000384100003841000038E3
:10EB4E0041000038410000384100003841000038D3
:10EB5E0041000038410000384100003841000038C3
:10EB6E0041000038410000384100003841000038B3
:10EB7E0041000038410000384100003841000038A3
:10EB8E004100003841000038410000384100003893
:10EB9E004100003841000038410000384100003883
:10EBAE004100003841000038410000384100003873
:10EBBE004100003841000038410000384100003863
:10EBCE004100003841000038410000384100003853
:10EBDE0041CDCC5841CDCC5841CDCC5841000058F8
:10EBEE0041000058410000584100005841000058B3
:10EBFE00410000584100005841C3F55441CDCC545A
:10EC0E0041A4705541D7A35441D7A35441AE4755A3
:10EC1E0041AE475541CDCC5441AE475541AE475517
:10EC2E0041713D4E417B144E410AD74F413D0A4F33
:10EC3E00413D0A4F41D7A35041D7A3504114AE4F87
:10EC4E0041E17A5041E17A50417B14464185EB45D2
:10EC5E0041D7A34841000048410000484152B84AFC
:10EC6E004152B84A41AE47494152B84A4152B84A58
:10EC7E00419A993D41A4703D41C3F54041D7A3400F
:10EC8E0041D7A34041EC514441EC5144413D0A432C
:10EC9E0041C3F54441C3F544417B1436417B1436E0
:10ECAE00417B143A417B143A417B143A417B143E2A
:10ECBE00417B143E417B143E410000404100004028
:10ECCE0041F6283041D7A33041EC513441CDCC34FC
:10ECDE0041CDCC3441E17A3841E17A384148E13ACC
:10ECEE0041D7A33C41D7A33C41EC512C41AE472D1B
:10ECFE004100003041C3F53041C3F53041000034CE
:10ED0E004100003441A47039415C8F3A415C8F3A26
:10ED1E00418FC22941295C2B41B81E2D41713D2ED8
:10ED2E004166662E41E17A3041EC513041CDCC380E
:10ED3E0041A4703941A4703941E17A28415C8F2A8F
:10ED4E0041295C2B41CDCC2C41CDCC2C418FC22DF9
:10ED5E00418FC22D41D7A33841CDCC3841CDCC38CF
:10ED6E0041000038410000384100003841000038B1
:10ED7E0041000038410000384100003841000038A1
:10ED8E004152B83A41AE473D417B1436417B143671
:10ED9E00413D0A37413D0A37411F8537411F8537AF
:10EDAE00411F8537411F8537418FC23941F6283CB7
:10EDBE0041F6283441E17A34418FC235417B143615
:10EDCE0041333337413333374133333741333337BD
:10EDDE0041C3F538413D0A3B41713D324152B83293
:10EDEE0041E17A3441C3F5344148E1364148E136D8
:10EDFE004148E1364148E13641EC5138417B143A05
:10EE0E0041EC513041B81E3141333333410AD733CF
:10EE1E00415C8F36415C8F36415C8F36415C8F365C
:10EE2E004114AE3741B81E39415C8F2E4114AE2FBE
:10EE3E00418FC231415C8F3241713D3641713D3659
:10EE4E0041713D3641713D36413D0A3741EC5138F5
:10EE5E0041D7A32C417B142E41EC513041A470318B
:10EE6E004185EB354185EB354185EB354185EB35FC
:10EE7E00415C8F36411F85374148E12A41D7A32C8B
:10EE8E004148E12E41EC5130418FC235418FC235A0
:10EE9E00418FC235418FC235417B14364152B8364F
:10EEAE0041C3F528413D0A2B41A4702D4133332F28
:10EEBE0041A4703541A4703541A4703541A470351C
:10EECE00419A9935417B143641333327419A99291A
:10EEDE0041F6282C41713D2E41B81E3541B81E35E4
:10EEEE0041B81E3541B81E3541AE473541A4703587
:10EEFE0041AE4725410000284152B82A41AE472D68
:10EF0E0041CDCC3441CDCC3441CDCC3441CDCC34BB
:10EF1E0041CDCC3441CDCC3441295C2341666626AB
:10EF2E0041A4702941E17A2C41E17A3441E17A34ED
:10EF3E0041E17A3441E17A3441EC513441F62834DE
:10EF4E0041A4702141CDCC2441F628284114AE2B8A
:10EF5E0041000034410000344100003441000034CF
:10EF6E00410AD7334114AE3341295C1F413D0A2378
:10EF7E00413D0A274133332B411F8533411F8533D2
:10EF8E00411F8533411F853341295C33413D0A338F
:10EF9E0041A4701D41A470214185EB25415C8F2A4F
