:0400000022EF01F0FA
:100008004F82FACF03F0FBCF04F0E9CF05F0EACF37
:1000180006F0E1CF07F0E2CF08F0D9CF09F0DACF48
:100028000AF0F3CF0BF0F4CF0CF0F6CF0DF0F7CFCA
:100038000EF0F8CF0FF0F5CF10F09EB602D09EA6C6
:10004800ADD08990C698C6BC02D0C6AE05D0C9CF7F
:10005800D6F0C69CC69EC688C7B474D0C7BA03D0AB
:10006800C9CFD7F06ED0C9CFD8F04050010D740E6B
:10007800F324D96E000EF420DA6EC9CFDFFF402AD0
:10008800400E00017419D8A450D04D88000E3F6E60
:100098004D964D9A110E406448D075C060F060C00E
:1000A80048F076C061F061C047F077C062F062C086
:1000B80046F078C063F063C045F079C064F064C06E
:1000C80044F07AC065F065C0E4F07BC066F066C0B5
:1000D800E3F07CC067F067C0E2F07DC068F068C0FC
:1000E800E1F07EC069F069C0E0F07FC06AF06AC0E4
:1000F800DBF080C06BF06BC043F081C06CF06CC06B
:1001080042F082C06DF06DC041F083C06EF06EC0E9
:10011800CAF00001CB6B84C090F090C0DAF085C0C3
:1001280091F091C0D9F0000E406E600E0001741974
:10013800D8A407D04D8A4D964D98000E3F6E000EFC
:10014800406EC688C7A428D04DA812D0000E406EB5
:100158003F50010D900EF324D96E000EF420DA6E94
:10016800DF50C96E3F2A010E3F6402D0000E3F6E79
:100178004DAA12D0000E406E3F50010D600EF324C0
:10018800D96E000EF420DA6EDF50C96E3F2A0A0ECF
:100198003F6402D0000E3F6E9E96C6889EAA0FD07E
:1001A8009D9A9E9AABB202D0ABA403D0AB92AB9807
:1001B800AB884BC04CF0AECF4BF04A2A9D8AA1B217
:1001C800A0A21ED0A192D80E026EEF0E016E05EC11
:1001D80007F00001A84BA92B0001A64BA72B000193
:1001E800A44BA52B0001A55105E10F0E0001A45D4C
:1001F800D8A006D0492A000E0001A56F000EA46FF2
:1002080010C0F5FF0FC0F8FF0EC0F7FF0DC0F6FFD6
:100218000CC0F4FF0BC0F3FF0AC0DAFF09C0D9FF16
:1002280008C0E2FF07C0E1FF06C0EAFF05C0E9FF1A
:1002380004C0FBFF03C0FAFF4F92110035EF06F030
:10024800E9C03AF03B6A3C6A0001E8353A3601E316
:100258003B803A500001EF6FECC03AF03B6A3C6AD1
:100268000001EB353A3601E33B803A500001EE6F6E
:100278000001EF510001D8B40FD00001EE51000188
:10028800EF5DD8B010D00001EF5100080001EE2555
:100298003A6E180E3A6407D0EAC0E7F0EBC0E8F00F
:1002A800ECC0E9F012000001EE510001D8B40FD003
:1002B8000001EF510001EE5DD8B010D00001EE5101
:1002C80000080001EF253A6E180E3A6407D0E7C01F
:1002D800E7F0E8C0E8F0E9C0E9F01200060E000116
:1002E800ED6F0001E9AF02D00001ED8F0001ECAF26
:1002F80002D00001ED8D0001E88FFF0E0001E71725
:10030800FF0E0001E817000E0001E9170001EB8F4E
:10031800FF0E0001EA17FF0E0001EB17000E0001A7
:10032800EC170001EE510001EF5DD8B024D00001B8
:10033800D890EA37EB37EC370001EE070001EF51B0
:100348000001EE19D8B410D00001ED07EDC03AF065
:10035800070E3A16D8B408D0EAD70001D890E93386
:10036800E833E7330001EF2B0001EE510001EF19EC
:10037800D8B42AD0F2D70001EF510001EE5DD8B011
:1003880023D00001D890E737E837E9370001EF07B5
:100398000001EF510001EE19D8B410D00001ED07AB
:1003A800EDC03AF0070E3A16D8B408D0EAD70001E3
:1003B800D890EC33EB33EA330001EE2B0001EE5119
:1003C8000001EF19D8A4F3D70001EDAF12D0FF0E4A
:1003D8000001E71BFF0E0001E81BFF0E0001E91BEF
:1003E800010E0001E727000E0001E823000E0001BE
:1003F800E9230001EDAD12D0FF0E0001EA1BFF0E4C
:100408000001EB1BFF0E0001EC1B010E0001EA27A7
:10041800000E0001EB23000E0001EC23000E00018A
:10042800ED6F0001E7510001EA270001E8510001E2
:10043800EB230001E9510001EC230001ECAF15D0DA
:10044800FF0E0001EA1BFF0E0001EB1BFF0E00016F
:10045800EC1B010E0001EA27000E0001EB23000E41
:100468000001EC23010E0001ED6FEAC011F0EBC0B2
:1004780012F0ECC013F0EFC014F0EDC015F0DEEC94
:1004880005F011C0E7F012C0E8F013C0E9F012005F
:1004980060EC06F0820E3D6EDE0EE82EFED73D2E95
:1004A800FCD7F28EF28CA082D09EF7EC06F0D80E24
:1004B800126EEF0E116E00EC07F08B928B90898014
:1004C8008B84F098300E87EC06F0020E4A18D8A4F8
:1004D80095D0520E4C18D8B47FD08ED0CE0EE4EC06
:1004E80006F07D0EE4EC06F07C0EE4EC06F084D019
:1004F800415042C03DF03E6A3DC03EF03D6A3D126B
:10050800000E3E123DC08CF03EC08DF00001000E82
:100518008DBFFF0E8E6F8F6F8CC012F08DC013F0E1
:10052800D9EC06F0020E136E010E126ED9EC06F02D
:10053800040E136E010E126ED9EC06F0350EE4ECC3
:1005480006F0360EE4EC06F0370EE4EC06F0080E82
:10055800136E010E126ED9EC06F04ED08CC012F05C
:100568008DC013F0D9EC06F0000E136E000E126E5B
:10057800D9EC06F0000EE4EC06F0000EE4EC06F010
:10058800000EE4EC06F0000EE4EC06F0000E136E2C
:10059800000E126ED9EC06F02FD0010E136E010E6C
:1005A800126ED9EC06F0020E136E010E126ED9EC23
:1005B80006F022D08CC012F08DC013F0D9EC06F0F2
:1005C80043C012F0136AD9EC06F0000E136E040E45
:1005D800126ED9EC06F010D04B50310AD8B47ED741
:1005E800030AD8B485D7010AD8B4B8D7070AD8B44B
:1005F800D4D7010AD8B4DED7000E4A6E0001D15113
:1006080005E1070E0001D05DD8A028D0000E00013A
:10061800D16F000ED06F3CC111F001013A51BFEC0F
:1006280006F011C08CF012C08DF000018E6B8F6B3C
:100638003EC1CAF03FC1CBF042C111F001014051A7
:10064800BFEC06F011C0C4F012C0C5F046C111F0ED
:1006580001014451BFEC06F01150436E000E000139
:10066800EA6F480E0001EB6FC20E0001EC6F120E2C
:100678001F6E830E206E3B0E216EE5C019F0E6C09A
:100688001AF09DEC06F019C01CF01AC01DF01BC032
:100698001EF014EC04F01CC02EF01DC02FF01EC07C
:1006A80030F0400E2B6E1C0E2C6E460E2D6E05EC97
:1006B80005F02BC0E7F02CC0E8F02DC0E9F024ECE1
:1006C80001F0E7C0F0F0E8C0F1F0E9C0F2F072EC38
:1006D80003F0F0C0B2F0F1C0B3F0F7D6F2C0F4F016
:1006E8000001F56BF66B0001F1350001F43701E309
:1006F800F5810001F45101014D6F01014D51D8A45C
:100708000AD0000E0001F06F000EF16F000EF26FBC
:10071800000EF36F1200170E0001F46FF0C0F5F031
:10072800F1C0F6F0F2C0F7F00001F4290001F86F0B
:1007380005D00001D890F733F633F5330001F82FD0
:10074800F8D70001F5510101486F0001F18FFF0E44
:100758000001F017FF0E0001F117000E0001F2175B
:100768000001F0510101496F0001F15101014A6F87
:100778000001F25101014B6F01014C6B8E0E01011A
:100788004D5F01014DAF1AD001014D51800A8F0F05
:10079800D8B00AD0000E0001F06F000EF16F000E05
:1007A800F26F000EF36F12000101D8904C334B33F7
:1007B8004A33493301014D3FF7D71BD0170E0101CA
:1007C8004D6512D0000E0001F06F000EF16F000EA3
:1007D800F26F000EF36F12000101D89049374A37C3
:1007E8004B374C3701014D0701014D510101D8A488
:1007F800F3D7010148510101D8B409D001014C1FB8
:100808004B1F4A1F496D000E4A234B234C2349C1F5
:10081800F0F04AC1F1F04BC1F2F04CC1F3F0120014
:100828001EC022F0236A246A1D34223601E3238085
:100838002250256E2550D8A407D0000E1C6E000E3D
:100848001D6E000E1E6E120021C022F0236A246A5B
:100858002034223601E3238022502A6E2A50D8A45D
:1008680007D0000E1C6E000E1D6E000E1E6E1200CC
:100878002A507B0F25261EC02AF021502A1A800EE6
:100888002A161D8E208EFF0E1F16FF0E2016000E34
:100898002116000E266E000E276E000E286E070E1B
:1008A800296E1CA006D01F50262620502722215032
:1008B8002822D8901E321D321C32D8901F3620367E
:1008C8002136292EEED7090E296E1CA006D01F50FE
:1008D80026262050272221502822D8901E321D3249
:1008E8001C32D890283227322632292EEED726C03D
:1008F80011F027C012F028C013F025C014F02AC048
:1009080015F0DEEC05F011C01CF012C01DF013C08C
:100918001EF01200948E949C900EAB6E230424104B
:10092800D8A433D0240EAC6E1FC015F020C016F02A
:1009380021C017F022C018F0000E116E5A0E126E68
:10094800620E136E020E146E78EC05F0F00E112490
:10095800276EFF0E1220286EFF0E1320296EFF0E41
:1009680014202A6E27C011F028C012F029C013F0F5
:100978002AC014F0100E156E000E166E000E176EBB
:10098800000E186E78EC05F032D0200EAC6E1FC049
:1009980015F020C016F021C017F022C018F0000E84
:1009A800116E5A0E126E620E136E020E146E78ECF1
:1009B80005F0C00E1124276EFF0E1220286EFF0EC0
:1009C8001320296EFF0E14202A6E27C011F028C0AC
:1009D80012F029C013F02AC014F0400E156E000E54
:1009E800166E000E176E000E186E78EC05F011C02A
:1009F80025F012C026F0B89625C0AFFF9D8A9D98B5
:100A080012002DC031F0326A336A2C34313601E3DA
:100A180032803150386E3850D8A407D0000E2B6E73
:100A2800000E2C6E000E2D6E120030C031F0326AAE
:100A3800336A2F34313601E332803150396E395000
:100A4800D8A407D0000E2B6E000E2C6E000E2D6E53
:100A58001200000E356E000E366E000E376E3950DD
:100A6800890F385E2DC039F03050391A800E39168A
:100A78002C8EFF0E2B16FF0E2C16000E2D162F8E09
:100A8800FF0E2E16FF0E2F16000E3016180E346E9F
:100A9800D8903536363637362E502B5C2F502C589A
:100AA80030502D58D8A007D02E502B5E2F502C5ADE
:100AB80030502D5A3580D8902B362C362D36342E82
:100AC800E7D735C011F036C012F037C013F038C080
:100AD80014F039C015F0DEEC05F011C02BF012C08F
:100AE8002CF013C02DF01200000E1A6E18AE0AD0AA
:100AF800181E171E161E156C000E16221722182215
:100B0800010E1A6E14AE0AD0141E131E121E116C9A
:100B1800000E122213221422010E1A1A000E1B6E46
:100B2800000E1C6E000E1D6E000E1E6E1550161067
:100B380017101810D8B42AD0010E196E06D0D89004
:100B48001536163617361836192A18AEF8D7D8902B
:100B58001B361C361D361E361550115C16501258A1
:100B68001750135818501458D8A009D01550115EB2
:100B78001650125A1750135A1850145A1B80D890EE
:100B88001832173216321532192EE1D71A50D8B446
:100B980008D01E1E1D1E1C1E1B6C000E1C221D22B2
:100BA8001E221BC011F01CC012F01DC013F01EC085
:100BB80014F012001450D8B405D0115012101310AC
:100BC800D8A40CD0000E116E000E126E000E136E1B
:100BD8001200142AD890133212321132000E111456
:100BE800166E000E1214176EFE0E1314186E1650A1
:100BF80017101810D8B40CD0ECD7142A010E1126EF
:100C0800000E1222000E1322D89013321232113223
:100C1800000E1114166E000E1214176EFF0E131428
:100C2800186E165017101810D8B406D0E6D7140648
:100C3800D89011361236133612BE03D0020E146045
:100C4800F6D714A0129ED8901432145013121550CF
:100C5800D8A4138E11C011F012C012F013C013F0F3
:100C68001200140EF66E0E0EF76E000EF86E00EE01
:100C7800F9F010EE04F00900F5CFEEFFE550E15071
:100C8800FAE101EE00F0480EEE6AE806FDE100EE3A
:100C980060F0870EEE6AE806FDE14E6A4D6A00EEE6
:100CA8003FF00E0EEE6AE806FDE14F904F92000EFF
:100CB800F86E00014CEF02F0AFEC06F0948E949CB5
:100CC800939E92909292929492969298020E816E2E
:100CD800939493969398939A9492949094949668F4
:100CE800000E1F6E960E206E000E216E000E226EF4
:100CF800000E246E010E236E8EEC04F0EEEC06F06E
:100D0800CCEC06F01200116E000E0F013A6F9486BB
:100D18009488948A360EC66E010EC56E11C0C8FF3F
:100D2800000EC76EF28EF28C9D869D869E969E96CC
:100D3800120019C011F01AC012F0136A8E0E146E48
:100D4800000E156EDEEC05F011C019F012C01AF095
:100D580013C01BF01200000E0F01386F000E0F01B8
:100D6800396F000E0F013A6F000E0F013B6F000E36
:100D78000F013C6F1200156E115015C013F0146A64
:100D880013C014F0136A1310116E1450126E12006F
:100D9800A092B19AB198B1963F0EB116B182000EE9
:100DA800B26E000EB36EB18012001350146E12C0F2
:100DB80015F01450E4EC06F01550E4EC06F01200BF
:100DC800116E11C0ADFFACA2FED7210EE82EFED7E2
:100DD80000F012009D90CD8ACD98CD963F0ECD168D
:100DE800CD82CD801200D580D592D594D59CD5964C
:100DF800D598D59AD58E12001250B36E11C0B2FF95
:100E080012000250B36E01C0B2FF12000C000100C4
:020000040020DA
:08000000FFFFFFFFFFFFFFFF00
:020000040030CA
:0E000000FF321F3FFFBF81FF0FC00FE00F4018
:00000001FF
