:04000000A0EF03F07A
:060008005F82A2EF03F08D
:100018005F80D8CFB3F2E8CFB4F2E0CFB5F2FACF31
:10002800B6F2FBCFB7F2E9CFB8F2EACFB9F2E1CF37
:10003800BAF2E2CFBBF2D9CFBCF2DACFBDF2F3CF3E
:10004800BEF2F4CFBFF2F6CFC0F2F7CFC1F2F8CFCD
:10005800C2F2F5CFC3F29EB09DA04DD09D909E9068
:100068009D92000E0001CC6F000ECB6F000E0101B7
:10007800AD6F000EAC6FFF0E0101706FFF0E716F58
:10008800000E726F000E736FFA0E0101746FFF0E8F
:10009800756F000E766F000E776F0001C66981B22A
:1000A80010D08C9E000E0001C36F030E0101DF6F9C
:1000B800E80EDE6F000E0001C16F000E0001BD6F7B
:1000C80009D0650E0001C36104D08C8E0001C32BDA
:1000D80001D08C9E000E0001B06F240EAF6FAFC030
:1000E80073F2240E0001936F400E0001946F500EBE
:1000F80066EC23F09D809EB29DA2FAD29E920101E9
:10010800825101018311D8A4EED2B6EC24F0000E7E
:100118000101F26F000EF36F1C0EF46F420EF56FC3
:10012800B7C097F0B8C098F00001000E98BFFF0E56
:10013800996F9A6F010EFEEC1BF097C0F6F198C00C
:10014800F7F199C0F8F19AC0F9F1E5EC1CF001015A
:10015800D8A00DD1000E0001C86F000EC76F0101B5
:10016800D8050101D911D8A406D0000E0001B06F3E
:10017800240EAF6F67D00001C151D8A442D0C40E7D
:100188000101DE5D090E0101DF59D8B03AD0000146
:10019800CCBF37D00001CC5120E1060E0001CB5D69
:1001A800D8B01BD02ED0000E0001B06F250E13D092
:1001B800000E0001B06F250EAF6F330E0101C86F3E
:1001C800330EC96FB30ECA6F3F0ECB6F11D0000E3E
:1001D8000001B06F230EAF6F0BD00001BD51000AB4
:1001E800D8B4E1D7010AD8B4E3D7030AD8B4EFD713
:1001F800000E0101956F320E946F0101DE4BDF2B6B
:1002080021D00001CCBF1ED00001CC5105E1060E63
:100218000001CB5DD8A016D00001C151D8A412D0DE
:10022800010E0001C16F000E0001BD6F000E00013C
:10023800BE6F000E0101C86F000EC96F800ECA6F35
:100248003F0ECB6F0001BABF08D00001BA5127E1B9
:10025800280E0001B95DD8B022D0020E0001C119E4
:10026800D8A41DD0000E0001B06F240EAF6F000E91
:100278000101956F320E946F0001CCBF08D0EE0ECD
:100288000001CB5D020E0001CC59D8B004D00001AA
:10029800BD05D8B456D0010E0001BD6F1FD20001B4
:1002A800BABF26D00001BA5105E1280E0001B95D98
:1002B800D8A01ED00001BABF08D00001BA5118E179
:1002C800320E0001B95DD8B013D0030E0001C11978
:1002D800D8A40ED0000E0001B06F230EAF6F000E31
:1002E8000101956F640E946F0001CCAFC8D725D07B
:1002F8000001BABF35D00001BA5105E1320E000144
:10030800B95DD8A02DD0040E0001C119D8A428D0F9
:10031800000E0001B06F220EAF6F000E0101956F45
:10032800640E946F0001CCBF08D0EE0E0001CB5DC7
:10033800020E0001CC59D8B0AED70001BD05D8A433
:10034800AAD7000E0001C16F030E0101DF6FE80E8E
:10035800DE6F010E0001BD6F000E0001BE6F9BD75E
:100368000001C151D8B4BAD10001C12BB7D1000ED8
:100378000001BD6F000E0001C16F070E0101DF6FA4
:10038800D00EDE6FC7C084F1C8C085F1000E010130
:10039800F66F000EF76F180EF86F430EF96FD90E4F
:1003A8000001B7250001916FFF0E0001B82100017F
:1003B800926F000E0001946F640E936FAAEC23F005
:1003C800000191C097F0000192C098F00001000E62
:1003D80098BFFF0E996F9A6F010EFEEC1BF097C045
:1003E800F2F198C0F3F199C0F4F19AC0F5F13AEC42
:1003F80015F0F2C1A7F2F3C1A8F2F4C1A9F2F5C150
:10040800AAF280EC1FF0A7C2C7F0A8C2C8F000018A
:10041800C85105E1640E0001C75DD8A005D0000EE3
:100428000001C86F640EC76F0001C7510001C811F1
:10043800D8A405D0000E0001C86F000EC76FC7C052
:1004480097F0C8C098F00001996B9A6B000EFEEC0B
:100458001BF097C0F6F198C0F7F199C0F8F19AC06F
:10046800F9F1C7C097F0C8C098F00001996B9A6B72
:10047800000EFEEC1BF097C0F2F198C0F3F199C0A2
:10048800F4F19AC0F5F1DCEC0EF0F2C1C4F2F3C15C
:10049800C5F2F4C1C6F2F5C1C7F20A0E0101F66F42
:1004A800D70EF76F230EF86F3C0EF96FC4C2F2F146
:1004B800C5C2F3F1C6C2F4F1C7C2F5F1DCEC0EF027
:1004C800F2C1A7F2F3C1A8F2F4C1A9F2F5C1AAF2E8
:1004D80080EC1FF0A7C2B1F0A8C2B2F0000E010173
:1004E800F26F000EF36FC80EF46F420EF56FB1C0D5
:1004F80097F0B2C098F00001996B9A6B000EFEEC71
:100508001BF097C0F6F198C0F7F199C0F8F19AC0BE
:10051800F9F1E5EC1CF00101D8B005D0000E00019E
:10052800B26F640EB16F0001CCBF08D0780E000125
:10053800CB5D050E0001CC59D8B002D0190E53D0AE
:100548000001CCBF08D0C40E0001CB5D090E00012C
:10055800CC59D8B002D0280E46D00001CCBF08D064
:10056800940E0001CB5D110E0001CC59D8B03AD0E1
:100578003C0E0001CB250001916FF60E0001CC2145
:100588000001926F000E0001946F0F0E936FAAEC9A
:1005980023F091C097F092C098F0070E00019A6F6F
:1005A800D00E996F03EC21F0280E00019727000E5A
:1005B80000019823000197C010F1000198C011F1C3
:1005C8000101000E11BFFF0E126F136F01011351CD
:1005D800010112110101111105E1650E0101105D02
:1005E800D8A009D0640E0101106F000E116F000E23
:1005F800126F000E136F0001B1510201AF6F0001BD
:10060800B2510201B06F0201B16B0201B26B02017B
:10061800AF510101105D0201B051010111590201F0
:10062800B151010112590201B25101011359D8B057
:1006380004D010C1B1F011C1B2F0B1C097F0B2C08E
:1006480098F00001996B9A6B000EFEEC1BF097C0B6
:10065800F2F198C0F3F199C0F4F19AC0F5F1000EE7
:100668000101F66F000EF76F200EF86F400EF96F5C
:10067800DCEC0EF0F2C14CF2F3C14DF2F4C14EF2D3
:10068800F5C14FF24CC2A7F24DC2A8F24EC2A9F270
:100698004FC2AAF280EC1FF0A7C2AFF0A8C2B0F018
:1006A8000001B0BF08D00001B0510AE1250E0001D9
:1006B800AF5DD8B005D0000E0001B06F240EAF6F4B
:1006C8000001B0BF0BD00001B05104E10001AF2917
:1006D800D8A004D0000E0001B06FAF69000E010170
:1006E800836F010E04D0000E0101836F000E826F2C
:1006F800C3C2F5FFC2C2F8FFC1C2F7FFC0C2F6FF0E
:10070800BFC2F4FFBEC2F3FFBDC2DAFFBCC2D9FF4D
:10071800BBC2E2FFBAC2E1FFB9C2EAFFB8C2E9FF51
:10072800B7C2FBFFB6C2FAFFB5C2E0FFB4C2E8FF2A
:10073800B3C2D8FF5F90100062EF21F0FACF7BF0D0
:10074800FBCF7CF0E9CF7DF0EACF7EF0E1CF7FF000
:10075800E2CF80F0D9CF81F0DACF82F0F3CF83F007
:10076800F4CF84F0F6CF85F0F7CF86F0F8CF87F096
:10077800F5CF88F0F2B2F2A876D0F298F2920001A2
:10078800C629D8B40BD09D909D827FEC24F001C07F
:1007980074F102C075F10101766B776B0101745138
:1007A8000101705D01017551010171590101765115
:1007B8000101725901017351800A0001756F01012D
:1007C8007751800A00017559D8B01FD0320E000148
:1007D800C6651BD08A8E000E0101AD6F010EAC6F8D
:1007E800000E0001C66F8C8E000E0101B76F000E5F
:1007F800B66FB6C1B8F1B7C1B9F1B8C1BAF1B9C1EC
:10080800BBF1BAC1BCF1BBC1BDF1D89001017435CF
:100818000101746F010175350101756F01017635AC
:100828000101766F010177350101776F74C170F1AD
:1008380075C171F176C172F177C173F111EC23F0D2
:10084800000E026E000E016E20EC25F09E909D8039
:10085800020E0001C619D8B48A9E000E0101B96FB4
:10086800010EB86FF288A1B2A0A2BEEF0EF0A0925E
:10087800A1920101AA510101AB11D8B4E8EF08F027
:1008880083EC22F0BCEC21F00FEC24F046EC22F0D3
:100898004DEC24F001017E5101017F11D8B458D0EC
:1008A8008B90A8C168F201019F510201696F9EC136
:1008B8006AF294C16BF2A4C16CF20101A351020166
:1008C8006D6FA2C16EF2A0C16FF2A6C170F29AC19B
:1008D80071F2B9C072F20001AF290001B011D8A4B9
:1008E80005D0000E0001B06FFE0EAF6FAFC073F2FF
:1008F8000001CC510201746FCBC075F298C176F239
:100908000101B1510201776FB0C178F2680E036E30
:10091800020E046E110E056E400E066E300EB5EC1A
:1009280022F00101D8510101D911D8B405D0000E27
:100938000001B06F240EAF6F240E036E400E046EDC
:10094800500E8AEC23F0000E01017F6F000E7E6FBF
:10095800000E4E6E400E4F6E9C0E506E450E516E40
:10096800C9C00FF0CAC010F0000E10BEFF0E116E05
:10097800126E010EADEC1DF00FC052F010C053F016
:1009880011C054F012C055F0C2EC18F04EC048F235
:100998004FC049F250C04AF251C04BF248C21DF054
:1009A80049C21EF04AC21FF04BC220F0000E216E51
:1009B800000E226E7A0E236E440E246E1AEC17F087
:1009C8001DC020F11EC021F11FC022F120C023F15B
:1009D80020C15AF021C15BF022C15CF023C15DF057
:1009E80086EC20F05AC0CBF05BC0CCF00001CCBF45
:1009F8000AD0650E0001CB5D190E0001CC59D8A0B4
:100A080002D0410E1DD0000E526E000E536EC80E5D
:100A1800546E420E556E20C14EF021C14FF022C1D6
:100A280050F023C151F0C2EC18F04EC05AF04FC03C
:100A38005BF050C05CF051C05DF086EC20F05A507D
:100A48000001C56F0001CCBFAAD3BD0E0001CB5D6C
:100A5800020E0001CC59D8A0A2D3000E0101D96F13
:100A6800000ED86F84C175F085C176F00001751F3E
:100A7800761F754B762B0001C751000175250101C2
:100A8800906F0001C851000176210101916F0101A9
:100A980091BF2ED00101915104E101019005D8A028
:100AA80027D090C10FF091C110F0000E10BEFF0EBC
:100AB800116E126E010EADEC1DF00FC01DF010C0CE
:100AC8001EF011C01FF012C020F00A0E216ED70EC2
:100AD800226EA30E236E3C0E246E1AEC17F01DC076
:100AE80030F11EC031F11FC032F120C033F109D0FE
:100AF800000E0101306F000E316F000E326F000ED4
:100B0800336F30C13AF031C13BF032C13CF033C1F0
:100B18003DF0000E3E6E000E3F6EA00E406E3F0E82
:100B2800416E60EC1AF03AC038F13BC039F13CC074
:100B38003AF13DC03BF1000E216EA00E226EAE0EC2
:100B4800236E440E246EC4C11DF0C5C11EF0C6C17B
:100B58001FF0C7C120F01AEC17F01DC04EF01EC0E0
:100B68004FF01FC050F020C051F048C152F049C1A9
:100B780053F04AC154F04BC155F0C2EC18F04EC0C6
:100B880044F14FC045F150C046F151C047F1CD0E78
:100B9800216ECC0E226E6C0E236E400E246ECDC0DC
:100BA8000FF0CEC010F0116A126A000EADEC1DF005
:100BB8000FC01DF010C01EF011C01FF012C020F0B1
:100BC8001AEC17F01DC04EF01EC04FF01FC050F0B9
:100BD80020C051F0000E526E000E536EC80E546EB7
:100BE800420E556EC2EC18F04EC03CF14FC03DF1BC
:100BF80050C03EF151C03FF144C14EF045C14FF0E5
:100C080046C150F047C151F0330E3E6E330E3F6E71
:100C18004B0E406E410E416E3CC136F03DC137F07F
:100C28003EC138F03FC139F0F8EC23F036C03AF055
:100C380037C03BF038C03CF039C03DF060EC1AF0EA
:100C48003AC052F03BC053F03CC054F03DC055F0A0
:100C5800C2EC18F04EC040F14FC041F150C042F113
:100C680051C043F140C11DF041C11EF042C11FF007
:100C780043C120F038C121F039C122F03AC123F034
:100C88003BC124F01AEC17F01DC040F11EC041F121
:100C98001FC042F120C043F10001BE05D8A407D00F
:100CA8000001BF05D8A40CD055EC13F009D0000EF4
:100CB8000001AB6F000EAC6F000EAD6F000EAE6F93
:100CC800660E216E260E226E960E236E430E246E3D
:100CD80040C11DF041C11EF042C11FF043C120F0C8
:100CE8001AEC17F01DC03AF01EC03BF01FC03CF0D4
:100CF80020C03DF0ABC03EF0ACC03FF0ADC040F00E
:100D0800AEC041F060EC1AF03AC024F13BC025F1C6
:100D18003CC026F13DC027F1000E0001A76F000E70
:100D2800A86F800EA96F3F0EAA6FB9C00FF0BAC0A6
:100D380010F0000E10BEFF0E116E126E010EADEC1B
:100D48001DF00FC01DF010C01EF011C01FF012C022
:100D580020F0000E216E000E226EF00E236E410E62
:100D6800246EF0EC1EF0D8B055D0000E3E6E000E8A
:100D78003F6E000E406E3F0E416E6F0E216E120EDA
:100D8800226E830E236E3B0E246EB9C00FF0BAC0DC
:100D980010F0000E10BEFF0E116E126E010EADECBB
:100DA8001DF00FC01DF010C01EF011C01FF012C0C2
:100DB80020F01AEC17F01DC036F01EC037F01FC027
:100DC80038F020C039F0F8EC23F036C03AF037C0DC
:100DD8003BF038C03CF039C03DF060EC1AF03AC046
:100DE8008DF03BC08EF03CC08FF03DC090F0A7C0A6
:100DF8003AF0A8C03BF0A9C03CF0AAC03DF08DC0B5
:100E08003EF08EC03FF08FC040F090C041F060ECE3
:100E18001AF01DD00001BABF08D00001BA511FE175
:100E28001E0E0001B95DD8B01AD0A7C03AF0A8C00C
:100E38003BF0A9C03CF0AAC03DF0CD0E3E6ECC0EF2
:100E48003F6ECC0E406E3D0E416E60EC1AF03AC01B
:100E5800A7F03BC0A8F03CC0A9F03DC0AAF0000133
:100E6800CCBF45D0F50E0001CB5D010E0001CC5979
:100E7800D8A03DD0A7C03AF0A8C03BF0A9C03CF02C
:100E8800AAC03DF0FB0EF66EFF0EF76E0900F5CF17
:100E980021F00900F5CF22F00900F5CF23F00A0070
:100EA800F5CF24F0C7C00FF0C8C010F0116A126A5D
:100EB800000EADEC1DF00FC01DF010C01EF011C0EB
:100EC8001FF012C020F01AEC17F01DC03EF01EC033
:100ED8003FF01FC040F020C041F060EC1AF03AC06B
:100EE800A7F03BC0A8F03CC0A9F03DC0AAF00001A3
:100EF800CCBF08D0E80E0001CB5D030E0001CC5931
:100F0800D8B028D00001B8BF25D00001B85105E1FC
:100F1800280E0001B75DD8A01DD0A7C01DF0A8C03D
:100F28001EF0A9C01FF0AAC020F0CD0E216ECC0E75
:100F3800226E8C0E236E3F0E246EF0EC1EF0D8B09D
:100F480009D0CD0E0001A76FCC0EA86F8C0EA96F2B
:100F58003F0EAA6F9A0E1D6E990E1E6ED90E1F6E49
:100F68003F0E206EA7C021F0A8C022F0A9C023F030
:100F7800AAC024F0F0EC1EF0D8B007D09A0E0001F9
:100F8800A76F990EA86FD90E1AD0A7C01DF0A8C0D8
:100F98001EF0A9C01FF0AAC020F0000E216E000E9E
:100FA800226E400E236E3F0E246EF0EC1EF0D8B079
:100FB80009D0000E0001A76F000EA86F400EA96FA0
:100FC8003F0EAA6F24C11DF025C11EF026C11FF0D7
:100FD80027C120F0A7C021F0A8C022F0A9C023F0A3
:100FE800AAC024F01AEC17F01DC0A3F01EC0A4F08C
:100FF8001FC0A5F020C0A6F0A3C01DF0A4C01EF01D
:10100800A5C01FF0A6C020F0000E216E800E226E33
:10101800BB0E236E440E246EF0EC1EF0D8B009D03F
:10102800000E0001A36F800EA46FBB0EA56F440EC7
:101038001CD0000E1D6E000E1E6E7A0E1F6E460E20
:10104800206EA3C021F0A4C022F0A5C023F0A6C042
:1010580024F0F0EC1EF0D8B009D0000E0001A36F08
:10106800000EA46F7A0EA56F460EA66FA3C01DF0E2
:10107800A4C01EF0A5C01FF0A6C020F0C8C121F072
:10108800C9C122F0CAC123F0CBC124F01AEC17F071
:101098001DC050F11EC051F11FC052F120C053F1C4
:1010A800C9C00FF0CAC010F0000E10BEFF0E116EBE
:1010B800126E010EADEC1DF00FC01DF010C01EF039
:1010C80011C01FF012C020F0660E216E660E226E4F
:1010D800260E236E410E246E1AEC17F01DC01CF16B
:1010E8001EC01DF11FC01EF120C01FF11CC11DF044
:1010F8001DC11EF01EC11FF01FC120F0A3C021F0AA
:10110800A4C022F0A5C023F0A6C024F0F0EC1EF085
:10111800D8B03BD01CC1A3F01DC1A4F01EC1A5F0DE
:101128001FC1A6F0A3C04CF1A4C04DF1A5C04EF15B
:10113800A6C04FF150C13EF051C13FF052C140F03E
:1011480053C141F04CC136F04DC137F04EC138F0B3
:101158004FC139F0F8EC23F036C03AF037C03BF015
:1011680038C03CF039C03DF060EC1AF03AC05AF093
:101178003BC05BF03CC05CF03DC05DF086EC20F00D
:101188005AC09CF15BC09DF105D0000E01019D6F16
:10119800000E9C6F0F0E0001B66FA00E12D0000E4D
:1011A8000101D96F010ED86F000E0001A36F400E28
:1011B800A46F1C0EA56F460EA66F170E0001B66F22
:1011C800700EB56FADEF0EF08B800001CCBF08D06C
:1011D800F40E0001CB5D010E0001CC59D8B005D04A
:1011E800000E0001B06F240EAF6F0001CCBF0DD010
:1011F800A10E0001CB5D0F0E0001CC59D8A005D07F
:101208000F0E0001B66FA00EB56F0A0E216ED70E35
:10121800226E230E236E3C0E246E20C11DF021C1C8
:101228001EF022C11FF023C120F01AEC17F01DC0D8
:101238005AF01EC05BF01FC05CF020C05DF086EC69
:1012480020F05A500001C56FC4C11DF0C5C11EF081
:10125800C6C11FF0C7C120F0000E216E000E226E1D
:10126800F00E236E410E246EF0EC1EF0D8B002D0C2
:10127800000E45D0000E1D6E000E1E6EF00E1F6E85
:10128800420E206EC4C121F0C5C122F0C6C123F0B0
:10129800C7C124F0F0EC1EF0D8B002D0090E2FD050
:1012A800000E3E6E000E3F6E400E406EC00E416E48
:1012B800000E526E000E536E200E546E410E556E87
:1012C800C4C14EF0C5C14FF0C6C150F0C7C151F0FE
:1012D800C2EC18F04EC03AF04FC03BF050C03CF0A2
:1012E80051C03DF060EC1AF03AC05AF03BC05BF0D8
:1012F8003CC05CF03DC05DF086EC20F05A50000127
:10130800C46F000E526E000E536EA00E546E400E47
:10131800556EC9C00FF0CAC010F0000E10BEFF0E07
:10132800116E126E010EADEC1DF00FC04EF010C024
:101338004FF011C050F012C051F0C2EC18F04EC07E
:101348005AF04FC05BF050C05CF051C05DF086ECC5
:1013580020F05AC0C9F05BC0CAF0C9C00FF0CAC0BB
:1013680010F0000E10BEFF0E116E126E010EADECE5
:101378001DF00FC052F010C053F011C054F012C04D
:1013880055F0A3C04EF0A4C04FF0A5C050F0A6C0C1
:1013980051F0C2EC18F04EC05AF04FC05BF050C08C
:1013A8005CF051C05DF086EC20F05AC088F15BC05B
:1013B80089F10001C551040DEF0EF324F66EFE0EFF
:1013C800F420F76E0900F5CF3EF00900F5CF3FF0A5
:1013D8000900F5CF40F00A00F5CF41F088C10FF0C1
:1013E80089C110F0000E10BEFF0E116E126E010EB4
:1013F800ADEC1DF00FC036F010C037F011C038F05A
:1014080012C039F0F8EC23F036C03AF037C03BF0A0
:1014180038C03CF039C03DF060EC1AF03AC08DF0AD
:101428003BC08EF03CC08FF03DC090F08DC03AF0CC
:101438008EC03BF08FC03CF090C03DF0000E3E6E79
:10144800000E3F6E800E406EBF0E416E60EC1AF0CB
:101458003AC09FF03BC0A0F03CC0A1F03DC0A2F054
:101468009FC01DF0A0C01EF0A1C01FF0A2C020F0B8
:10147800000E216E000E226E800E236E3F0E246E2B
:10148800F0EC1EF0D8B01AD09FC03AF0A0C03BF0E4
:10149800A1C03CF0A2C03DF0000E3E6E000E3F6EB3
:1014A800700E406E420E416E60EC1AF03AC09FF02A
:1014B8003BC0A0F03CC0A1F03DC0A2F09FC05AF0D4
:1014C800A0C05BF0A1C05CF0A2C05DF086EC20F08B
:1014D8005AC0BBF05BC0BCF03B0E0001BB19000159
:1014E800BC11D8B40BD00001BCBF0DD00001BC5159
:1014F80005E13C0E0001BB5DD8A005D0000E00013F
:10150800BC6F3A0E12D01D0E0001BB190001BC11B0
:10151800D8B407D01E0E0001BB190001BC11D8A415
:1015280005D0000E0001BC6F1C0EBB6F9FC03EF0C3
:10153800A0C03FF0A1C040F0A2C041F0BBC00FF076
:10154800BCC010F0000E10BEFF0E116E126E010E20
:10155800ADEC1DF00FC036F010C037F011C038F0F8
:1015680012C039F0F8EC23F036C03AF037C03BF03F
:1015780038C03CF039C03DF060EC1AF03AC01DF0BC
:101588003BC01EF03CC01FF03DC020F0C9C00FF0AA
:10159800CAC010F0000E10BEFF0E116E126E010EC2
:1015A800ADEC1DF00FC021F010C022F011C023F0E7
:1015B80012C024F01AEC17F01DC028F11EC029F142
:1015C8001FC02AF120C02BF1000E1D6E000E1E6EEA
:1015D800000E1F6E000E206E9CC10FF09DC110F012
:1015E800000E10BEFF0E116E126E010EADEC1DF056
:1015F8000FC021F010C022F011C023F012C024F057
:10160800F0EC1EF0D8B092D00001CCBF8FD0290EDC
:101618000001CB5D0A0E0001CC59D8A087D09CC12F
:1016280007F09DC108F0C9C009F0CAC00AF004EC6F
:1016380022F007C086F108C087F186C10FF087C184
:1016480010F0000E10BEFF0E116E126E010EADEC02
:101658001DF00FC036F010C037F011C038F012C0BE
:1016680039F0F8EC23F036C03AF037C03BF038C018
:101678003CF039C03DF09FC03EF0A0C03FF0A1C093
:1016880040F0A2C041F060EC1AF03AC00CF13BC047
:101698000DF13CC00EF13DC00FF10CC11DF00DC1A4
:1016A8001EF00EC11FF00FC120F0000E216E000EBB
:1016B800226E800E236E3F0E246EF0EC1EF0D8B022
:1016C80009D0000E01010C6F000E0D6F800E0E6F19
:1016D8003F0E0F6F000E1D6E000E1E6EE00E1F6E89
:1016E800410E206E0CC121F00DC122F00EC123F075
:1016F8000FC124F0F0EC1EF0D8B009D0000E0101A3
:101708000C6F000E0D6FE00E0E6F410E0F6F0CC1C7
:101718005AF00DC15BF00EC15CF00FC15DF086ECB4
:1017280020F05AC09AF15BC09BF105D0000E010170
:101738009B6F000E9A6F000E526E000E536EC80E0D
:10174800546E420E556E0001C551280D4F0E000112
:10175800756FEA0E0001766FF35000017527F4509B
:10176800000176230001C451040DF35000017527D0
:10177800F4500001762375C0F6FF76C0F7FF090024
:10178800F5CF21F00900F5CF22F00900F5CF23F0BD
:101798000A00F5CF24F0CDC077F0CEC078F0000174
:1017A800771F781F774B782B640E00017727000E80
:1017B800782377C00FF078C010F0116A126A000E13
:1017C800ADEC1DF00FC01DF010C01EF011C01FF0D1
:1017D80012C020F01AEC17F01DC04EF01EC04FF0DA
:1017E8001FC050F020C051F0C2EC18F04EC03AF0C3
:1017F8004FC03BF050C03CF051C03DF00001C55116
:10180800280D9F0E0001796FF40E00017A6FF350D6
:1018180000017927F45000017A230001C451040D16
:10182800F35000017927F45000017A2379C0F6FFBC
:101838007AC0F7FF0900F5CF21F00900F5CF22F0B3
:101848000900F5CF23F00A00F5CF24F0000E046E4E
:10185800640E036ECDC001F0CEC002F03DEC23F063
:1018680001C00FF002C010F0116A126A000EADEC50
:101878001DF00FC01DF010C01EF011C01FF012C0E7
:1018880020F01AEC17F01DC03EF01EC03FF01FC03C
:1018980040F020C041F060EC1AF03AC014F13BC0AF
:1018A80015F13CC016F13DC017F1B5C001F0B6C046
:1018B80002F0C9C003F0CAC004F03DEC23F001C037
:1018C80088F102C089F188C10FF089C110F0000EBB
:1018D80010BEFF0E116E126E010EADEC1DF00FC0A2
:1018E80036F010C037F011C038F012C039F0F8ECFB
:1018F80023F036C03AF037C03BF038C03CF039C06E
:101908003DF014C13EF015C13FF016C140F017C1BB
:1019180041F060EC1AF03AC018F13BC019F13CC034
:101928001AF13DC01BF118C11DF019C11EF01AC1F2
:101938001FF01BC120F0000E216E000E226E800EDB
:10194800236E3F0E246EF0EC1EF0D8B01AD018C1EA
:101958003AF019C13BF01AC13CF01BC13DF0000E32
:101968003E6E000E3F6E700E406E420E416E60EC91
:101978001AF03AC018F13BC019F13CC01AF13DC049
:101988001BF118C15AF019C15BF01AC15CF01BC1F8
:101998005DF086EC20F05AC0B3F05BC0B4F03B0EAB
:1019A8000001B3190001B411D8B40BD00001B4BFC1
:1019B8000DD00001B45105E13C0E0001B35DD8A083
:1019C80005D0000E0001B46F3A0E12D01D0E0001B2
:1019D800B3190001B411D8B407D01E0E0001B31911
:1019E8000001B411D8A405D0000E0001B46F1C0E7C
:1019F800B36F18C13EF019C13FF01AC140F01BC1C6
:101A080041F0B3C00FF0B4C010F0000E10BEFF0ECE
:101A1800116E126E010EADEC1DF00FC036F010C045
:101A280037F011C038F012C039F0F8EC23F036C0A6
:101A38003AF037C03BF038C03CF039C03DF060ECBC
:101A48001AF03AC01DF03BC01EF03CC01FF03DC06C
:101A580020F0C9C00FF0CAC010F0000E10BEFF0E73
:101A6800116E126E010EADEC1DF00FC021F010C00A
:101A780022F011C023F012C024F01AEC17F01DC098
:101A88002CF11EC02DF11FC02EF120C02FF128C14E
:101A98001DF029C11EF02AC11FF02BC120F0000E35
:101AA800216E000E226E200E236E410E246EF0EC85
:101AB8001EF0D8B009D0000E0101286F000E296F62
:101AC800200E2A6F410E2B6F2CC11DF02DC11EF068
:101AD8002EC11FF02FC120F0000E216E000E226EC5
:101AE800200E236E410E246EF0EC1EF0D8B009D003
:101AF800000E01012C6F000E2D6F200E2E6F410E6F
:101B08002F6F9BC01DF09CC01EF09DC01FF09EC093
:101B180020F0000E216E000E226E7A0E236EC40E87
:101B2800246EF0EC1EF0D8A00BD00001CCBF1FD063
:101B3800A30E0001CB5D170E0001CC59D8A017D019
:101B4800000E0001BC6FC80EBB6F000E0101286FAC
:101B5800000E296F000E2A6F000E2B6F000E000179
:101B6800A36F000EA46F000EA56F000EA66FB3C082
:101B7800A8F1B4C0A9F1BBC0A4F1BCC0A5F12CC1A7
:101B88004EF02DC14FF02EC150F02FC151F0000E74
:101B9800526E000E536E500E546E420E556EC2ECCD
:101BA80018F04EC02CF14FC02DF150C02EF151C08D
:101BB8002FF12CC11DF02DC11EF02EC11FF02FC119
:101BC80020F0000E216E000E226E800E236E3F0E56
:101BD800246EF0EC1EF0D8B009D0000E01012C6F75
:101BE800000E2D6F800E2E6F3F0E2F6F28C11DF037
:101BF80029C11EF02AC11FF02BC120F0000E216E52
:101C0800000E226E800E236E3F0E246EF0EC1EF046
:101C1800D8B009D0000E0101286F000E296F800E80
:101C28002A6F3F0E2B6F2CC15AF02DC15BF02EC1CD
:101C38005CF02FC15DF086EC20F0D8905A34010199
:101C4800A66F5B340101A76F28C15AF029C15BF068
:101C58002AC15CF02BC15DF086EC20F05AC0A2F1DD
:101C68005BC0A3F1B5C001F0B6C002F0000E046E6F
:101C7800340E036E3DEC23F001C0B5F002C0B6F09F
:101C8800B5C0A0F1B6C0A1F1000E526E000E536EA1
:101C9800A00E546E420E556E000E216E000E226E7E
:101CA800C80E236E420E246EA3C01DF0A4C01EF001
:101CB800A5C01FF0A6C020F01AEC17F01DC04EF00A
:101CC8001EC04FF01FC050F020C051F0C2EC18F0F9
:101CD8004EC089F04FC08AF050C08BF051C08CF0D4
:101CE80089C01DF08AC01EF08BC01FF08CC020F088
:101CF80034C121F035C122F036C123F037C124F0B8
:101D08001AEC17F01DC0A3F01EC0A4F01FC0A5F068
:101D180020C0A6F0A3C05AF0A4C05BF0A5C05CF038
:101D2800A6C05DF086EC20F05AC09EF15BC09FF122
:101D380081B205D0000E01019F6F000E9E6F000E4C
:101D48000101B76F010EB66F000E01017F6F010E22
:101D58007E6F000E0101BB6F010EBA6F0101AA511F
:101D68000101AB11D8A402D0010E01D0000E01016F
:101D7800AA6FAB6B88C0F5FF87C0F8FF86C0F7FF76
:101D880085C0F6FF84C0F4FF83C0F3FF82C0DAFF8A
:101D980081C0D9FF80C0E2FF7FC0E1FF7EC0EAFFBB
:101DA8007DC0E9FF7CC0FBFF7BC0FAFF5F9211009A
:101DB8000101F551800B02019A6F0101F551F525DA
:101DC8000201A06F0101F4AF02D00201A08102015B
:101DD800A0510201D8B410D00201A029D8A409D07A
:101DE800000E0101F26F000EF36F000EF46F000E8B
:101DF800F56F0101F48F09D0000E0101F26F000E9A
:101E0800F36F000EF46F000EF56F0101F951800BAE
:101E180002019A1B0101F951F92502019B6F010189
:101E2800F8AF02D002019B8102019B510201D8B494
:101E380010D002019B29D8A409D0000E0101F66F29
:101E4800000EF76F000EF86F000EF96F0101F88FA2
:101E580009D0000E0101F66F000EF76F000EF86F43
:101E6800000EF96F02019B510201D8B405D002019E
:101E7800A0510201D8A40AD0000E0101F26F000E91
:101E8800F36F000EF46F000EF56F12000101F851A8
:101E98000101F203F3CFA5F2F4CFA6F20201A55196
:101EA80002019C6F9D6B9E6B9F6B0201A651020104
:101EB800A16FA26BA36BA46B0101F7510101F3039E
:101EC800F3CFA5F2F4CFA6F20201A55102019C2797
:101ED800000E9D239E239F230201A6510201A127E4
:101EE800000EA223A323A4230101F6510101F40348
:101EF800F3CFA5F2F4CFA6F20201A55102019C2767
:101F0800000E9D239E239F230201A6510201A127B3
:101F1800000EA223A323A4239EC29FF29DC29EF279
:101F28009CC29DF202019C6B0101F6510101F30371
:101F3800F3CFA5F2F4CFA6F20201A55102019C2726
:101F48000201A65102019D23000E02019E23000EEC
:101F580002019F230101F7510101F203F3CFA5F21A
:101F6800F4CFA6F20201A55102019C270201A65155
:101F780002019D23000E02019E23000E02019F23F1
:101F88009EC29FF29DC29EF29CC29DF202019C6B72
:101F98000101F6510101F203F3CFA5F2F4CFA6F245
:101FA8000201A55102019C270201A65102019D23AD
:101FB800000E02019E23000E02019F230101F85129
:101FC8000101F303F3CFA5F2F4CFA6F20201A55164
:101FD8000201A1270201A6510201A223000E02015B
:101FE800A323000E0201A4230101F7510101F40308
:101FF800F3CFA5F2F4CFA6F20201A5510201A12761
:102008000201A6510201A223000E0201A323000E21
:102018000201A4230101F8510101F403F3CFA5F251
:10202800F4CFA6F20201A5510101FA6F0201A651EF
:102038000101FB6F0101FC6B0101FD6BFCC1FDF1AE
:10204800FBC1FCF1FAC1FBF10101FA6B0101FA5184
:102058000201A1270101FB510201A2230101FC5148
:102068000201A3230101FD510201A4239CC2FAF13C
:102078009DC2FBF19EC2FCF19FC2FDF1190E06D074
:102088000101D890FD33FC33FB33FA33E82EF8D73F
:102098000101FA510201A1270101FB510201A2230A
:1020A8000101FC510201A3230101FD510201A423F6
:1020B8009EC29FF29DC29EF29CC29DF202019C6B41
:1020C80002019B51A0C2FAF10101FB6B0101FA2741
:1020D800000EFB23820E0101FA250201A56FFF0EF7
:1020E8000101FB210201A66F15D00201D890A1378A
:1020F800A237A337A43702019FAF02D00201A18102
:102108000201D8909C379D379E379F370201A5075B
:10211800D8A0A6070201A3AFE8D7000E02019B6F63
:1021280002019FAF24D0FF0E02019C150101FA6F36
:10213800FF0E02019D150101FB6FFF0E02019E15A6
:102148000101FC6F7F0E02019F150101FD6F010166
:10215800FA510101FB110101FC110101FD11D8A483
:1021680003D00201A1A103D0010E02019B6F02015D
:102178009B510201D8B423D0010E0201A127000E01
:10218800A223A323A4230201A4A119D0A1C2FAF176
:10219800A2C2FBF1A3C2FCF1A4C2FDF10101FD350D
:1021A800FD33FC33FB33FA33FAC1A1F2FBC1A2F2CF
:1021B800FCC1A3F2FDC1A4F20201A54BA62B0201AA
:1021C800A6BF10D00201A65104E10201A529D8A09A
:1021D80009D0000E0201A16F000EA26F800EA36F3E
:1021E8007F0E2BD00201A6BF07D00201A65111E134
:1021F8000201A505D8B00DD0000E0201A16F000E96
:10220800A26F000EA36F000EA46F000E02019A6F5A
:1022180015D0A5C2A0F2FF0E0201A117FF0EA2174A
:102228007F0EA317000EA4170201A0A102D002017D
:10223800A38F0201D890A0310201A46F02019A5124
:102248000201A413A1C2F2F1A2C2F3F1A3C2F4F1F4
:10225800A4C2F5F11200A4704D40F6284C40713D1F
:102268004A40C3F548403D0A4740B81E45400AD792
:10227800434085EB4140D7A3404052B83E40A4704C
:102288003D40F6283C40713D3A40C3F538403D0A90
:1022980037408FC23540E17A34405C8F3240AE47D8
:1022A80031400000304052B82E40CDCC2C401F8524
:1022B8002B40713D2A40C3F5284014AE27408FC2F9
:1022C8002540E17A24403333234085EB2140D7A3CE
:1022D8002040295C1F407B141E40CDCC1C401F852C
:1022E8001B40713D1A40C3F5184014AE174066668E
:1022F8001640B81E15400AD713405C8F1240AE47EF
:10230800114000001040295C0F407B140E40CDCCDA
:102318000C401F850B40713D0A409A990940EC51C9
:1023280008403D0A07408FC20540B81E05400AD73D
:1023380003405C8F024085EB0140D7A3004052B8B0
:10234800FE3FA470FD3F48E1FA3FEC51F83F3D0ADB
:10235800F73FE17AF43F3333F33FD7A3F03F7B14E1
:10236800EE3FCDCCEC3F713DEA3FC3F5E83F6666F2
:10237800E63FB81EE53F5C8FE23FAE47E13F000015
:10238800E03FA470DD3FF628DC3F9A99D93FEC5135
:10239800D83F3D0AD73FE17AD43F3333D33FD7A361
:1023A800D03F295CCF3F7B14CE3F1F85CB3F713D8B
:1023B800CA3FC3F5C83F14AEC73FB81EC53F0AD7CA
:1023C800C33F5C8FC23F0000C03F52B8BE3FA470FD
:1023D800BD3FF628BC3F48E1BA3FEC51B83F3D0A43
:1023E800B73F8FC2B53FE17AB43F3333B33F85EB94
:1023F800B13F295CAF3F7B14AE3FCDCCAC3F1F85CE
:10240800AB3F713DAA3FC3F5A83F14AEA73F666630
:10241800A63FB81EA53F0AD7A33F5C8FA23F000086
:10242800A03F52B89E3FA4709D3FF6289C3F48E1CC
:102438009A3F9A99993FEC51983F3D0A973F8FC22E
:10244800953F8FC2953FE17A943F3333933F85EBB5
:10245800913FD7A3903F295C8F3F7B148E3FCDCC13
:102468008C3F1F858B3F713D8A3FC3F5883F14AE73
:10247800873F14AE873F6666863FB81E853F0AD7FA
:10248800833F5C8F823FAE47813F0000803F000062
:10249800803FA4707D3F48E17A3FEC51783F8FC27E
:1024A800753FBB01AE01A601A0019C0198019501F1
:1024B800920190018E018C018A01890187018601B0
:1024C800850183018201810180017F017E017D01F7
:1024D8007C017B017A017A01790178017701770122
:1024E800760175017501740173017301720171013F
:1024F8007101700170016F016F016E016E016D0154
:102508006D016C016C016B016B016A016A01690163
:10251800690169016801680167016701660166016F
:102528006601650165016401640164016301630179
:102538006301620162016101610161016001600181
:1025480060015F015F015F015E015E015E015D0187
:102558005D015D015C015C015C015B015B015B018C
:102568005A015A015A015901590159015801580192
:102578005801570157015701570156015601560195
:102588005501550155015401540154015401530199
:10259800530153015201520152015101510151019C
:1025A80050015001500150014F014F014F014E01A0
:1025B8004E014E014D014D014D014D014C014C01A3
:1025C8004C014B014B014B014A014A014A014A01A6
:1025D80049014901490148014801480147014701AA
:1025E80047014601460146014501450145014401AF
:1025F80044014401430143014301420142014201B4
:102608004101410141014001400140013F013F01B9
:102618003E013E013E013D013D013D013C013C01C1
:102628003B013B013B013A013A01390139013801CB
:1026380038013801370137013601360135013501D6
:1026480034013401330133013201320131013101E6
:10265800300130012F012E012E012D012C012C01FA
:102668002B012A012A012901280127012701260116
:102678002501240123012201210120011F011E013E
:102688001C011B011A011801170115011301110181
:102698000F010C01090105010101FB00F300E6002F
:1026A80000000001C0510F6E106A116A126A000E14
:1026B800ADEC1DF00FC01DF010C01EF011C01FF0D2
:1026C80012C020F0090E216E280E226EA00E236E75
:1026D8003C0E246E1AEC17F01DC058F11EC059F1BB
:1026E8001FC05AF120C05BF158C136F059C137F00C
:1026F8005AC138F05BC139F0F8EC23F036C03AF033
:1027080037C03BF038C03CF039C03DF0000E3E6E9B
:10271800000E3F6E800E406E3F0E416E60EC1AF068
:102728003AC068F13BC069F13CC06AF13DC06BF149
:102738000001CCBF2FD0C50E0001CB5D090E0001F2
:10274800CC59D8A027D0320E0A6E320E096ECBC0F3
:1027580007F0CCC008F004EC22F007C00FF008C066
:1027680010F0000E10BEFF0E116E126E010EADECD1
:102778001DF00FC0CCF110C0CDF111C0CEF112C0C8
:10278800CFF1CCC1D4F1CDC1D5F1CEC1D6F1CFC1F5
:10279800D7F112D0290E0101CC6F5C0ECD6F8F0ED0
:1027A800CE6F3D0ECF6F290E0101D46F5C0ED56F31
:1027B8008F0ED66F3D0ED76FD4C11DF0D5C11EF058
:1027C800D6C11FF0D7C120F068C121F069C122F03D
:1027D8006AC123F06BC124F01AEC17F01DC064F134
:1027E8001EC065F11FC066F120C067F1000E4E6E75
:1027F800000E4F6EF00E506E420E516ECBC00FF0B1
:10280800CCC010F0000E10BEFF0E116E126E010E3D
:10281800ADEC1DF00FC052F010C053F011C054F0D1
:1028280012C055F0C2EC18F04EC06CF14FC06DF1FB
:1028380050C06EF151C06FF16CC121F06DC122F032
:102848006EC123F06FC124F0CCC11DF0CDC11EF0C4
:10285800CEC11FF0CFC120F01AEC17F01DC071F0E7
:102868001EC072F01FC073F020C074F071C021F058
:1028780072C022F073C023F074C024F054C13EF03B
:1028880055C13FF056C140F057C141F068C13AF018
:1028980069C13BF06AC13CF06BC13DF060EC1AF0D5
:1028A8003AC01DF03BC01EF03CC01FF03DC020F0F8
:1028B8001AEC17F01DC06DF01EC06EF01FC06FF04F
:1028C80020C070F06DC03AF06EC03BF06FC03CF0B5
:1028D80070C03DF05CC13EF05DC13FF05EC140F0AC
:1028E8005FC141F060EC1AF03AC060F13BC061F1A1
:1028F8003CC062F13DC063F164C13AF065C13BF090
:1029080066C13CF067C13DF060C13EF061C13FF077
:1029180062C140F063C141F060EC1AF03AC0ABF01C
:102928003BC0ACF03CC0ADF03DC0AEF0ABC01DF05C
:10293800ACC01EF0ADC01FF0AEC020F0000E216E7E
:10294800000E226E7A0E236E440E246E1AEC17F0D7
:102958001DC0ABF01EC0ACF01FC0ADF020C0AEF083
:1029680050C14EF051C14FF052C150F053C151F017
:10297800000E526E000E536E200E546E410E556EB0
:10298800C2EC18F04EC0E4F14FC0E5F150C0E6F1DA
:1029980051C0E7F1E4C11DF0E5C11EF0E6C11FF02A
:1029A800E7C120F0000E216E000E226E800E236E0D
:1029B800BF0E246E1AEC17F01DC0D0F11EC0D1F165
:1029C8001FC0D2F120C0D3F1E4C11DF0E5C11EF053
:1029D800E6C11FF0E7C120F0ABC021F0ACC022F087
:1029E800ADC023F0AEC024F0F0EC1EF0D8B009D092
:1029F800E4C1ABF0E5C1ACF0E6C1ADF0E7C1AEF0C3
:102A08001CD0ABC01DF0ACC01EF0ADC01FF0AEC0F6
:102A180020F0D0C121F0D1C122F0D2C123F0D3C11E
:102A280024F0F0EC1EF0D8B008D0D0C1ABF0D1C182
:102A3800ACF0D2C1ADF0D3C1AEF068C154F169C1F8
:102A480055F16AC156F16BC157F160C15CF161C1C2
:102A58005DF162C15EF163C15FF1ABC060F2ACC011
:102A680061F2ADC062F2AEC063F212000101F5512D
:102A7800800B02019A6F0101F551F5250201A56F3E
:102A88000101F4AF02D00201A5810201A5510201A2
:102A9800D8B412D00201A529D8A409D0000E01018A
:102AA800F26F000EF36F000EF46F000EF56F010168
:102AB800F48F000E010108D0000E0101F26F000E24
:102AC800F36F000EF46F000EF56F0101F951800BE2
:102AD80002019A1B0101F951F9250201A66F0101B2
:102AE800F8AF02D00201A6810201A6510201D8B4B2
:102AF80012D00201A629D8A409D0000E0101F66F50
:102B0800000EF76F000EF86F000EF96F0101F88FD5
:102B1800000E010108D0000E0101F66F000EF76FDC
:102B2800000EF86F000EF96F0101F6510101F7115F
:102B38000101F8110101F911D8A417D0000E010103
:102B4800F26F000EF36F000EF46F000EF56F0101C7
:102B5800800EF4137F0EF513F2C1F2F1F3C1F3F115
:102B6800F4C1F4F1F5C1F5F112000201A551020119
:102B7800D8A412D0000E0101F26F000EF36F000E00
:102B8800F46F000EF56FF2C1F2F1F3C1F3F1F4C185
:102B9800F4F1F5C1F5F112000201A6510101FA6F35
:102BA800FB6B0101FA1FFB1FFA4BFB2B0201A5511E
:102BB8000101FC6FFD6B0101FA510101FC270101C4
:102BC800FB510101FD237F0E0101FC2502019F6FCE
:102BD800000E0101FD210201A06FF2C19BF2F3C1B9
:102BE8009CF2F4C19DF2F5C19EF2000E0101F26F54
:102BF800000EF36F000EF46F000EF56F000E020169
:102C0800A16F000EA26F000EA36F000EA46F000E3E
:102C18000201A66F42D00201A6510201D8B417D012
:102C28000201D8909B379C379D379E370101D89079
:102C3800F237F337F437F5370201A4AF02D00101B8
:102C4800F2810201D890A137A237A337A437010136
:102C5800F65102019B5D0101F75102019C590101E6
:102C6800F85102019D590101F95102019E59D8A05C
:102C780012D00201A48D0101F65102019B5F0101EE
:102C8800F75102019C5B0101F85102019D5B0101B2
:102C9800F95102019E5B0201A62B190E0201A665DD
:102CA800BAD702019B5102019C1102019D11020138
:102CB8009E11D8B418D00201A18115D00101D89075
:102CC800F237F337F437F5370201A4AF02D0010128
:102CD800F2810201D890A137A237A337A4370201A5
:102CE8009F07D8A0A0070101F4AFE8D7000E0201A2
:102CF800A66F0201A4AF24D0FF0E0201A1150101A5
:102D0800FA6FFF0E0201A2150101FB6FFF0E02010F
:102D1800A3150101FC6F7F0E0201A4150101FD6FCF
:102D28000101FA510101FB110101FC110101FD1121
:102D3800D8A403D00101F2A103D0010E0201A66FAD
:102D48000201A6510201D8B423D0010E0101F227D5
:102D5800000EF323F423F5230101F5A119D0F2C1E4
:102D6800FAF1F3C1FBF1F4C1FCF1F5C1FDF1010188
:102D7800FD35FD33FC33FB33FA33FAC1F2F1FBC105
:102D8800F3F1FCC1F4F1FDC1F5F102019F4BA02B59
:102D98000201A0BF14D00201A05104E102019F2941
:102DA800D8A00DD0000E0201A06F9F69000E01018E
:102DB800F26F000EF36F000EF46F000EF56F020154
:102DC800A0BF07D00201A05115E102019F05D8B0AC
:102DD80011D0000E0201A06F000E9F6F000E0101BE
:102DE800F26F000EF36F000EF46F000EF56F000E19
:102DF80002019A6F9FC2A5F20201A5A103D00101A9
:102E0800F48F02D00101F49F0201D890A53101018D
:102E1800F56F02019A510101F513F2C1F2F1F3C104
:102E2800F3F1F4C1F4F1F5C1F5F112002050800B73
:102E3800296E205020242F6E1FBE2F802F50D8B40B
:102E48000DD02F28D8A408D0000E1D6E000E1E6EBF
:102E5800000E1F6E000E206E1F8E08D0000E1D6E15
:102E6800000E1E6E000E1F6E000E206E2450800B8A
:102E7800291A245024242A6E23BE2A802A50D8B422
:102E88000DD02A28D8A408D0000E216E000E226E7C
:102E9800000E236E000E246E238E08D0000E216EC5
:102EA800000E226E000E236E000E246E2A50D8B437
:102EB80003D02F50D8A409D0000E1D6E000E1E6E30
:102EC800000E1F6E000E206E120023501D02F3CF5D
:102ED80034F0F4CF35F034502B6E2C6A2D6A2E6AFC
:102EE8003550306E316A326A336A22501E02F3CF8F
:102EF80034F0F4CF35F034502B26000E2C222D223E
:102F08002E2235503026000E312232223322215013
:102F18001F02F3CF34F0F4CF35F034502B26000ED7
:102F28002C222D222E2235503026000E312232221C
:102F380033222DC02EF02CC02DF02BC02CF02B6A84
:102F480021501E02F3CF34F0F4CF35F034502B2645
:102F580035502C22000E2D22000E2E2222501D024A
:102F6800F3CF34F0F4CF35F034502B2635502C22E3
:102F7800000E2D22000E2E222DC02EF02CC02DF07A
:102F88002BC02CF02B6A21501D02F3CF34F0F4CF64
:102F980035F034502B2635502C22000E2D22000EF1
:102FA8002E2223501E02F3CF34F0F4CF35F03450E4
:102FB800302635503122000E3222000E33222250A4
:102FC8001F02F3CF34F0F4CF35F0345030263550AB
:102FD8003122000E3222000E332223501F02F3CF7B
:102FE80034F0F4CF35F03450256E3550266E276A0C
:102FF800286A27C028F026C027F025C026F0256AB1
:10300800255030262650312227503222285033228C
:103018002BC025F02CC026F02DC027F02EC028F09C
:10302800190E05D0D8902832273226322532E82EBC
:10303800F9D72550302626503122275032222850E1
:1030480033222DC02EF02CC02DF02BC02CF02B6A73
:103058002A502FC025F0266A2526000E2622820E29
:103068002524346EFF0E2620356E0FD0D8903036CA
:103078003136323633362EBE3080D8902B362C3649
:103088002D362E363406D8A0350632AEEFD7000ED0
:103098002A6E2EAE16D0FF0E2B14256EFF0E2C14A2
:1030A800266EFF0E2D14276E7F0E2E14286E2550C7
:1030B800261027102810D8A402D030A002D0010E64
:1030C8002A6E2A50D8B41FD0010E3026000E3122A5
:1030D8003222332233A017D030C025F031C026F079
:1030E80032C027F033C028F028342832273226325D
:1030F800253225C030F026C031F027C032F028C074
:1031080033F0344A352A35BE0DD0355003E1342822
:10311800D8A008D0000E306E000E316E800E326ED0
:103128007F0E20D035BE05D035500EE13404D8B01E
:103138000BD0000E306E000E316E000E326E000E97
:10314800336E000E296E0FD034C02FF0FF0E3016EC
:10315800FF0E31167F0E3216000E33162FB0328E48
:10316800D8902F30336E2950331230C01DF031C043
:103178001EF032C01FF033C020F012005150800BF7
:103188000001606F5150512400016B6F50AE02D0A6
:1031980000016B8100016B510001D8B40ED0000111
:1031A8006B29D8A408D0000E4E6E000E4F6E000E8C
:1031B800506E000E516E508E06D0000E4E6E000EF0
:1031C8004F6E000E506E000E516E5550800B000170
:1031D800601B5550552400016C6F54AE02D000019D
:1031E8006C8100016C510001D8B40ED000016C292B
:1031F800D8A408D0000E526E000E536E000E546E06
:10320800000E556E548E06D0000E526E000E536E90
:10321800000E546E000E556E525053105410551037
:10322800D8A415D0000E4E6E000E4F6E000E506ED4
:10323800000E516E800E50127F0E51124EC04EF08D
:103248004FC04FF050C050F051C051F01200000173
:103258006B510001D8A411D0000E4E6E000E4F6EB7
:10326800000E506E000E516E4EC04EF04FC04FF023
:1032780050C050F051C051F0120000016C51566E10
:10328800576A561E571E564A572A00016B51586EE8
:10329800596A56505826575059227F0E5824000113
:1032A800656F000E59200001666F4EC061F04FC077
:1032B80062F050C063F051C064F0000E4E6E000E14
:1032C8004F6E000E506E000E516E000E0001676FBB
:1032D800000E686F000E696F000E6A6F000E000125
:1032E8006C6F37D000016C510001D8B414D00001C4
:1032F800D8906137623763376437D8904E364F3687
:103308005036513600016ABF4E800001D8906737A9
:10331800683769376A3752500001615D53500001C0
:103328006259545000016359555000016459D8A09E
:103338000ED000016A8D52500001615F53500001A8
:10334800625B54500001635B55500001645B0001EF
:103358006C2B190E00016C65C5D700016151000185
:1033680062110001631100016411D8B415D0000185
:10337800678112D0D8904E364F36503651360001FC
:103388006ABF4E800001D8906737683769376A3757
:1033980000016507D8A0660750AEECD7000E000103
:1033A8006C6F00016AAF1BD0FF0E00016715566EE7
:1033B800FF0E00016815576EFF0E00016915586E63
:1033C8007F0E00016A15596E565057105810591043
:1033D800D8A402D04EA003D0010E00016C6F0001EA
:1033E8006C510001D8B420D0010E4E26000E4F2299
:1033F8005022512251A018D04EC056F04FC057F05D
:1034080050C058F051C059F05934593258325732D7
:10341800563256C04EF057C04FF058C050F059C001
:1034280051F00001654B662B000166BF13D0000107
:10343800665104E100016529D8A00CD0000E0001F6
:10344800666F6569000E4E6E000E4F6E000E506E70
:10345800000E516E000166BF07D00001665114E1ED
:1034680000016505D8B010D0000E0001666F000E8F
:10347800656F000E4E6E000E4F6E000E506E000E01
:10348800516E000E0001606F65C06BF000016BA10A
:1034980002D0508E01D0509E0001D8906B31516EF1
:1034A8000001605151124EC04EF04FC04FF050C055
:1034B80050F051C051F012003D50800B4A6E3D5003
:1034C8003D244C6E3CBE4C804C50D8B40DD04C289A
:1034D800D8A408D0000E3A6E000E3B6E000E3C6E6B
:1034E800000E3D6E3C8E06D0000E3A6E000E3B6E0E
:1034F800000E3C6E000E3D6E4150800B4B6E4A50E4
:103508004B18D8A44A8C415041244B6E40BE4B8086
:103518004B50D8B40DD04B28D8A408D0000E3E6E1E
:10352800000E3F6E000E406E000E416E408E06D0BB
:10353800000E3E6E000E3F6E000E406E000E416E95
:103548004C504B5CD8B022D04AAC02D0800E4A1AFC
:103558004CC04DF04BC04CF04DC04BF03AC04DF054
:103568003EC03AF04DC03EF03BC04DF03FC03BF08E
:103578004DC03FF03CC04DF040C03CF04DC040F065
:103588003DC04DF041C03DF04DC041F0000E4D6EC4
:103598004C50426E436A421E431E424A432A4B50D5
:1035A800446E456A425044264350452245BE2CD0BD
:1035B800455004E11A0E445CD8A026D03A503B107E
:1035C8003C103D10D8B402D0010E01D0000E4D6E53
:1035D800000E3A6E000E3B6E000E3C6E000E3D6E05
:1035E8004BC04CF015D04DA005D0D8904D300109F6
:1035F8004D6E02D0D8904D323AB04D8E3D343D32AA
:103608003C323B323A324C2A4B504C5CD8A0EBD778
:103618004ABC29D04C50D8A409D0000E3A6E000EEE
:103628003B6E000E3C6E000E3D6E12003E503A2678
:103638003F503B2240503C2241503D223DA083D088
:103648004DA006D0D8904D324D5001094D6E02D094
:10365800D8904D323AB04D8E3D343D323C323B32FB
:103668003A324C2A70D03E503A5C3F503B5840505A
:103678003C583D50800A426E4150800A4258D8B0AA
:1036880036D03AC042F03BC043F03CC044F03DC0A5
:1036980045F0421E431E441E451E422A000E432288
:1036A800442245223E504224466E3F504320476EF6
:1036B80040504420486E41504520496EFF0E462434
:1036C8003A6EFF0E47203B6EFF0E48203C6EFF0E01
:1036D80049203D6E800E4A1A4D6C4D50D8A40FD02B
:1036E800010E3A26000E3B223C223D2208D03E50D5
:1036F8003A5E3F503B5A40503C5A41503D5A3A502E
:103708003B103C103D10D8A41CD04D50D8A419D063
:10371800000E3A6E000E3B6E000E3C6E000E3D6EC3
:103728001200D8903A363B363C363D364DBE3A808C
:103738004DA002D0D88001D0D8904D364C50D8A496
:103748004C063CAEEED7000E4B6E4DAE0AD04DC0C7
:1037580042F07F0E4216D8A402D03AA002D0010E41
:103768004B6E4B50D8B420D0010E3A26000E3B22A7
:103778003C223D223DA018D03AC042F03BC043F065
:103788003CC044F03DC045F04534453244324332F4
:10379800423242C03AF043C03BF044C03CF045C01E
:1037A8003DF04C28D8A44C2A4C28D8B403D04C500F
:1037B800D8A40DD0000E3A6E000E3B6E000E3C6E83
:1037C800000E3D6E4C50D8A402D0000E4A6E4CA09C
:1037D80002D03C8E01D03C9ED8904C303D6E4ABE03
:1037E8003D8E3AC03AF03BC03BF03CC03CF03DC097
:1037F8003DF012000101EC6F0101EC510101D8B458
:103808001ED000019AAF1BD097C0E8F198C0E9F12B
:1038180099C0EAF19AC0EBF10101E81FE91FEA1F1C
:10382800EB1FE82B000EE923EA23EB23E8C1EEF1B6
:10383800E9C1EFF1EAC1F0F1EBC1F1F108D097C0AD
:10384800EEF198C0EFF199C0F0F19AC0F1F10001E2
:103858009751000198110001991100019A11D8A4FB
:103868000AD0000E0001976F000E986F000E996F36
:10387800000E9A6F1200960E0101ED6F08D001013B
:10388800ED2B0101D890F133F033EF33EE33000E16
:103898000101EE150101E86F000E0101EF150101AC
:1038A800E96F000E0101F0150101EA6FFE0E01013A
:1038B800F1150101EB6F0101E8510101E911010165
:1038C800EA110101EB11D8B410D0D9D70101ED2BC1
:1038D800010E0101EE27000EEF23F023F123010171
:1038E800D890F133F033EF33EE33000E0101EE15CB
:1038F8000101E86F000E0101EF150101E96F000EEB
:103908000101F0150101EA6FFF0E0101F115010136
:10391800EB6F0101E8510101E9110101EA1101010F
:10392800EB11D8B409D0D2D70101ED070101D89025
:10393800EE37EF37F037F1370101F0BF04D0020E50
:103948000101ED61F1D70101EDB109D0FF0E0101CF
:10395800EE17FF0EEF177F0EF017FF0EF11701019C
:10396800D890ED33EDC1E8F10101E96BEA6BEB6B3F
:10397800E8C1EBF10101EA6BE96BE86B0101E85181
:103988000101EE130101E9510101EF130101EA51AF
:103998000101F0130101EB510101F1130101EC5197
:1039A8000101D8B405D000019AAF02D00101F18F0E
:1039B800EEC197F0EFC198F0F0C199F0F1C19AF01B
:1039C8001200000E0101F2150101FA6F000E01014B
:1039D800F3150101FB6F800E0101F4150101FC6F65
:1039E8007F0E0101F5150101FD6F0101FA51010179
:1039F800FB110101FC110101FD11D8A409D0000E31
:103A08000101F26F000EF36F000EF46F000EF56FF8
:103A1800000E0101F6150101FA6F000E0101F715FC
:103A28000101FB6F800E0101F8150101FC6F7F0E8B
:103A38000101F9150101FD6F0101FA510101FB11A5
:103A48000101FC110101FD11D8A409D0000E0101EA
:103A5800F66F000EF76F000EF86F000EF96F010198
:103A6800F5AF26D0F2C1FAF1F3C1FBF1F4C1FCF1D4
:103A7800F5C1FDF10101FA1FFB1FFC1FFD1FFA2B09
:103A8800000EFB23FC23FD23000E0101FA25010192
:103A9800F26F000E0101FB210101F36F000E01011D
:103AA800FC210101F46F800E0101FD210101F56F78
:103AB8000101F9AF26D0F6C1FAF1F7C1FBF1F8C15F
:103AC800FCF1F9C1FDF10101FA1FFB1FFC1FFD1FED
:103AD800FA2B000EFB23FC23FD23000E0101FA251F
:103AE8000101F66F000E0101FB210101F76F000EC5
:103AF8000101FC210101F86F800E0101FD21010186
:103B0800F96F000E0101F21B000EF31B000EF41BEF
:103B1800800EF51B000E0101F61B000EF71B000EB0
:103B2800F81B800EF91B0101F6510101F25D01013C
:103B3800F7510101F3590101F8510101F45901014B
:103B4800F9510101F559D8B002D0D8901200D880A7
:103B58001200176E1750D8A412AE1AD00FC013F067
:103B680010C014F011C015F012C016F0131E141E68
:103B7800151E161E132A000E14221522162213C013
:103B880019F014C01AF015C01BF016C01CF008D0AC
:103B98000FC019F010C01AF011C01BF012C01CF0B1
:103BA8000F50101011101210D8A409D0000E0F6E6B
:103BB800000E106E000E116E000E126E1200960EA0
:103BC800186E06D0182AD8901C321B321A321932B5
:103BD800000E1914136E000E1A14146E000E1B1426
:103BE800156EFE0E1C14166E1350141015101610B8
:103BF800D8B40DD0E7D7182A010E1926000E1A22BC
:103C08001B221C22D8901C321B321A321932000E89
:103C18001914136E000E1A14146E000E1B14156E70
:103C2800FF0E1C14166E1350141015101610D8B46D
:103C380007D0E1D71806D89019361A361B361C3625
:103C48001BBE03D0020E1860F5D718B008D0FF0EBF
:103C58001916FF0E1A167F0E1B16FF0E1C16D8908B
:103C6800183218C013F0146A156A166A13C016F0D1
:103C7800156A146A136A1350191214501A1215503F
:103C88001B1216501C121750D8A412AE01D01C8E4D
:103C980019C00FF01AC010F01BC011F01CC012F0B0
:103CA8001200E5EC22F08D828A848B8C8B828B84C7
:103CB8008C928C9E000E0101A96FC80EA86F000E91
:103CC8000101A56FC80EA46F000E0101A76F000EB9
:103CD800A66F000E0101A36F000EA26F000E010176
:103CE8009F6F000E9E6F000E0101A16F000EA06F66
:103CF800FA0E0101746FFF0E756F000E766F000EDD
:103D0800776FFF0E0101706FFF0E716F000E726FFB
:103D1800000E736F0001C669000E0001CC6F000E23
:103D2800CB6F000E0101AD6F000EAC6F000E0201EB
:103D3800306F000E316F000E326F000E336F000EC1
:103D48000101836F000E826F000E0101AB6F000E40
:103D5800AA6FD08EF1949F90A2829F928B8C8B92A7
:103D6800E00E0201CA6F000EC96FAAEC24F08B8224
:103D7800420EE82EFED700D08B926A0EE82EFED7B0
:103D880000D08B82420EE82EFED700D08B928B8219
:103D9800420EE82EFED700D08B921F0E0201CA6F8A
:103DA800000EC96FAAEC24F08B82420EE82EFED7D3
:103DB80000D08B922A0E0201CA6FC969AAEC24F0BE
:103DC8008B82E8EC24F0F28EF28C9D80F2888FECE6
:103DD80024F08B808998FFD7000E1D14256E000EE5
:103DE8001E14266E800E1F14276E7F0E2014286E58
:103DF8002550261027102810D8A408D0000E1D6EB4
:103E0800000E1E6E000E1F6E000E206E000E211496
:103E1800256E000E2214266E800E2314276E7F0E48
:103E28002414286E2550261027102810D8A408D04E
:103E3800000E216E000E226E000E236E000E246E00
:103E480020AE1DD01DC025F01EC026F01FC027F0D3
:103E580020C028F0251E261E271E281E252A000EF3
:103E6800262227222822000E25241D6E000E262039
:103E78001E6E000E27201F6E800E2820206E24AE96
:103E88001DD021C025F022C026F023C027F024C071
:103E980028F0251E261E271E281E252A000E26224B
:103EA80027222822000E2524216E000E2620226EAD
:103EB800000E2720236E800E2820246E000E1D1A67
:103EC800000E1E1A000E1F1A800E201A000E211A4C
:103ED800000E221A000E231A800E241A21501D5C8F
:103EE80022501E5823501F5824502058D8B002D0B2
:103EF800D8901200D88012000201A935AA35010114
:103F0800FF6F0101FF51D8A40AD0000E0201A76F6C
:103F1800000EA86F000EA96F000EAA6F1200A7C2AC
:103F2800ABF2A8C2ACF2A9C2ADF2AAC2AEF2200EA0
:103F380006D00201D890AE33AD33AC33AB33E82EA4
:103F4800F8D70201AB510101FE6F0201A98FFF0EE4
:103F58000201A717FF0EA817FF0EA917000EAA1730
:103F6800960E0101FF5F0101FFAF1AD00101FF5159
:103F7800800A970FD8B00AD0000E0201A76F000E72
:103F8800A86F000EA96F000EAA6F12000201D89048
:103F9800AA33A933A833A7330101FF3FF7D71BD0B2
:103FA8001F0E0101FF6512D0000E0201A76F000E5F
:103FB800A86F000EA96F000EAA6F12000201D89018
:103FC800A737A837A937AA370101FF070101FF5111
:103FD8000101D8A4F3D70101FE510101D8B409D0D9
:103FE8000201AA1FA91FA81FA76D000EA823A923B5
:103FF800AA23A7C2A7F2A8C2A8F2A9C2A9F2AAC274
:10400800AAF212009A8E87827E7B79767473716F1A
:104018006E6D6B6A69686766656564636262616034
:104028005F5F5E5E5D5C5C5B5B5A5A5959585857D6
:10403800575756565555545454535352525251513A
:10404800515050504F4F4E4E4E4D4D4D4D4C4C4C87
:104058004B4B4B4A4A4A49494949484848474747C8
:104068004746464645454545444444444343434200
:1040780042424241414141404040403F3F3F3E3E35
:104088003E3E3D3D3D3D3C3C3C3C3B3B3B3B3A3A68
:104098003A3A39393938383838373737373636369B
:1040A80036353535343434343333333232323231D1
:1040B80031313030302F2F2F2F2E2E2E2D2D2D2C0D
:1040C8002C2C2B2B2B2A2A29292928282827272654
:1040D8002626252524242323232222212120201FAC
:1040E8001E1E1D1D1C1C1B1A1A191817171615142D
:1040F800131211100F0E0C0B090806040200FDF92B
:10410800F4EDE2005C345D340001726F000172511D
:10411800D8A409D0000E5A6E000E5B6E000E5C6EBD
:10412800000E5D6E12005AC06DF05BC06EF05CC090
:104138006FF05DC070F0200E06D00001D89070338B
:104148006F336E336D33E82EF8D700016D510001DF
:10415800716F5C8EFF0E5A16FF0E5B16FF0E5C1613
:10416800000E5D16960E0001725F000172AF18D046
:1041780000017251800A970FD8B009D0000E5A6E0C
:10418800000E5B6E000E5C6E000E5D6E1200D89025
:104198005D325C325B325A320001723FF8D719D077
:1041A8001F0E0001726510D0000E5A6E000E5B6E75
:1041B800000E5C6E000E5D6E1200D8905A365B36AB
:1041C8005C365D3600017207000172510001D8A407
:1041D800F4D7000171510001D8B408D05D1E5C1EEF
:1041E8005B1E5A6C000E5B225C225D225AC05AF09C
:1041F8005BC05BF05CC05CF05DC05DF01200000E5F
:104208000101E96F00019AAF08D00001996D9A1F6A
:10421800D8B09A2B010E0101E96F000198AF08D0C0
:104228000001976D981FD8B0982B010E0101E91B6A
:10423800000E0101EB6F000EEA6F000199510001B9
:104248009A11D8B42CD0010E0101E86F06D00001F4
:10425800D89099379A370101E82B00019AAFF7D720
:104268000101D890EA37EB37000199510001975DB9
:1042780000019A5100019859D8A00AD0000199511B
:104288000001975F00019A510001985B0101EA81E2
:104298000001D8909A3399330101E82FE1D7010141
:1042A800E9510101D8B405D00101EA6DEB1FD8B07E
:1042B800EB2BEAC197F0EBC198F012005E0EF66E98
:1042C800220EF76E000EF86E04EE00F014EE4CF0BD
:1042D8000900F5CFEEFFE550E150FAE1E250F8E1D0
:1042E8000C0EF66E400EF76E000EF86E03EE00F040
:1042F80011EE00F00900F5CFEEFFE550E150FAE1CC
:10430800E250F8E1BE0EF66E480EF76E000EF86E3B
:1043180001EEC8F010EE20F00900F5CFEEFFE550F1
:10432800E150FAE1720EF66E4A0EF76E000EF86E64
:104338000900F5CFCDF00900F5CFCEF002EE00F080
:104348009A0EEE6AE806FDE101EE00F0C80EEE6A8C
:10435800E806FDE100EE9BF0320EEE6AE806FDE1AC
:104368005E6A5F905F92000EF86E000155EF1EF0D6
:104378000B0E25EC24F001C08CF102C08DF1D89011
:1043880001018C35D96E01018D35DA6E4C0ED926B6
:10439800060EDA22DECF73F0DDCF74F073C00FF0B3
:1043A80074C010F0116A126A000EADEC1DF00FC057
:1043B80048F110C049F111C04AF112C04BF1000E8A
:1043C8003E6E800E3F6E880E406EC30E416E48C131
:1043D8003AF049C13BF04AC13CF04BC13DF060ECBA
:1043E8001AF03AC05AF03BC05BF03CC05CF03DC0EC
:1043F8005DF086EC20F05A500101926F936B120029
:10440800000E0C6E0AAE06D0096C0A1ED8B00A2A35
:10441800010E0C6E08AE06D0076C081ED8B0082A2C
:10442800010E0C1A000E0E6E000E0D6E09500A10C9
:10443800D8B41CD0010E0B6E04D0D89009360A36B9
:104448000B2A0AAEFAD7D8900D360E360950075CFB
:104458000A500858D8A005D00950075E0A50085AD3
:104468000D80D8900A3209320B2EEDD70C50D8B4F3
:1044780004D00D6C0E1ED8B00E2A0DC007F00EC069
:1044880008F01200B40E00D0E82EFDD7080E25EC77
:1044980024F001505E6E5E50930F5E6E5E28D8B4B5
:1044A80012005E50040D000EF324D96E040EF420A1
:1044B800DA6EDECF34F1DECF35F1DECF36F1DECF86
:1044C80037F134C11DF035C11EF036C11FF037C1B8
:1044D80020F0000E216E000E226E800E236E3F0E1D
:1044E800246EF0EC1EF0D8B01200000E0101346FFB
:1044F800000E356F800E366F3F0E376F1200050EB7
:1045080025EC24F001C098F102C099F1000E0A6E62
:10451800640E096E98C101F099C102F0000E046E94
:10452800310E036E3AEC24F07E0E0124076EFE0E67
:104538000220086E04EC22F007C00FF008C010F04B
:10454800000E10BEFF0E116E126E010EADEC1DF0C6
:104558000FC0C4F110C0C5F111C0C6F112C0C7F137
:104568001200076E000E086E35EC25F0075005ECBA
:1045780025F0065005EC25F00BEC25F00009D8A431
:1045880011D031EC25F01200DFEC24F00850010DB9
:10459800F3500324D96EF4500420DA6EDF5005EC92
:1045A80025F0082A0550085CD8A0EED70BEC25F0BA
:1045B8000009D8A403D031EC25F0120031EC25F025
:1045C80012002F0E926E3B0E936E900E946E680E34
:1045D800956E010E966EA60EE82EFED700D0000E40
:1045E8000F01386F000E0F01396F000E0F013A6F7F
:1045F800000E0F013B6F000E0F013C6FC5EC23F05E
:10460800D6EC24F0C2EC24F0F0EC24F0C30EBB6E20
:104618009DEC24F025EC25F012000001C62B0101C9
:10462800AC510101AD11D8B41200020E0001C61937
:10463800D8A406D0000E026E000E016E1BEC25F009
:10464800030E0001C619D8A40ED06FEC24F001C0E7
:10465800C9F002C0CAF0FE0E026E0C0E016E16EC16
:1046680025F0A192A082000E0101BD6F010EBC6F62
:104678001200000E066E000E056E03500410D8B42A
:104688001CD0010E076E04D0D89003360436072AD2
:1046980004AEFAD7D890053606360350015C0450AC
:1046A8000258D8A005D00350015E0450025A058074
:1046B800D89004320332072EEDD705C001F006C0AA
:1046C80002F012000001956F2DEC25F000019551C4
:1046D800F8EC24F000019451F8EC24F0FFEC24F0FD
:1046E8000009D8A404D08B9029EC25F01200000111
:1046F8009351F8EC24F0FFEC24F00009D8A403D07F
:1047080029EC25F0120029EC25F01200056E35EC95
:1047180025F0055005EC25F0045005EC25F00BECD0
:1047280025F00009D8A404D08B9031EC25F01200B4
:10473800035005EC25F00BEC25F00009D8A403D0B4
:1047480031EC25F0120031EC25F0120000019151F6
:1047580000019303F3CF95F0F4CF96F00001915147
:1047680000019403F35000019627000192510001C3
:104778009303F3500001962795C091F096C092F0EC
:1047880012000F0138810F0138830F0138870F019C
:10479800388B0F013C810F013989C09EF30EC11679
:1047A800FC0EC116C080C082C094C050C70B20093F
:1047B800C06EC28012000001946F94C093F0000193
:1047C80093479347C25000019319830B9319C26E04
:1047D800210EE82EFED700F0C282C2B2FED7C4CFA7
:1047E80091F00001926B12003650371038103910D2
:1047F800D8B408D0000E361A000E371A000E381A30
:10480800800E391A36C036F037C037F038C038F065
:1048180039C039F01200050E25EC24F001C096F1DC
:1048280002C097F1000E01019625D96E030E010111
:104838009721DA6EDF50056E05500001B96FBA6B2B
:104848001200046E04C003F003460346C250031866
:10485800830B0318C26E210EE82EFED700F0C28229
:10486800C2B2FED7C4CF01F0026A1200015003029F
:10487800F3CF05F0F4CF06F001500402F3500626FA
:1048880002500302F350062605C001F006C002F0EC
:104898001200020E25EC24F001500001C06F700ECA
:1048A8000001C06104D0010E0001BF6F1200000EAC
:1048B8000001BF6F12000000803F295C8F3D00009F
:1048C80096C3295C8F3D010023002300E8034C04B4
:1048D800E80500009643D650D7CF03F0046A03C01A
:1048E80004F0036A0310056E0450066E05C001F05B
:1048F80006C002F01200CE50CFCF03F0046A03C006
:1049080004F0036A0310056E0450066E05C001F03A
:1049180006C002F01200000E0F013B6F95809582D1
:10492800280E6C6E000E6B6E630E6E6E000E6D6E52
:104938001200A092B19AB188B1963F0EB116B18219
:10494800000EB26E000EB36EB18012000201CA51A1
:1049580011EC25F0C80EE82EFED70201C95111EC62
:1049680025F01200B40E00D0E82EFDD7000EDFECC3
:1049780023F091C0B7F092C0B8F012009D90CD8A94
:10498800CD98CD963F0ECD16CD82CD80F286120001
:104998006DB4FED76BCF91F01F0E00019117D8B4FC
:1049A8001200F6D7D590D592D594D59CD596D598A2
:1049B800D59AD58E12006DB4FED76BCF01F01F0EBD
:1049C8000116D8B41200F7D7310EC66E000EC76EA6
:1049D80094969488949A1200BA86BA88BA8ABA8C3D
:1049E800BA80BA82BA8412000001926FCCEC24F02B
:1049F80092C06FFF12006BBC02D0010E1200000EB5
:104A08001200026EDFEC24F002C06FFF12006BBCD4
:104A180002D0010E1200000E12000201C86FC8C2B7
:104A2800C9FF12000250B36E01C0B2FF120002505B
:104A3800D76E01C0D6FF12000250CF6E01C0CEFF64
:104A480012009380F19CF2861200CCEC24F06B8467
:104A58001200CCEC24F06B801200DFEC24F06B84A5
:0C4A68001200DFEC24F06B801200530001
:10EA4E0000000048430000484300004843000048CF
:10EA5E00430000484300004843000048430000487C
:10EA6E00430000484300004843000038410000388E
:10EA7E0041000038410000384100003841000038A4
:10EA8E004100003841000038410000384100003894
:10EA9E004100003841000038410000384100003884
:10EAAE004100003841000038410000384100003874
:10EABE004100003841000038410000384100003864
:10EACE004100003841000038410000384100003854
:10EADE004100003841000038410000384100003844
:10EAEE004100003841000038410000384100003834
:10EAFE004100003841000038410000384100003824
:10EB0E004100003841000038410000384100003813
:10EB1E004100003841000038410000384100003803
:10EB2E0041000038410000384100003841000038F3
:10EB3E0041000038410000384100003841000038E3
:10EB4E0041000038410000384100003841000038D3
:10EB5E0041000038410000384100003841000038C3
:10EB6E0041000038410000384100003841000038B3
:10EB7E0041000038410000384100003841000038A3
:10EB8E004100003841000038410000384100003893
:10EB9E004100003841000038410000384100003883
:10EBAE004100003841000038410000384100003873
:10EBBE004100003841000038410000384100003863
:10EBCE004100003841000038410000384100003853
:10EBDE0041CDCC5841CDCC5841CDCC5841000058F8
:10EBEE0041000058410000584100005841000058B3
:10EBFE00410000584100005841C3F55441CDCC545A
:10EC0E0041A4705541D7A35441D7A35441AE4755A3
:10EC1E0041AE475541CDCC5441AE475541AE475517
:10EC2E0041713D4E417B144E410AD74F413D0A4F33
:10EC3E00413D0A4F41D7A35041D7A3504114AE4F87
:10EC4E0041E17A5041E17A50417B14464185EB45D2
:10EC5E0041D7A34841000048410000484152B84AFC
:10EC6E004152B84A41AE47494152B84A4152B84A58
:10EC7E00419A993D41A4703D41C3F54041D7A3400F
:10EC8E0041D7A34041EC514441EC5144413D0A432C
:10EC9E0041C3F54441C3F544417B1436417B1436E0
:10ECAE00417B143A417B143A417B143A417B143E2A
:10ECBE00417B143E417B143E410000404100004028
:10ECCE0041F6283041D7A33041EC513441CDCC34FC
:10ECDE0041CDCC3441E17A3841E17A384148E13ACC
:10ECEE0041D7A33C41D7A33C41EC512C41AE472D1B
:10ECFE004100003041C3F53041C3F53041000034CE
:10ED0E004100003441A47039415C8F3A415C8F3A26
:10ED1E00418FC22941295C2B41B81E2D41713D2ED8
:10ED2E004166662E41E17A3041EC513041CDCC380E
:10ED3E0041A4703941A4703941E17A28415C8F2A8F
:10ED4E0041295C2B41CDCC2C41CDCC2C418FC22DF9
:10ED5E00418FC22D41D7A33841CDCC3841CDCC38CF
:10ED6E0041000038410000384100003841000038B1
:10ED7E0041000038410000384100003841000038A1
:10ED8E004152B83A41AE473D417B1436417B143671
:10ED9E00413D0A37413D0A37411F8537411F8537AF
:10EDAE00411F8537411F8537418FC23941F6283CB7
:10EDBE0041F6283441E17A34418FC235417B143615
:10EDCE0041333337413333374133333741333337BD
:10EDDE0041C3F538413D0A3B41713D324152B83293
:10EDEE0041E17A3441C3F5344148E1364148E136D8
:10EDFE004148E1364148E13641EC5138417B143A05
:10EE0E0041EC513041B81E3141333333410AD733CF
:10EE1E00415C8F36415C8F36415C8F36415C8F365C
:10EE2E004114AE3741B81E39415C8F2E4114AE2FBE
:10EE3E00418FC231415C8F3241713D3641713D3659
:10EE4E0041713D3641713D36413D0A3741EC5138F5
:10EE5E0041D7A32C417B142E41EC513041A470318B
:10EE6E004185EB354185EB354185EB354185EB35FC
:10EE7E00415C8F36411F85374148E12A41D7A32C8B
:10EE8E004148E12E41EC5130418FC235418FC235A0
:10EE9E00418FC235418FC235417B14364152B8364F
:10EEAE0041C3F528413D0A2B41A4702D4133332F28
:10EEBE0041A4703541A4703541A4703541A470351C
:10EECE00419A9935417B143641333327419A99291A
:10EEDE0041F6282C41713D2E41B81E3541B81E35E4
:10EEEE0041B81E3541B81E3541AE473541A4703587
:10EEFE0041AE4725410000284152B82A41AE472D68
:10EF0E0041CDCC3441CDCC3441CDCC3441CDCC34BB
:10EF1E0041CDCC3441CDCC3441295C2341666626AB
:10EF2E0041A4702941E17A2C41E17A3441E17A34ED
:10EF3E0041E17A3441E17A3441EC513441F62834DE
:10EF4E0041A4702141CDCC2441F628284114AE2B8A
:10EF5E0041000034410000344100003441000034CF
:10EF6E00410AD7334114AE3341295C1F413D0A2378
:10EF7E00413D0A274133332B411F8533411F8533D2
:10EF8E00411F8533411F853341295C33413D0A338F
:10EF9E0041A4701D41A470214185EB25415C8F2A4F
:10EFAE00413D0A33413D0A33413D0A33413D0A3367
:10EFBE004148E132415C8F32411F851B4114AE1F27
:10EFCE0041CDCC24417B142A415C8F32415C8F327F
:10EFDE00415C8F32415C8F3241666632417B143226
:10EFEE00419A9919417B141E4114AE23419A9929D5
:10EFFE00417B1432417B1432417B1432417B1432FB
:10F00E004185EB31419A99314114AE1741E17A1C99
:10F01E004152B82241AE4729419A9931419A9931CC
:10F02E00419A9931419A993141A4703141AE47319B
:10F03E004185EB154148E11A418FC22141CDCC28C3
:10F04E0041C3F53041C3F53041C3F53041C3F5300E
:10F05E0041C3F53041CDCC3041EC511441A470196F
:10F06E0041C3F52041E17A2841E17A3041E17A301D
:10F07E0041E17A3041E17A3041E17A3041EC513070
:10F08E004152B812410000184100002041000028F2
:10F09E00410000304100003041000030410000309E
:10F0AE00410000304100003041AE47114152B816C8
:10F0BE004133331F411F8527411F852F411F852F48
:10F0CE00411F852F411F852F411F852F4114AE2FC4
:10F0DE0041000010419A991541713D1E413D0A278C
:10F0EE00413D0A2F413D0A2F413D0A2F413D0A2F36
:10F0FE00413D0A2F4133332F4148E10E41E17A144D
:10F10E0041A4701D415C8F26415C8F2E415C8F2E79
:10F11E00415C8F2E415C8F2E4152B82E4148E12E1C
:10F12E004185EB0D4114AE1341D7A31C4185EB2550
:10F13E0041713D2E41713D2E41713D2E41713D2E4D
:10F14E004166662E415C8F2E41AE470D413D0A133E
:10F15E00410AD71B41AE4725418FC22D418FC22D8B
:10F16E00418FC22D418FC22D4185EB2D41713D2E18
:10F17E0041CDCC0C415C8F124133331B41E17A24DB
:10F18E0041A4702D41A4702D41A4702D41A4702D69
:10F19E00419A992D4185EB2D41E17A0C41713D1239
:10F1AE004166661A411F852341AE472D41AE472D5C
:10F1BE0041AE472D41AE472D41A4702D419A992D58
:10F1CE0041E17A0C417B1412419A9919415C8F22CC
:10F1DE0041C3F52C41C3F52C41C3F52C41C3F52C8D
:10F1EE0041B81E2D41A4702D41CDCC0C41713D1264
:10F1FE0041CDCC1841AE472141CDCC2C41CDCC2CAC
:10F20E0041CDCC2C41CDCC2C41C3F52C41B81E2D7B
:10F21E0041AE470D4152B812410000184100002086
:10F22E0041CDCC2C41CDCC2C41CDCC2C41CDCC2CB8
:10F23E0041CDCC2C41CDCC2C41AE470D4152B81214
:10F24E00410000184100002041CDCC2C41CDCC2CEA
:10F25E0041CDCC2C41CDCC2C41CDCC2C41CDCC2C88
:10F26E0041AE470D4152B812410000184100002036
:10F27E0041CDCC2C41CDCC2C41CDCC2C41CDCC2C68
:10F28E0041CDCC2C41CDCC2C41AE470D4152B812C4
:10F29E00410000184100002041CDCC2C41CDCC2C9A
:10F2AE0041CDCC2C41CDCC2C41CDCC2C41CDCC2C38
:10F2BE0041AE470D4152B8124100001841000020E6
:10F2CE0041CDCC2C41CDCC2C41CDCC2C41CDCC2C18
:10F2DE0041CDCC2C41CDCC2C41AE470D4152B81274
:10F2EE00410000184100002041CDCC2C41CDCC2C4A
:10F2FE0041CDCC2C41CDCC2C41CDCC2C41CDCC2CE8
:10F30E0041AE470D4152B812410000184100002095
:10F31E0041CDCC2C41CDCC2C41CDCC2C41CDCC2CC7
:10F32E0041CDCC2C41CDCC2C41AE470D4152B81223
:10F33E00410000184100002041CDCC2C41CDCC2CF9
:10F34E0041CDCC2C41CDCC2C41CDCC2C41CDCC2C97
:10F35E0041AE470D4152B812410000184100002045
:10F36E0041CDCC2C41CDCC2C41CDCC2C41CDCC2C77
:10F37E0041CDCC2C41CDCC2C41AE470D4152B812D3
:10F38E00410000184100002041CDCC2C41CDCC2CA9
:10F39E0041CDCC2C41CDCC2C41CDCC2C41CDCC2C47
:10F3AE0041AE470D4152B8124100001841000020F5
:10F3BE0041CDCC2C41CDCC2C41CDCC2C41CDCC2C27
:10F3CE0041CDCC2C41CDCC2C41AE470D4152B81283
:10F3DE00410000184100002041CDCC2C41CDCC2C59
:10F3EE0041CDCC2C41CDCC2C41CDCC2C41CDCC2CF7
:10F3FE0041AE470D4152B8124100001841000020A5
:10F40E0041CDCC2C41CDCC2C41CDCC2C41CDCC2CD6
:10F41E0041CDCC2C41CDCC2C41AE470D4152B81232
:10F42E00410000184100002041CDCC2C41CDCC2C08
:10F43E0041CDCC2C41CDCC2C41CDCC2C41CDCC2CA6
:10F44E0041AE470D4152B812410000184100002054
:10F45E0041CDCC2C41CDCC2C41CDCC2C41CDCC2C86
:10F46E0041CDCC2C41CDCC2C41AE470D4152B812E2
:10F47E00410000184100002041CDCC2C41CDCC2CB8
:10F48E0041CDCC2C41CDCC2C41CDCC2C41CDCC2C56
:10F49E004100004843000048430000484300004834
:10F4AE004300004843000048430000484300004822
:10F4BE004300004843000048430000384100003834
:10F4CE00410000384100003841000038410000384A
:10F4DE00410000384100003841000038410000383A
:10F4EE00410000384100003841000038410000382A
:10F4FE00410000384100003841000038410000381A
:10F50E004100003841000038410000384100003809
:10F51E0041000038410000384100003841000038F9
:10F52E0041000038410000384100003841000038E9
:10F53E0041000038410000384100003841000038D9
:10F54E0041000038410000384100003841000038C9
:10F55E0041000038410000384100003841000038B9
:10F56E0041000038410000384100003841000038A9
:10F57E004100003841000038410000384100003899
:10F58E004100003841000038410000384100003889
:10F59E004100003841000038410000384100003879
:10F5AE004100003841000038410000384100003869
:10F5BE004100003841000038410000384100003859
:10F5CE004100003841000038410000384100003849
:10F5DE004100003841000038410000384100003839
:10F5EE004100003841000038410000384100003829
:10F5FE004100003841000038410000384100003819
:10F60E004100003841000038410000384100003808
:10F61E0041000038410000384100003841000038F8
:10F62E00418FC22D411F852F4114AE2F415C8F3269
:10F63E00415C8F32415C8F3241000038410AD7372E
:10F64E00411F853741295C37410000284100002CBD
:10F65E0041D7A32C4152B8324152B8324152B8323E
:10F66E0041000038410000384100003841000038A8
:10F67E0041C3F5244166662A41E17A2C413D0A33A5
:10F68E0041295C3341295C334100003841CDCC38EF
:10F69E004148E13A411F853B41EC512441713D2ADD
:10F6AE004166662E4133333341EC513441F62834F2
:10F6BE004114AE37418FC2394114AE3F41B81E419D
:10F6CE0041AE4725413D0A2B41B81E314148E1323A
:10F6DE0041CDCC3441D7A3344148E1364166663A38
:10F6EE0041B81E45413D0A474148E126410AD72B04
:10F6FE004152B83241AE473141F6283441F62834F2
:10F70E0041B81E35418FC239417B144A4114AE4B6C
:10F71E00410000284100002C417B1432417B142E05
:10F72E00417B1432417B1432417B143241295C37C8
:10F73E0041AE474D41AE474D410000284148E12AB8
:10F74E00419A992D41D7A328418FC22D4185EB2D8A
:10F75E0041A4702D4152B832417B144E4148E14ACA
:10F76E004133332741C3F528415C8F264185EB2178
:10F77E004100002841E17A284100002841EC512C3B
:10F78E0041D7A34C41AE4745417B14264152B82682
:10F79E0041713D1E4166661A41B81E2141713D22DE
:10F7AE00417B142241AE472541A470494166663E15
:10F7BE0041AE472541EC5124417B1416413D0A13BD
:10F7CE00418FC219410AD71B41EC511C4166661E7E
:10F7DE0041C3F5444114AE3741AE47254152B822DC
:10F7EE0041295C0F41D7A30C4152B812417B14162C
:10F7FE0041295C1741D7A318410000404152B8324D
:10F80E00415C8F264185EB21413D0A0B4114AE0729
:10F81E0041EC510C41AE4711411F851341D7A31442
:10F82E004148E13A41D7A33041E17A284185EB21A5
:10F83E0041CDCC0841EC51044148E106418FC20D47
:10F84E0041CDCC104185EB11418FC23541CDCC302D
:10F85E004152B82A41713D224114AE0741713D0219
:10F86E004152B80241295C0B4148E10E41EC511066
:10F87E0041C3F530417B143241E17A2C415C8F2239
:10F88E004152B80641AE470141F62800419A990906
:10F89E0041AE470D4133330F41EC512C413D0A33FC
:10F8AE0041AE472D4152B82241AE470541AE470108
:10F8BE004152B8FE40D7A3084100000C417B140E04
:10F8CE00410000284152B83241CDCC2C41713D222D
:10F8DE004152B80241713D0241EC510041EC5108D8
:10F8EE004152B80A41E17A0C41EC512441F62830DC
:10F8FE004133332B41A470214152B8FE401F850382
:10F90E004152B80241EC510841A470094148E10A44
:10F91E0041A4702141EC512C41B81E2941D7A3209E
:10F92E004114AEF740B81E0541A4700541E17A08B6
:10F93E0041EC510841A470094100002041EC5128CE
:10F94E00413D0A27410000204185EBF140666606E5
:10F95E004114AE0741D7A308411F850741EC51085A
:10F96E0041EC5120419A992541AE47254100002096
:10F97E004152B8EE40295C0741D7A30841D7A308EE
:10F98E0041295C07410000084152B82241AE47258B
:10F99E0041E17A2441D7A3204152B8EE40295C07B9
:10F9AE00410AD70741EC51084114AE0741E17A08EC
:10F9BE0041295C2741EC512841EC51244185EB2132
:10F9CE0041C3F5F04052B806419A9905411F85078B
:10F9DE0041E17A0841A47009419A992D419A992DD5
:10F9EE0041D7A3244133332341F628F440B81E05F2
:10F9FE00415C8F02415C8F0641AE47094152B80A05
:10FA0E0041000034410AD73341B81E2541E17A2422
:10FA1E00416666F64052B802417B14FE40AE470581
:10FA2E004185EB094114AE0B419A9939419A9939A6
:10FA3E0041AE472541AE47254152B8F64052B8FE79
:10FA4E00400000F840000004417B140A4100000C05
:10FA5E0041AE473D41AE473D41AE4725419A9925BE
:10FA6E00410AD7F34052B8F6401F85F34052B80210
:10FA7E0041A47009411F850B41713D3E417B143EEF
:10FA8E0041C3F52441AE47254114AEEF403D0AEF88
:10FA9E00409A99F1408FC20141CDCC08415C8F0A4A
:10FAAE0041CDCC3C41E17A3C41D7A32441C3F5245E
