:0400000079EF01F0A3
:100008004282FACF04F0FBCF05F0E9CF06F0EACF41
:1000180007F0E1CF08F0E2CF09F0D9CF0AF0DACF44
:100028000BF0F3CF0CF0F4CF0DF0F6CF0EF0F7CFC6
:100038000FF0F8CF10F0F5CF11F09EB602D09EA6C3
:1000480000D1C698C6BC02D0C6AE05D0C9CF2FF025
:10005800C69CC69EC688C7B48FD0C7BA03D0C9CFBE
:1000680030F089D0C9CF31F02E50010D600EF32445
:10007800D96E000EF420DA6EC9CFDFFF2E2A400EAB
:1000880000016019D8A46BD089A002D0010E01D05C
:10009800000EFF0A036E89500318FE0B0318896EC1
:1000A8004088000E2D6E4096409A140E2E6457D04C
:1000B8002C50D8A454D061C02AF12AC1CAF062C019
:1000C8002BF12BC1C9F063C02CF12CC1C8F064C05E
:1000D8002DF12DC13BF065C02EF12EC13AF066C05E
:1000E8002FF12FC139F067C030F130C138F068C046
:1000F80031F131C137F069C032F132C1C7F06AC09D
:1001080033F133C136F06BC034F134C1C2F06CC086
:1001180035F135C1C6F06DC036F136C1C5F06EC0D7
:1001280037F137C1C4F06FC038F138C1B4F00001FD
:10013800B56B70C07CF07CC0C1F071C07DF07DC033
:10014800C0F072C03BF13BC1C3F073C03CF13CC18D
:10015800CBF074C03DF13DC132F0000E2E6E600E42
:1001680000016019D8A407D0408A40964098000E34
:100178002D6E000E2E6EC688C7A461D040A817D079
:100188002C50D8A414D0000E2E6E2B50D8A404D016
:10019800000EC96E000E03D0320EC96E010E2C6E11
:1001A8002D2A2D50D8B42BD0000E2D6E28D040A863
:1001B80026D02C04D8A423D021EE7FF010EE12F024
:1001C8000E0EDBCFE3FFE806FCE225C012F026C0E6
:1001D80013F0000E2E6E2D50010D120EF324D96E61
:1001E800000EF420DA6EDF50C96E2D2A0E0E2D6433
:1001F80006D0000E2D6E000E2C6E000E2B6E40AA3F
:100208001ED0000E2E6E2D50010D2A0EF324D96E2D
:10021800010EF420DA6EDF50C96E2D2A0A0E2D6405
:100228000ED089A002D0010E01D0000EFF0A036E85
:1002380089500318FE0B0318896E000E2D6E9E96CA
:10024800C6889EAA17D09D9A9E9AABB202D0ABA43C
:1002580003D0AB92AB98AB88AECF3EF03D50010DCA
:100268005C0EF324D96E010EF420DA6E3EC0DFFF77
:100278003D2A9D8AA1B2A0A21AD0A192D80E026EE0
:10028800EF0E016E7AEC08F00001944B952B0001FB
:10029800924B932B274A282A285004E10F0E275CFB
:1002A800D8A005D03C2A000E286E000E276E11C07B
:1002B800F5FF10C0F8FF0FC0F7FF0EC0F6FF0DC026
:1002C800F4FF0CC0F3FF0BC0DAFF0AC0D9FF09C066
:1002D800E2FF08C0E1FF07C0EAFF06C0E9FF05C06A
:1002E800FBFF04C0FAFF4292110097EF07F0CEEC33
:1002F80007F0820E01017B6FDD0EE82EFED77B2F03
:10030800FCD700D0F28EF28CA082D09E63EC08F06D
:10031800D80E0001CF6FEF0ECE6F74EC08F08B9201
:100328008B9089808B84F098300EF7EC07F0010EE3
:100338003D64E8D0520E01015C19D8B4B8D0CAD0D7
:10034800CE0E4FEC08F07D0E4FEC08F07C0E4FEC13
:1003580008F0D0D00001C451C5C07BF101017C6B0D
:100368007BC17CF101017B6B01017B13000E7C13C7
:100378007BC174F07CC175F00001000E75BFFF0EE3
:10038800766F776F0001C051C1C07BF101017C6BB2
:100398007BC17CF101017B6B01017B1100018A6F3C
:1003A80001017C5100018B6F0001C851C9C07BF16C
:1003B80001017C6B7BC17CF101017B6B01017B112D
:1003C80001017D6F01017C5101017E6F74C0CFF086
:1003D80075C0D0F033EC08F0B4C0CFF0B5C0D0F0A1
:1003E80033EC08F08AC0CFF08BC0D0F033EC08F0C3
:1003F8000001C3514FEC08F00001C2514FEC08F066
:100408000001CB514FEC08F07DC1CFF07EC1D0F098
:1004180033EC08F00001CA514FEC08F00001C75155
:100428004FEC08F067D074C0CFF075C0D0F033EC53
:1004380008F0000E0001D06F000ECF6F33EC08F00B
:10044800000E4FEC08F0000E4FEC08F0000E4FECD9
:1004580008F0000E4FEC08F0000E0001D06F000EFF
:10046800CF6F33EC08F046D0010E0001D06F010EBB
:10047800CF6F33EC08F0020E0001D06F010ECF6F82
:1004880033EC08F037D074C0CFF075C0D0F033EC3F
:1004980008F0C6C0CFF00001D06B33EC08F0000EB6
:1004A8000001D06F040ECF6F33EC08F023D00101A8
:1004B8005D51310AD8B444D7030AD8B44BD7010ADE
:1004C800D8B4B1D7070AD8B4CFD7010AD8B4DBD784
:1004D800030A10D0450E01015C19D8B40ED012D011
:1004E800040E3D18D8A40ED0010E2B6E5EC125F067
:1004F8005FC126F0000E3D6E05D001015D51310A45
:10050800D8B4EED7000E0001FA6F480E0001FB6F59
:10051800C20E0001FC6F120E0001DC6F830E000199
:10052800DD6F3B0E0001DE6FCCC0D6F0CDC0D7F03A
:100538000EEC08F0D6C0D9F0D7C0DAF0D8C0DBF09E
:1005480000EC04F0D9C0EBF0DAC0ECF0DBC0EDF061
:10055800400E0001E86F1C0E0001E96F460E000115
:10056800EA6FAFEC04F0E8C0F7F0E9C0F8F0EAC0D1
:10057800F9F0CCEC02F0F7C06CF1F8C06DF1F9C0FD
:100588006EF155EC05F06CC19CF06DC19DF0CFD6B5
:10059800F9C066F10101676B686B0001F83501016C
:1005A800663701E367810101665101016B6FFCC089
:1005B80066F10101676B686B0001FB350101663765
:1005C80001E367810101665101016A6F01016B5105
:1005D8000101D8B411D001016A5101016B5DD8B095
:1005E80012D001016B51000801016A250101666FF3
:1005F800180E0101666507D0FAC0F7F0FBC0F8F0E5
:10060800FCC0F9F0120001016A510101D8B411D0FF
:1006180001016B5101016A5DD8B012D001016A5124
:10062800000801016B250101666F180E010166655E
:1006380007D0F7C0F7F0F8C0F8F0F9C0F9F01200E9
:10064800060E0101696F0001F9AF02D00101698F3F
:100658000001FCAF02D00101698D0001F88FFF0E87
:100668000001F717FF0E0001F817000E0001F91737
:100678000001FB8FFF0E0001FA17FF0E0001FB17A8
:10068800000E0001FC1701016A5101016B5DD8B031
:1006980025D00001D890FA37FB37FC3701016A07EB
:1006A80001016B5101016A19D8B411D00101690720
:1006B80069C166F1070E01016617D8B408D0E9D7F9
:1006C8000001D890F933F833F73301016B2B01019E
:1006D8006A5101016B19D8B42BD0F2D701016B51C3
:1006E80001016A5DD8B024D00001D890F737F837F7
:1006F800F93701016B0701016B5101016A19D8B47F
:1007080011D00101690769C166F1070E0101661779
:10071800D8B408D0E9D70001D890FC33FB33FA33BA
:1007280001016A2B01016A5101016B19D8A4F3D7A1
:10073800010169AF12D0FF0E0001F71BFF0E000187
:10074800F81BFF0E0001F91B010E0001F727000E30
:100758000001F823000E0001F923010169AD12D050
:10076800FF0E0001FA1BFF0E0001FB1BFF0E00012C
:10077800FC1B010E0001FA27000E0001FB23000EEE
:100788000001FC23000E0101696F0001F75100010F
:10079800FA270001F8510001FB230001F95100017B
:1007A800FC230001FCAF15D0FF0E0001FA1BFF0E61
:1007B8000001FB1BFF0E0001FC1B010E0001FA27C4
:1007C800000E0001FB23000E0001FC23010E0101B5
:1007D800696FFAC0CEF0FBC0CFF0FCC0D0F06BC19F
:1007E800D1F069C1D2F011EC07F0CEC0F7F0CFC05C
:1007F800F8F0D0C0F9F01200DBC0DFF00001E06BC8
:10080800E16B0001DA350001DF3701E3E081000127
:10081800DF510001E26F0001E251D8A40AD0000EB6
:100828000001D96F000E0001DA6F000E0001DB6FC6
:100838001200DEC0DFF00001E06BE16B0001DD3586
:100848000001DF3701E3E0810001DF510001E76FBC
:100858000001E751D8A40AD0000E0001D96F000E9C
:100868000001DA6F000E0001DB6F12000001E75192
:100878007B0F0001E227DBC0E7F00001DE51000139
:10088800E71B800E0001E7170001DA8F0001DD8FFA
:10089800FF0E0001DC17FF0E0001DD17000E00013E
:1008A800DE17000E0001E36F000E0001E46F000E7A
:1008B8000001E56F070E0001E66F0001D9A10CD019
:1008C8000001DC510001E3270001DD510001E423B0
:1008D8000001DE510001E5230001D890DB33DA3353
:1008E800D9330001D890DC37DD37DE370001E62F39
:1008F800E4D7090E0001E66F0001D9A10CD0000170
:10090800DC510001E3270001DD510001E42300016F
:10091800DE510001E5230001D890DB33DA33D93307
:100928000001D890E533E433E3330001E62FE4D740
:10093800E3C0CEF0E4C0CFF0E5C0D0F0E2C0D1F023
:10094800E7C0D2F011EC07F0CEC0D9F0CFC0DAF092
:10095800D0C0DBF01200EAC0EEF00001EF6BF06BE4
:100968000001E9350001EE3701E3EF810001EE51A6
:100978000001F56F0001F551D8A40AD0000E00015E
:10098800E86F000E0001E96F000E0001EA6F120027
:10099800EDC0EEF00001EF6BF06B0001EC350001EB
:1009A800EE3701E3EF810001EE510001F66F00011F
:1009B800F651D8A40AD0000E0001E86F000E00011D
:1009C800E96F000E0001EA6F1200000E0001F26FDD
:1009D800000E0001F36F000E0001F46F0001F651E4
:1009E800890F0001F55FEAC0F6F00001ED51000142
:1009F800F61B800E0001F6170001E98FFF0E0001BB
:100A0800E817FF0E0001E917000E0001EA170001C0
:100A1800EC8FFF0E0001EB17FF0E0001EC17000E24
:100A28000001ED17180E0001F16F0001D890F237A0
:100A3800F337F4370001EB510001E85D0001EC5198
:100A48000001E9590001ED510001EA59D8A00ED082
:100A58000001EB510001E85F0001EC510001E95B86
:100A68000001ED510001EA5B0001F2810001D8901C
:100A7800E837E937EA370001F12FD7D7F2C0CEF0CF
:100A8800F3C0CFF0F4C0D0F0F5C0D1F0F6C0D2F08A
:100A980011EC07F0CEC0E8F0CFC0E9F0D0C0EAF022
:100AA80012006EC170F10101716B726B01016D353D
:100AB8000101703701E371810101705101017A6F01
:100AC80001017A51D8A40AD0000E01016C6F000E02
:100AD8006D6F000E6E6F000E6F6F1200170E010122
:100AE800706F6CC171F16DC172F16EC173F101016A
:100AF80070290101746F05D00101D89073337233E6
:100B080071330101742FF8D7010171510101756F1B
:100B180001016D8FFF0E01016C17FF0E01016D17AA
:100B2800000E01016E1701016C510101766F010180
:100B38006D510101776F01016E510101786F01015B
:100B4800796B8E0E01017A5F01017AAF1AD001012B
:100B58007A51800A8F0FD8B00AD0000E01016C6F4D
:100B6800000E6D6F000E6E6F000E6F6F12000101A8
:100B7800D890793378337733763301017A3FF7D7D2
:100B88001BD0170E01017A6512D0000E01016C6F9F
:100B9800000E6D6F000E6E6F000E6F6F1200010178
:100BA800D890763777377837793701017A07010196
:100BB8007A510101D8A4F3D7010175510101D8B4C4
:100BC80009D00101791F781F771F766D000E7723F2
:100BD8007823792376C16CF177C16DF178C16EF114
:100BE80079C16FF11200948E949C900EAB6E000147
:100BF800E0050001E111D8A43DD0240EAC6EDCC0A4
:100C0800D2F0DDC0D3F0DEC0D4F0DFC0D5F0000EE6
:100C18000001CE6F5A0ECF6F620ED06F020ED16FE9
:100C280084EC06F0F00E0001CE250001E46FFF0E03
:100C38000001CF210001E56FFF0E0001D021000166
:100C4800E66FFF0E0001D1210001E76FE4C0CEF08E
:100C5800E5C0CFF0E6C0D0F0E7C0D1F0100E00013B
:100C6800D26F000ED36F000ED46F000ED56F84ECD8
:100C780006F03CD0200EAC6EDCC0D2F0DDC0D3F064
:100C8800DEC0D4F0DFC0D5F0000E0001CE6F5A0EE2
:100C9800CF6F620ED06F020ED16F84EC06F0C00EDB
:100CA8000001CE250001E46FFF0E0001CF210001F5
:100CB800E56FFF0E0001D0210001E66FFF0E000175
:100CC800D1210001E76FE4C0CEF0E5C0CFF0E6C067
:100CD800D0F0E7C0D1F0400E0001D26F000ED36F04
:100CE800000ED46F000ED56F84EC06F0CEC0E2F093
:100CF800CFC0E3F0B896E2C0AFFF9D8A9D9812007E
:100D0800000E0001D76F0001D5AF0CD00001D51F30
:100D1800D41FD31FD26D000ED323D423D523010EA5
:100D28000001D76F0001D1AF0CD00001D11FD01F37
:100D3800CF1FCE6D000ECF23D023D123010E00018B
:100D4800D71B000E0001D86F000ED96F000EDA6FA6
:100D5800000EDB6F0001D2510001D3110001D41144
:100D68000001D511D8B442D0010E0001D66F08D0C9
:100D78000001D890D237D337D437D5370001D62BD6
:100D88000001D5AFF5D70001D890D837D937DA3771
:100D9800DB370001D2510001CE5D0001D3510001C3
:100DA800CF590001D4510001D0590001D55100019B
:100DB800D159D8A012D00001D2510001CE5F000154
:100DC800D3510001CF5B0001D4510001D05B000179
:100DD800D5510001D15B0001D8810001D890D533ED
:100DE800D433D333D2330001D62FCDD70001D75116
:100DF8000001D8B409D00001DB1FDA1FD91FD86D54
:100E0800000ED923DA23DB23D8C0CEF0D9C0CFF027
:100E1800DAC0D0F0DBC0D1F012000001D1510001DE
:100E2800D8B408D00001CE510001CF110001D01173
:100E3800D8A411D0000E0001CE6F000E0001CF6FB4
:100E4800000E0001D06F12000001D12B0001D890D4
:100E5800D033CF33CE33000E0001CE150001D36F4F
:100E6800000E0001CF150001D46FFE0E0001D01551
:100E78000001D56F0001D3510001D4110001D51133
:100E8800D8B411D0E1D70001D12B010E0001CE2733
:100E9800000E0001CF23000E0001D0230001D890DE
:100EA800D033CF33CE33000E0001CE150001D36FFF
:100EB800000E0001CF150001D46FFF0E0001D01500
:100EC8000001D56F0001D3510001D4110001D511E3
:100ED800D8B408D0D8D70001D1070001D890CE37B0
:100EE800CF37D0370001CFBF04D0020E0001D16147
:100EF800F2D70001D1B102D00001CF9F0001D890F4
:100F0800D1330001D1510001D0130001D2510001A9
:100F1800D8B402D00001D08FCEC0CEF0CFC0CFF071
:100F2800D0C0D0F01200D80EF66E100EF76E000E7C
:100F3800F86E01EE7FF010EE0FF00900F5CFEEFF2E
:100F4800E550E150FAE1FE0EF66E100EF76E000E57
:100F5800F86E0900F5CFFDF00900F5CFFEF001EEBF
:100F680000F0660EEE6AE806FDE100EE60F06E0E37
:100F7800EE6AE806FDE1416A406A00EE21F01F0EC4
:100F8800EE6AE806FDE142904292000EF86E00011A
:100F98007BEF01F023EC08F0948E949C939E929042
:100FA8009292929492969298020E816E939493964E
:100FB8009398939A9492949094949668000E000152
:100FC800DC6F960EDD6F000EDE6F000EDF6F000E19
:100FD8000001E16F010EE06FF7EC05F05AEC08F044
:100FE80042EC08F012000001CE6F000E0F013A6FBC
:100FF80094869488948A360EC66E010EC56ECEC04D
:10100800C8FF000EC76EF28EF28C9D869D869E9656
:101018009E961200D6C0CEF0D7C0CFF00001D06B9C
:101028008E0E0001D16F000E0001D26F11EC07F097
:10103800CEC0D6F0CFC0D7F0D0C0D8F01200000E86
:101048000F01386F000E0F01396F000E0F013A6F54
:10105800000E0F013B6F000E0F013C6F12000001E4
:10106800D0510001D16FCFC0D2F00001D1514FEC67
:1010780008F00001D2514FEC08F01200A092B19A8A
:10108800B198B1963F0EB116B182000EB26E000E45
:10109800B36EB18012000001CE6FCEC0ADFFACA21E
:1010A800FED7210EE82EFED700F012009D90CD8AC3
:1010B800CD98CD963F0ECD16CD82CD801200D5802D
:1010C800D592D594D59CD596D598D59AD58E12001B
:0F10D800BBFC111213111213111213111213BCBE
:1010E8000001CF51B36ECEC0B2FF12000250B36EF2
:0810F80001C0B2FF12000C0060
:020000040020DA
:08000000FFFFFFFFFFFFFFFF00
:020000040030CA
:0E000000FF321F3FFFBF81FF0FC00FE00F4018
:00000001FF
